:4000000000800020110000004D2700004D27000008B5044B1A6803F53F5302331A6002F09DFB00BFFA46004010B5054C237833B9044B13B10448AFF300800123237010BDF5
:400040004881FF1F00000000602D0000084B10B51BB108490848AFF300800848036803B910BD074B002BFBD0BDE81040184700BF000000004C81FF1F602D0000C880FF1FE8
:4000800000000000094A22F00702094BC3F838290020C3F83C0947F6F871C3F84419C3F84009516003F51463136070476C81FF1F2CF8FF1F70B5044600F0A8FD244BD3F8AB
:4000C00048392BB9FFF7DEFF0122214BC3F8482934B1083414F0070F02D024F007040834621E47F6F6739A422BD81949D1F8383901F6381101E0194613465A68944202D9B8
:400100001A68002AF7D1134A93421CD00D6808351A680A605A68121B102A0CD91E1972605C6074680C4900E011460A6850688442FAD832600E605968084A13685B1A13601C
:4001400002E0002500E0002500F0F0FD284670BD2CF8FF1F6C01002064010020CC80FF1FD0B170B50546A0F1080600F04FFD55F8044C0A4A00E01A46136859688C42FAD864
:4001800045F8083C166055F8043C054A11680B44136000F0CBFD70BD704700BF64010020CC80FF1F00F1080343604FF0FF328260C360036100230360704700BF00230361EC
:4001C000704700BF43684B609A688A609A68516099600861036801330360704730B40D68B5F1FF3F01D1026907E000F1080200E01A4653681C68A542FAD253684B6099608C
:400200008A605160086103680133036030BC704703694268816891608268416851605A68904201D182685A60002202611A68013A1A601868704700BF82B0002301934FF0FD
:40024000A00383F31188BFF36F8FBFF34F8F019B002BFCD002B0704706480068006880F3088862B661B6BFF34F8FBFF36F8F00DF00BF000008ED00E04FF0807340F8043CE3
:4002800021F0010140F8081C034B40F80C3C40F8202C4038704700BF3902000000000000074B19680868B0E8F00F80F30988BFF36F8F4FF0000080F311884EF00D0E70476B
:4002C0006C0400204FF0A00383F31188BFF36F8FBFF34F8F024A136801331360704700BFD080FF1F034A1368013B13600BB983F311887047D080FF1F00000000000000007C
:40030000EFF30980BFF36F8F0D4B1A6820E9F00F10602DE908404FF0A00080F3118800F071FD4FF0000080F31188BDE8084019680868B0E8F00F80F30988BFF36F8F70477E
:400340006C04002008B54FF0A00383F31188BFF36F8FBFF34F8F00F069FC18B14FF08052024B1A60002383F3118808BD04ED00E0054B00221A6005490A6045F6BF51044A04
:40038000116007221A60704710E000E018E000E014E000E010B50B4B1A6842F460021A601A6842F060421A60FFF7E2FF0024064B1C60FFF751FF00F025FDFFF73DFF2046BF
:4003C00010BD00BF20ED00E0D080FF1F10B50446FFF778FFA26BE36B9A4201D1012400E00024FFF77FFF204610BD00BF10B50446FFF768FFA36B0BB9012400E00024FFF7A5
:4004000071FF204610BD00BF70B504461646856B026C3AB9036843BB806800F0D7FD0023A36029E06EB9406802F086FC6268236C13446360A268934219D32368636000200B
:400440001AE0C06802F078FC236C5B42E2681A44E26021688A4202D2A2681344E360022E07D145B1013D002006E0002004E0002002E0002000E000200135A56370BD00BF7F
:40048000026C72B110B5C3681344C3608468A34201D30368C3600C46C168204602F04CFC10BD704738B50546FFF70CFF95F8454064B20AE06B6A53B105F1240000F0FEFC47
:4004C00008B100F06BFD013C64B2002CF2DCFF2385F84530FFF706FFFFF7F4FE95F8444064B20AE02B6953B105F1100000F0E6FC08B100F053FD013C64B2002CF2DCFF23BE
:4005000085F84430FFF7EEFE38BD00BF38B504460D46FFF7D7FE2168E26B236C03FB0210A0600020A0636160013A02FB0313E360FF2384F8443084F845307DB92369ABB1D4
:4005400004F1100000F0BAFC80B14FF08052094B1A60BFF34F8FBFF36F8F07E004F11000FFF720FE04F12400FFF71CFEFFF7BAFE012038BD04ED00E010B5029B0C4609B94C
:400580001B6000E01A60D8631C6401211846FFF7BDFF10BDF0B583B0054617460E4611B100FB01F000E000204830FFF783FD044638B100903B4600F1480231462846FFF7E2
:4005C000DBFF204603B0F0BDF0B585B004460F4601921E460025FFF775FEA26BE36B9A4201D3022E21D1324639462046FFF70CFF636A6BB104F1240000F060FC88B14FF00C
:400600008052324B1A60BFF34F8FBFF36F8F08E038B14FF080522D4B1A60BFF34F8FBFF36F8FFFF75FFE01204EE0019B1BB9FFF759FE002048E01DB902A800F079FC0125EB
:40064000FFF750FE00F0E2FAFFF73CFE94F844305BB2B3F1FF3F02D1002384F8443094F845305BB2B3F1FF3F02D1002384F84530FFF738FE01A902A800F064FCF0B92046AF
:40068000FFF7A4FEA0B1019904F1100000F0F2FB2046FFF707FF00F049FB00289BD14FF080520A4B1A60BFF34F8FBFF36F8F92E72046FFF7F7FE00F039FB8CE72046FFF7CE
:4006C000F1FE00F033FB002005B0F0BD04ED00E0F8B5EFF311864FF0A00484F31188BFF36F8FBFF34F8F856BC46BA54201D3022B1BD11746054690F8454064B21A46FFF72D
:4007000083FEB4F1FF3F0AD16B6A83B105F1240000F0D4FB68B177B1012038600CE0013464B285F84540012006E0002004E0012002E0012000E0012086F31188F8BD00BFAF
:40074000F0B585B004460F4601920026FFF7BAFDA56BC5B139462046FFF792FE013DA563236963B104F1100000F0A8FB38B14FF08052304B1A60BFF34F8FBFF36F8FFFF706
:40078000B1FD012053E0019B1BB9FFF7ABFD00204DE01EB902A800F0CBFB0126FFF7A2FD00F034FAFFF78EFD94F844305BB2B3F1FF3F02D1002384F8443094F845305BB267
:4007C000B3F1FF3F02D1002384F84530FFF78AFD01A902A800F0B6FBF0B92046FFF706FEA0B1019904F1240000F044FB2046FFF759FE00F09BFA0028A8D14FF080520D4B40
:400800001A60BFF34F8FBFF36F8F9FE72046FFF749FE00F08BFA99E72046FFF743FE00F085FA2046FFF7E2FD00288FD0002005B0F0BD00BF04ED00E000230BE0074A52F857
:40084000332032B9054A42F8331002EBC303586070470133092BF1D9704700BF0C06002070B504460D461646FFF72CFD94F844305BB2B3F1FF3F02D1002384F8443094F8D4
:4008800045305BB2B3F1FF3F02D1002384F84530FFF728FDA36B2BB93246294604F1240000F0F8FA2046FFF7FDFD70BD074B9B6A1B6823B94FF0FF32044BDA627047034BC5
:4008C0009A6AD268D2685268DA6270477801002010B50446006BFFF743FC2046FFF740FC10BD00BF2DE9F04781460D4617469A46089EDDF824800A9C9200A521206B02F029
:4009000026FA236B07F18042013A03EB820727F00707002306E0E95CE21882F83410EA5C12B101330B2BF6D9002384F83F301F2E00D91F26E662266400256564201DFFF7C4
:400940003DFC04F11800FFF739FC2461C6F12006A6616462A56484F84C50524649463846FFF78AFC2060B8F1000F01D0C8F80040BDE8F08770B5002407E004EB8402930038
:4009800010481844FFF70EFC01341F2CF5D90E4C04F52C763046FFF705FC04F531752846FFF700FC04F11400FFF7FCFB04F53670FFF7F8FB2046FFF7F5FBA662C4F8EC5208
:4009C00070BD00BFA80100207801002038B50546FFF778FC264BD3F8F0220132C3F8F022D3F8F4324BB9224BC3F8F452D3F8F032012B10D1FFF7BEFF0DE01D4BD3F8F8325F
:400A00004BB91B4BD3F8F432DA6AEB6A9A4202D8174BC3F8F452164CD4F8FC320133C4F8FC32EB6A012202FA03F1D4F800230A43C4F8002304F1300003EB83039A00291D33
:400A40001044FFF7BFFBFFF74DFCD4F8F8326BB1D4F8F432DA6AEB6A9A4207D24FF08052044B1A60BFF34F8FBFF36F8F38BD00BF7801002004ED00E038B517E0FFF722FCB1
:400A80000D4CD4F8E432DD68281DFFF7C1FBD4F8F032013BC4F8F032D4F80433013BC4F80433FFF71FFC2846FFF712FF024BD3F80433002BE2D138BD7801002008B5FFF791
:400AC000DBFFFCE770B504460E461E4BD3F80853D3F8F4020430FFF79BFB60B9194BD3F8F422D16A012202FA01F1D3F8002322EA0102C3F80023B4F1FF3F07D136B11148E6
:400B0000D0F8F4120431FFF75DFB70BD2C440D4BD3F8F4325C60A54208D90A4BD3F8EC02D3F8F4120431FFF759FB70BD054DA86AD5F8F4120431FFF751FBEB6A9C4200D2BC
:400B4000EC6270BD780100202DE9F04385B006460F46154698469000FFF7ACFA60B181465020FFF7A7FA044610B1C0F8309004E04846FFF7F5FA00E000248CB1002303932A
:400B800002940D9B01930C9B009343462A4639463046FFF7A7FE2046FFF718FF012001E04FF0FF3005B0BDE8F08300BF00B583B0124B019300230093642211491148FFF773
:400BC000C3FF012801D100F09BFA012813D14FF0A00383F31188BFF36F8FBFF34F8F0A4B4FF0FF32DA620122C3F8F8220022C3F80823FFF7CFFB03B05DF804FB8804002001
:400C0000642D0000BD0A000078010020034AD2F80C330133C2F80C33704700BF78010020014BD3F808037047780100202DE9F0413D4BD3F80C33002B62D13B4BD3F80873BC
:400C40000137C3F8087367B99A6AD3F8EC129962C3F8EC22D3F814230132C3F81423FFF725FE314BDB6A9F4205D24FF000083BE04FF0010801E04FF000082B4B9B6A1B68CC
:400C800023B94FF0FF32284BDA622DE0264B9B6ADB68DC6863689F4202D2234AD36223E0261D3046FFF7B4FAA36A1BB104F11800FFF7AEFAE36A012202FA03F11A4DD5F895
:400CC00000230A43C5F8002305F1300003EB83039A0031461044FFF775FAE26AD5F8F432DB6A9A42C4D2C8E70F49D1F8F432DB6A03EB83039A000A44136B012B09D80AE03E
:400D0000094AD2F818330133C2F818334FF0000801E04FF00108044BD3F81C330BB14FF001084046BDE8F0817801002070B5FFF7C9FA324BD3F80C23013AC3F80C23D3F8BB
:400D40000C33002B53D12D4BD3F8F03243BB002450E02A4C236ADD6805F11800FFF758FA2E1D3046FFF754FAEB6A012202FA03F1D4F800230A43C4F8002304F1300003EBF5
:400D800083039A0031461044FFF71CFAEA6AD4F8F432DB6A9A4204D30122C4F81C2300E00025164B5B69002BD3D10DB1FFF77EFD124BD3F8184364B1FFF738FF18B1012207
:400DC0000E4BC3F81C23013CF6D100220B4BC3F818230A4BD3F81C335BB14FF08052084B1A60BFF34F8FBFF36F8F012402E0002400E00024FFF776FA204670BD78010020D4
:400E000004ED00E01A4BD3F80C3323B10122184BC3F81C23704710B4154A0023C2F81C33D2F80033B3FA83F3DBB2C3F11F039800C418A10011444C6B64684C6302F13001D5
:400E40001844820008320A44944206D1606803EB83018A0006490A445063054903EB83039A000A44536BDB68C1F8F43210BC70477801002010B50C46054BD3F8F412183124
:400E8000FFF7ACF901212046FFF71CFE10BD00BF7801002038B50D461446074BD3F8F4121831FFF78FF90CB14FF0FF3521462846FFF708FE38BD00BF7801002038B5C368F0
:400EC000DC6804F118052846FFF7A2F9164BD3F80C33B3B9251D2846FFF79AF9E36A012202FA03F11048D0F800230A43C0F80023303003EB83039A0029461044FFF762F940
:400F000003E029460948FFF75DF9E26A064BD3F8F432DB6A9A4204D90120034BC3F81C0338BD002038BD00BF780100208C010020034BD3F814230260D3F8083343607047CC
:400F400078010020F8B504460D46FFF7BBF9124BD3F808136268881A2B68B3F1FF3F14D027680D4ED6F81463B74201D091420ED2984206D21B1A2B602046FFF7D9FF002466
:400F800006E000232B60012402E0002400E00124FFF7A8F92046F8BD780100200122024BC3F81C23704700BF78010020064BD3F8F8322BB1044BD3F80C331BB90220704781
:400FC000012070470020704778010020002838D038B50346426C013A4264C06A196C884231D092BB1C461D1D2846FFF711F980B9E26A02EB82018B0015490B441B6B43B934
:40100000012303FA02F2D1F8003323EA0202C1F80023236CE362C3F12002A261012404FA03F10B48D0F800230A43C0F80023303003EB83039A0029461044FFF7C3F8204640
:4010400038BD00207047002038BD002038BD00BF78010020064B1A6813680BB9012300E00023036013B9D36818687047002070479804002008B54160006191420AD8D21A55
:4010800083699A4211D2011D0A4B5868FFF7A6F8002008BD9A4201D2994208D2011D054B1868FFF79BF8002008BD012008BD012008BD00BF9804002070B5FFF703F90E4B62
:4010C0009B68B3B90C4C04F10C063046FFF76AF804F120052846FFF765F82660656000220C210A20FFF756FAA06010B10349FFF7A3FBFFF7F7F870BD980400206C2D000067
:4011000000B583B0FFF7D8FF094B9B685BB1094B01931F23009300234FF4806206490748FFF712FD00E0002003B05DF804FB00BF98040020CC040020742D00007113000058
:4011400030B585B0134CA56805B31C46019102920390052913DCFFF729FF022807D10023089A01A90B488068FFF72EFA0FE000231A4601A907488068FFF726FA07E000239E
:40118000224601A92846FFF7A3FA00E0002005B030BD00BF9804002070B582B01FE0DB681E68DC68251D2846FFF732F8636A20469847E369012B12D1A36933449E4207D223
:4011C0006360246129460B4B1868FFF707F806E0002100910B4632462046FFF7B1FF054B1B681A68002ADAD1024A51681160536002B070BD9804002038B50546FFF710FDD7
:401200000446074B9B6B984204D2FFF7C5FF01232B6001E000232B60014B9C63204638BD9804002070B582B005460E460E4B1B68DB68DC68201DFEF7EBFFE369012B0ED136
:40124000A1692B46324629442046FFF713FF30B1002100910B462A462046FFF771FF636A2046984702B070BD9804002070B582B006460C46FFF7CAFC01A8FFF7BDFF019B2B
:4012800023BB054644B9B04206D3FFF74FFD29463046FFF7C7FF1BE034B10E4B5B681B680BB9012400E000242246711B094B9868FFF7D6FAFFF73AFD50B94FF08052064B48
:4012C0001A60BFF34F8FBFF36F8F01E0FFF72EFD02B070BD9804002004ED00E030B587B03AE0039B002B37DB059C636913B1201DFEF78EFF02A8FFF77FFF039B092B2BD8D2
:40130000DFE803F00505052A1E2705052A1E0499A5690B46024629442046FFF7ABFED8B1636A20469847E369012B15D1A269002100910B46049802442046FFF701FF0BE03D
:401340000499A1610346024601442046FFF792FE02E02046FEF704FF002203A9034B9868FFF7EEF90028BCD107B030BD9804002000B583B001A8FFF76DFE0199FFF776FFC7
:40138000FFF7ACFFF6E700BF034B044ADA62044A9A63044ADA6370470080FF1FA1020000010300004503000008B501F08BFB01F08FFB0122014B1A7008BD00BFD4040020DA
:4013C00010B582B00023009304230DEB03024FF6FF710F2000F00CFA9DF807409DF806301B0443EA04649DF8053044EA03239DF804401C43B4F1FF3F15D104230DEB0302A4
:401400004FF6FF710F2000F0F3F99DF807409DF806301B0443EA04639DF8054043EA04239DF804401C4314F0800F07D001231C4A537007220421684600F0B6F904F4C843D7
:40144000B3F5C84F08D19DF8013043F064038DF801300122124B9A70124B1C4214D09DF8013063F06F038DF801309DF8023043F027038DF802309DF8033043F004038DF8F2
:4014800003300122064BDA7004236A464FF6FF710F2000F00DFA0022014B1A7002B010BDD40400200090270438B50024664B1C7101F046FB012001F0B3FB012001F0BEFB53
:4014C000204601F0ADFBB8E05F4B1B79DBB2062B00F2B380DFE803F0040F437581A55900594C00236370A37000F040FF00F090FF01232371A1E0544B1B78012B01D1FFF775
:401500005FFF514BDB7833B14F4C0025E57000F067FF257191E04C4B9B78002B00F08D80494C04F1080000F0BFFF237A112B05D102222271012001F0D3FA0BE0212B06D1A3
:401540000322414B1A71012001F0D6FA02E000223D4B1A713C4B00229A705A706DE000F005FF394C052304F188024FF6FF71152000F03EF920461A2300F8903F0122114657
:4015800000F05CFF0623237157E02F4B1B78012B01D1FFF715FF2C4B5B78002B4DD02A4C052304F588724FF6FF71172000F020F90023637000F0DAFE00F02AFF0123237130
:4015C0003BE0214C052304F58C724FF6FF71152000F00EF9042323712FE000F0C7FE002313E01948C21892F8881082F89010591D92F81041014481F8904003F10A0192F8EF
:401600001841421882F890400133042BE9DD0E4C01220F2104F1900000F010FF052323710BE0094B1B78012B01D1FFF7C9FE064B5B7813B10022044B1A7101F0E7FA1F280D
:401640003FF642AF31E700BFD404002000B583B0002001F045FA002001F04EFA002001F057FA002001F060FA62B601F0C1FAFFF78BFE01F099F90C4801F016FA012001F0EA
:40168000F7F90A2001F0DAFA00F0BAFD00230193012200924FF4806204490548FFF754FAFFF784FAFEE700BFA91300007C2D0000A91400000379012B02D0022B1ED03EE048
:4016C0000378013B062B3AD8DFE803F004090E13093913004B1EDBB2012B25D82FE0CB1EDBB2012B22D82AE04B1FDBB2012B1FD825E0CB1FDBB2012B1CD820E00378013B72
:40170000062B1CD8DFE803F00404040A041B0A00A1F10903DBB2032B0ED810E0A1F11103DBB2032B0AD80AE0012108E0032106E0052104E0072102E0092100E0112108467D
:40174000704700BF4B1E0C2B1AD8DFE803F00D0A07190A0719190A0719190A00C37853B90EE0C3784BB10BE0C37813B1012B06D006E0062104E0022102E0062100E0052165
:401780000846704738B5044605250570012303710223C3700421FFF78DFF607029462046FFF7D0FFA07038BD30B4D408A5B28D4210D202F0070233B1012303FA02F2035D2C
:4017C0001A43025506E0012303FA02F2035D23EA0202025530BC70470870030A4B70030C8B70000EC87070470870000A487070472DE9F04383B016461D460023ADF8043060
:401800008DF806304FF6FF73994204D18DF804004FF0010914E040F040008DF804007F2904D88DF805104FF0020909E061F07F038DF80530C1F3C7118DF806104FF0030977
:4018400001F024F9074601F029F9002407E002AB234413F8040C01F01BF80134A4B21FFA89F84445F3D3002404E0002001F010F80134A4B2AC42F8D300F0F0FF10F0010FF4
:40188000FAD0002403E001F00FF80134A4B24445F9D3002404E001F007F830550134A4B2AC42F8D30FB101F0EBF803B0BDE8F0832DE9F04182B090461D464FF6FF7399421B
:4018C00005D160F07F008DF80400012612E060F03F008DF804007F2903D88DF80510022608E061F07F038DF80530C1F3C7118DF80610032601F0CAF8074601F0CFF80024A3
:4019000007E002AB234413F8040C00F0C1FF0134A4B2B3B29C42F4D3002405E018F8040000F0B6FF0134A4B2AC42F7D300F096FF10F0010FFAD0002403E000F0B5FF013408
:40194000A4B273199C42F8DB0FB101F099F802B0BDE8F08100B583B0022301AA19461F20FFF746FF0D4B59789DF8042002F03F029DF8053003F0F80342EA81128DF8042004
:4019800043EA91038DF80530022301AA19461F20FFF78EFF03B05DF804FB00BFF405002000B583B0074A1379927843EA820302AA02F8043D012302210820FFF779FF03B0E4
:4019C0005DF804FBF405002000B583B05B4BDB78022B4FD1594B1B79012B02D0022B25D0A0E0564B1B78013B062B00F29B80DFE803F00404090E1399180001A95048FFF7F1
:401A0000EBFE8FE001A94F48FFF7E6FE8AE001A94D48FFF7E1FE85E001A94C48FFF7DCFE80E001A94A48FFF7D7FE7BE0434B1B78013B062B76D8DFE803F00404090E137543
:401A4000180001A94348FFF7C7FE6BE001A94248FFF7C2FE66E001A94048FFF7BDFE61E001A93F48FFF7B8FE5CE001A93D48FFF7B3FE57E0314B1B79012B02D0022B29D065
:401A800050E02E4B1B78013B062B4BD8DFE803F004040A10164A1C0001A94FF07530FFF79BFE3FE001A94FF06F30FFF795FE39E001A94FF05F30FFF78FFE33E001A94FF0A5
:401AC0004830FFF789FE2DE001A94FF09230FFF783FE27E0194B1B78013B062B22D8DFE803F004040A1016211C0001A94FF06730FFF772FE16E001A94FF08B30FFF76CFE4E
:401B000010E001A94FF09A30FFF766FE0AE001A94FF08530FFF760FE04E001A94FF0D130FFF75AFE04230DEB03024FF6FF711E20FFF7BEFE03B05DF804FB00BFF405002008
:401B4000755535156F4F2F0F5F3F1F1F4828080E92725232674727078B6B4B2B9A7A5A3A85654525D1B1715100B583B0254B1B78013B062B35D8DFE803F0040D151D253428
:401B80002D00694645F64040FFF726FEC9238DF8043026E069461C48FFF71EFEC2238DF804301EE069461948FFF716FEC5238DF8043016E069461648FFF70EFE95238DF80B
:401BC00004300EE069461348FFF706FEC0238DF8043006E069461048FFF7FEFD93238DF8043003236A460C212820FFF761FE012301AA0B212A20FFF75BFEFFF7E5FE03B016
:401C00005DF804FBF4050020A05C0400C06C0800805C0400E03F1E00E07D1E0000B583B0084BDB785B0163F07F0302AA02F8043D012319460820FFF73BFEFFF7C5FE03B07F
:401C40005DF804FBF405002000B583B0084A1379927843EA820302AA02F8043D012302210820FFF725FEFFF7AFFE03B05DF804FBF405002008B50748FFF784FDFFF774FF57
:401C8000FFF7CCFFFFF7E0FFFFF764FEFFF788FE08BD00BFF405002000B583B0012301AA03211F20FFF7A4FD094BDA799DF8043003F0070343EAC2038DF80430012301AA85
:401CC00003211F20FFF7F4FD03B05DF804FB00BFF405002000B583B0354B9B7A012B02D0022B2ED05AE0324B1B7A013B0C2B55D8DFE803F007171F54071F54540F1F54543A
:401D00000F0001A92B48FFF767FD0822284BDA8144E001A92848FFF75FFD1022244BDA813CE001A92548FFF757FD2022204BDA8134E001A92248FFF74FFD40221C4BDA8186
:401D40002CE01B4B1B7A013B0C2B27D8DFE803F007171F26071F26260F1F26260F0001A91848FFF739FD0822114BDA8116E001A91548FFF731FD10220D4BDA810EE001A91D
:401D80001248FFF729FD2022094BDA8106E001A90F48FFF721FD4022054BDA8104230DEB030208212720FFF783FD03B05DF804FBF40500202D001A3152001A339A001A358A
:401DC0001D011A376B003B31BE003B335E013B3596023B3700B583B01A4B1B7A013B0C2B08D8DFE803F01B1207070A1507070C1807070F004FF4805011E080200FE04FF42A
:401E000080700CE04FF4007009E04FF4806006E04FF4C06003E04FF4006000E04020094A138AD2891844801A013001A980B2FFF7DBFC022301AA20212720FFF739FD03B0A6
:401E40005DF804FBF405002000B583B00023ADF80430ADF800301D4B1B7A013B0C2B22D8DFE803F0071019211019212110192121100001A91020FFF7B7FC69461020FFF789
:401E8000B3FC10E001A92020FFF7AEFC69462820FFF7AAFC07E001A96420FFF7A5FC69462820FFF7A1FC022301AA06212720FFF7FFFC02236A4626212720FFF7F9FCFFF7BD
:401EC00009FFFFF787FF03B05DF804FBF405002000B583B00D4B9B79013B062B0CD8DFE803F004040408040B0800D8238DF8043002E0BC238DF80430012301AA0B21282043
:401F0000FFF7D6FC03B05DF804FB00BFF405002000B583B000238DF80430144B5B7A13B1022B11D809E069460A20FFF75DFC40238DF804300D4A138206E069460120FFF763
:401F400053FC0822094B1A82012301AA02210420FFF7AEFC02236A4619462720FFF7A8FCFFF738FF03B05DF804FB00BFF405002010B584B0012303AA02211F20FFF738FCCB
:401F80009DF80C3003F0F303224CA27A43EA82038DF80C30012303AA02211F20FFF788FCA37A012B02D0022B0FD01CE002A98720FFF71AFC01A948F67000FFF715FC69462E
:401FC00041F20760FFF710FC0DE002A98D20FFF70BFC01A948F69B00FFF706FC694640F20760FFF701FC022302AA04212720FFF75FFC022301AA04212320FFF759FC022317
:402000006A4641F606012E20FFF752FCFFF762FE04B010BDF405002010B582B0012301AA03210420FFF7E4FB9DF8043043F010038DF804300D4C6946A089FFF7D5FBA38962
:402040002BB99DF8043023F010038DF8043002236A464FF6FF710C20FFF72AFC012301AA03210420FFF724FC02B010BDF405002010B5094CA01DFFF785FB0023A381FFF7B3
:4020800027FFFFF745FFFFF773FFFFF705FEFFF7DBFEFFF7C1FF10BDF405002010B584B0224CA37C43EA031304AA02F8043D01234FF6FF711F20FFF7FBFBA37C013B062BB2
:4020C00024D8DFE803F0040C140C1C231C0001A91748FFF781FB1E238DF8083016E001A91448FFF779FB26238DF808300EE001A91148FFF771FB56238DF8083006E001A9A1
:402100000E48FFF769FBBE238DF8083004230DEB030207212B20FFF7CBFB012302AA0B212B20FFF7C5FB04B010BD00BFF40500200704000908054008091040081D040008B5
:4021400070B582B0012402AD05F8044D23462A4600213620FFF7ACFB204600F06FFD00268DF8046023462A4603213620FFF7A0FB204600F063FDF0238DF8043023462A46E9
:4021800003213620FFF794FB052000F057FD8DF8044003238DF8053002232A4631463620FFF786FB204600F049FD8DF8006080238DF8013002236A4606212D20FFF778FBA9
:4021C000204600F03BFD8DF8046002238DF805302A4631463620FFF76BFB02B070BD00BF08B5FFF7ADFFFFF745FDFFF741FF0522024B9A74FFF752FF08BD00BFF40500201F
:4022000030B587B0FFF7ECFF042305AA4FF6FF710020FFF7EDFA9DF817209DF816301B0443EA02639DF8152043EA02239DF8142013434C4A934203D0642000F0FFFCFBE7F7
:40224000494B18680490042304AA0C212320FFF72FFB06AA6D2302F80C3D012340F606012E20FFF725FB002506AC44F8105D042322464FF6FF710E20FFF7BAFA0123072220
:4022800004212046FFF790FA01230D2204212046FFF78AFA01230C2204212046FFF784FA01230F2204212046FFF77EFA0123102204212046FFF778FA0123112204212046F1
:4022C000FFF772FA0123122204212046FFF76CFA0123152204212046FFF766FA01231A2204212046FFF760FA042322464FF6FF710E20FFF7DDFA40238DF8053006AC4F2346
:4023000004F8143D022322464FF6FF711820FFF7CFFA0223224641F604012E20FFF7C8FA642000F08BFC042305AA4FF6FF712846FFF75EFA9DF817209DF816301B0443EA13
:4023400002639DF8152043EA02239DF814201343044A934203D0642000F070FCFBE707B030BD00BF3001CADE902D000010B582B00023019340228DF80420009300F086FB4F
:40238000044600F08BFB04230DEB03024FF6FF710D20FFF78DFA0123072204216846FFF703FA9DF8013063F00B038DF801309DF8023043F027038DF802309DF8033043F014
:4023C00004038DF8033004236A464FF6FF710F20FFF76EFA0CB100F053FB02B010BD00BF10B582B002ACE02304F8043D0123224603213620FFF75CFAF0238DF804300123A5
:40240000224603213620FFF753FA02B010BD00BF10B582B002AC002344F8043D0123082204212046FFF7C0F9042322464FF6FF710D20FFF73DFA02B010BD00BF30B583B078
:402440000B4615468A1C02AC04F8012D02464FF6FF710920FFF72CFA012322464FF6FF710820FFF725FA02AA002342F8083D01234FF6FF710D20FFF7BBF99DF8003043F07C
:40248000020325B163F07F038DF8003003E003F07F038DF8003004236A464FF6FF710D20FFF706FA03B030BD10B582B0044601230DF107024FF6FF711020FFF799F99DF8ED
:4024C0000730023BDBB28DF8073022464FF6FF711120FFF78DF99DF80730052B16D902AA002302F8023D01234FF6FF711120FFF77FF90D2305E0E21812F8012CE254013B32
:40250000DBB2002BF7D19DF80630237002B010BDFEE700BFF0B40022174611E050F82760F3B226F0FF0608E001EB420511F812406D78A5550132013BDBB2002BF4D101377E
:40254000122FEBD9F0BC7047064B1B78DBB203F00701054A11701B09013213704422034B1A707047CF0100496E5800407658004008B50A46002100F0EAFB08BD38B50F22D5
:40258000264B1A801823264A137041F2BF2102321180023213700622224B1A705222A3F580731A70204B1B78DBB2204A13704FF4E2621F4B1A8041F25122023B1A80002407
:4025C00019250CE01B4B1B7803F0010343EA440404F003044FF4F07000F072FB013D0DB1032CEFD115B90320FFF792FF124A4FF48073138007231370002310490B704820BD
:402600000231087013700532137002220C4B1A700C4A137843F00303137038BD8040004082400040004300400F010049A146004022420040254200400440004006400040C1
:4026400001400040A243004008B500F075FB08BD38B572B6304A137843F00403137000240CE02E4D630019194A0011462A44084691882858FFF77CFF0134E4B2092CF0D9AB
:4026800000240BE02549A3001819420088188022016CC06BFFF7D8FF0134E4B2002CF1D01F494FF09040FFF735FF1E4A137843F0020313701032137843F0020313701A4CEB
:4026C000237843F040032370A2F58632513A137843F010031370082214491548FFF7B4FF0A2214491448FFF7AFFF144A137843F008031370124D61232B70FFF73FFFC123B2
:402700002B7001220F4B1A70FFF71EFF0E2221460D48FFF799FF38BDE8460040942D00004C00004803500140A04300406C020048F2510040740200481051004022430040BE
:402740000048004004000840B043004008B500F0C7FA03680C2B00D1FEE7FEE708B5104E104D16E029686B68AC68002204E051F8040B43F8040B0432A242F8D1E8680022C4
:4027800003E0002143F8041B04328242F9D11035013E002EE6D100F0A9FAFEF757FFFEE701000000002E000008B5104A104B1A60104A136843F40073136000230AE0032B83
:4027C00003D80D4A52F8231000E00C490C4A42F8231001332F2BF2D90A4B1A780A4B1A70074A0A4B1A60FFF733FF08BD0004FA050CED00E014ED00E0000000004D270000D5
:402800000080FF1FBC760040C080FF1F08ED00E00222014B1A60704700E100E008B500F057FA0A4A137843F02003137002F58072137843F0100313700132137843F01003FC
:40284000137000F049FAFFF7E3FF08BD966400400222014B1A60704780E100E0014B1878704700BF6665004010B5FFF7F1FF064B1B78064A147804F040041C4300231370E4
:40288000FFF7C6FF204610BD6765004071060020034B1B7813F0040FFAD0024B18707047666500404664004010B5FFF7D1FF134B1A78D2B2124B1B78DBB29A4214D0114BAD
:4028C0001B7813F0FF0F0CD10C4A13780133DBB213701378DBB20E2B06D90022074B1A7002E00022074B1A70044B1B78DBB2064AD45CE4B2FFF78CFF204610BD7006002055
:402900006F0600205C0600206006002008B501E00A4B1B780A4B1B7813F0200FF8D100F0D7F9084B1A7842F001021A701A7802F0FE021A7000F0D0F908BD00BF56640040E8
:40294000676500409664004010B50F220F4B1A7002220F4B1A600721012000F099F90D49012000F081F9FFF7D1FF00240A4B1C700A4B1C700A4B1C70FFF770FFFFF774FF38
:40298000084B1C70202201331A7010BD8664004080E100E0C52900005C060020700600206F0600208665004008B5054B1B7823B9FFF7CAFF0122024B1A70FFF72FFF08BD1C
:4029C00008060020204B1A7820490B7803F0400313430B7032E01E4B1A78D2B21D490B780133DBB20B700B78DBB20E2B02D90021184B1970174B1978C9B2174B1B78DBB2E2
:402A000099420ED114490B780133DBB20B700B78DBB20E2B02D900210F4B197001210F4B19700C4B1B78DBB20D49CA54064B1A7806490B7803F0400313430B70034B1B780B
:402A400013F0200FC7D170476765004071060020566400406F060020700600205C06002060060020014B1B681864704708ED00E04001C0B2014B1870704700BF00E400E06D
:402A80000122014B1A60704700E100E0024B186800F00100704700BF00E100E00122014B1A60704780E100E010B50446FFF7F6FF2046FFF7D7FF0720FFF7DAFFFFF7E0FFE8
:402AC00010BD00BF0122014B1A60704780E200E0024B1878C0F34010704700BF8F450040044A137803F0EF03000100F0100018431070704710510040044A137803F0DF035E
:402B0000400100F0200018431070704710510040044A137803F0BF03800100F0400018431070704710510040044A137803F07F03C001C0B218431070704700BF105100402C
:402B4000084A137843F0010313701032137843F00103137002F64D32137843F001031370704700BFA3430040014B1870704700BF034F0040014B1880704700BF044F004016
:402B8000014B1880704700BF064F004008B5154A137803F0010313700232137803F0FC031370114B1A7802F0CF021A701A7842F030021A701A7802F0F0021A701A7842F052
:402BC0000F021A70094A137843F0010313709520FFF7D0FF9520FFF7D3FF0020FFF7C4FF08BD00BF004F00400B4F0040014F004008B5054B1B7823B9FFF7C8FF0122024BEC
:402C00001A70FFF79DFF08BD09060020024B1B88024B188880B27047064F0040084F0040044A137803F0FB03800000F004001843107070471051004001BE704710B504469C
:402C400005E0084B186800F03BF8A4F50044B4F5004FF6D8034B586800FB04F000F030F810BD00BFD480FF1F70B504460E46074B1D681F2802D90020FFF7DEFF04F01F04FD
:402C8000103455F8240045F8246070BD08ED00E038B504460D46072902D90020FFF7CCFF1F2C02D90020FFF7C7FF04F01F0000F1604000F564406D01EDB2057038BD00BFB1
:402CC0000230800803D000BF01380046FCD17047EFF3108072B6704780F31088704700BF014B1868704700BF4481FF1F0E4B70B51E460E4C0025E41AA410A54204D056F872
:402D0000253098470135F8E700F068F8084B094C1E46E41AA4100025A54204D056F8253098470135F8E770BDE82D0000E82D0000E82D0000F02D000010B5431E0A449142F5
:402D400004D011F8014B03F8014FF8E710BD03460244934202D003F8011BFAE7704700000000000049444C4500000000546D725100000000546D7220537663007374617471
:402D8000655F6D616368696E655F7461736B000007A90225004F00400C00005100401000205100405000C051004010000000014000068006014080090014014000080040BF
:402DC0000140000A004C0140000200500140200000060140EC01004880004300F8B500BFF8BC08BC9E4670474D000000A9270000F8B500BFF8BC08BC9E46704729000000C5
:402E0000102E0000C880FF1F800000003085000000000000F87F0000AAAAAAAA0000C05D80BB000030000000006CDC020000000000000000000000000000000000000000C8
:402E4000000000000000000000000000DA2D00000000000000000000000000000000000000000000000000000000000000000000000000000000000000000000000000004B
:402E8000000000000000000000000000E480FF1F00000000000000000000000000000000000000000000000000000000000000000000000000000000000000000000000090
:402EC00000000000000000000000000000000000000000000000000000000000000000000000000000000000000000000000000000000000000000000000000000000000D2
:402F00000000000000000000000000000000000000000000000000000000000000000000000000000000000000000000000000000000000000000000000000000000000091
:402F40000000000000000000000000000000000000000000000000000000000000000000000000000000000000000000000000000000000000000000000000000000000051
:402F80000000000000000000000000000000000000000000000000000000000000000000000000000000000000000000000000000000000000000000000000000000000011
:020000040003F7
:0200000480007A
:4000000001450040024F0040025200400164004027070140041401400915014038160140331701400119014003400140014101400142014007430140114801400449014096
:40004000044C014004500140015101407D0101100AB178087902860F0512060207200D020E2517151D901E422522261827602E012F20361837413E163F8045A24D024E0A3B
:400080004F0454805610574265016E116F3576028A02C0F0C2F0C470CAC0CCF0CEF0D0B0D230D880E42039083F0459045F0123108B10A901B080B310B404B684B702E68058
:4000C000001202640310047206080810090E0A600CCD1002120D140115441632173919631A801B041CCD1D451F3A204D2280248D264028CD300F31303280330F34703740A5
:4001000039083A223E043F405409580459045B045F018005820A88098A068C028E0D98039A0CB00FBA02D440D604D804DB04DF0100400208034005100602076009200D02A3
:400140000E290F04100111801715184019011D161E0424102541361837403C103D025C045E425F106104629063406401801087409241930496049A129B759D01A080A12052
:40018000A219A302A910C0FBC2F2C470CC70CEA0D6F0D81FEE08EE0832203640CC30A660A6602201714086218840A660C840DC20008050045708582067808004864098207F
:4001C000A440A640A820AD40C040D4E0D880E6C0EE308B409780AB08EE8001109510AD10C00200010A0110011A01000F601A00005618090001020018848200000A181002EB
:40020000079C38030433004484C10038041A8000801804028400000000000000080F00E07F1380002000000A000041004602100005BDFCE02FFFFFFF2200F0080400000074
:400240000000022C04040404000000010000C00040011011C00100114001400100000000000000000000000000000000242B2B000B000000F00000FFFF0000000000000056
:40028000000000000000000000000000000000000000000000000000000000000000000000000000000000000000000000000000000000000000000000000000000000003E
:4002C00000000000000000000000000000000000000000000000000000000000000000000000000000000000000000000000000000000000000000000000000000000000FE
:4003000000000000000000000000000000000000000000000000000000000000000000000000000000000000000000000000000000000000000000000000000000000000BD
:40034000000000000000000000000000000000000000000000000000000000000000000000000000000000000000000000000000000000000000000000000000000000007D
:0200000490006A
:0400000000004005B7
:0200000490105A
:04000000BC90ACAF55
:0200000490303A
:02000000840E6C
:0200000490402A
:4000000000000000000000000000000000000000000000000000000000000000000000000000000000000000000000000000000000000000000000000000000000000000C0
:400040000000000000000000000000000000000000000000000000000000000000000000000000000000000000000000000000000000000000000000000000000000000080
:400080000000000000000000000000000000000000000000000000000000000000000000000000000000000000000000000000000000000000000000000000000000000040
:4000C0000000000000000000000000000000000000000000000000000000000000000000000000000000000000000000000000000000000000000000000000000000000000
:0200000490501A
:0C00000000012E16106900012E299477D3
:00000001FF