:400000000080002011000000C9310000C931000008B5044B1A6803F53F5302331A6003F0DBF800BFFA46004010B5054C237833B9044B13B10448AFF300800123237010BDAD
:400040005081FF1F0000000038480000084B10B51BB108490848AFF300800848036803B910BD074B002BFBD0BDE81040184700BF000000005481FF1F38480000C880FF1FF2
:4000800000000000094A22F00702094BC3F838290020C3F83C0947F6F871C3F84419C3F84009516003F51463136070477481FF1F34F8FF1F70B5044600F0DEFE244BD3F864
:4000C00048392BB9FFF7DEFF0122214BC3F8482934B1083414F0070F02D024F007040834621E47F6F6739A422BD81949D1F8383901F6381101E0194613465A68944202D9B8
:400100001A68002AF7D1134A93421CD00D6808351A680A605A68121B102A0CD91E1972605C6074680C4900E011460A6850688442FAD832600E605968084A13685B1A13601C
:4001400002E0002500E0002500F026FF284670BD34F8FF1F740100206C010020CC80FF1FD0B170B50546A0F1080600F085FE55F8044C0A4A00E01A46136859688C42FAD8DD
:4001800045F8083C166055F8043C054A11680B44136000F001FF70BD704700BF6C010020CC80FF1F00F1080343604FF0FF328260C360036100230360704700BF00230361AC
:4001C000704700BF43684B609A688A609A68516099600861036801330360704730B40D68B5F1FF3F01D1026907E000F1080200E01A4653681C68A542FAD253684B6099608C
:400200008A605160086103680133036030BC704703694268816891608268416851605A68904201D182685A60002202611A68013A1A601868704700BF82B0002301934FF0FD
:40024000A00383F31188BFF36F8FBFF34F8F019B002BFCD002B0704706480068006880F3088862B661B6BFF34F8FBFF36F8F00DF00BF000008ED00E04FF0807340F8043CE3
:4002800021F0010140F8081C034B40F80C3C40F8202C4038704700BF3902000000000000074B19680868B0E8F00F80F30988BFF36F8F4FF0000080F311884EF00D0E70476B
:4002C000740400204FF0A00383F31188BFF36F8FBFF34F8F024A136801331360704700BFD080FF1F034A1368013B13600BB983F311887047D080FF1F000000000000000074
:40030000EFF30980BFF36F8F0D4B1A6820E9F00F10602DE908404FF0A00080F3118800F0A7FE4FF0000080F31188BDE8084019680868B0E8F00F80F30988BFF36F8F704747
:400340007404002008B54FF0A00383F31188BFF36F8FBFF34F8F00F09FFD18B14FF08052024B1A60002383F3118808BD04ED00E0054B00221A6005490A6045F6BF51044AC5
:40038000116007221A60704710E000E018E000E014E000E010B50B4B1A6842F460021A601A6842F060421A60FFF7E2FF0024064B1C60FFF751FF00F05BFEFFF73DFF204688
:4003C00010BD00BF20ED00E0D080FF1F436A23B1036B1868C0F1200070470020704700BF10B50446FFF76EFFA26BE36B9A4201D1012400E00024FFF775FF204610BD00BF89
:4004000010B50446FFF75EFFA36B0BB9012400E00024FFF767FF204610BD00BF70B504461646856B026C3AB9036843BB806800F067FF0023A36029E06EB9406804F0E8F97B
:400440006268236C13446360A268934219D32368636000201AE0C06804F0DAF9236C5B42E2681A44E26021688A4202D2A2681344E360022E07D145B1013D002006E00020A2
:4004800004E0002002E0002000E000200135A56370BD00BF026C72B110B5C3681344C3608468A34201D30368C3600C46C168204604F0AEF910BD704738B50546FFF702FFAF
:4004C00095F8454064B20AE06B6A53B105F1240000F02AFE08B100F097FE013C64B2002CF2DCFF2385F84530FFF7FCFEFFF7EAFE95F8444064B20AE02B6953B105F11000C3
:4005000000F012FE08B100F07FFE013C64B2002CF2DCFF2385F84430FFF7E4FE38BD00BF38B504460D46FFF7CDFE2168E26B236C03FB0210A0600020A0636160013A02FBCD
:400540000313E360FF2384F8443084F845307DB92369ABB104F1100000F0E6FD80B14FF08052094B1A60BFF34F8FBFF36F8F07E004F11000FFF716FE04F12400FFF712FEC4
:40058000FFF7B0FE012038BD04ED00E010B5029B0C4609B91B6000E01A60D8631C6401211846FFF7BDFF10BDF0B583B0054617460E4611B100FB01F000E000204830FFF7BB
:4005C00079FD044638B100903B4600F1480231462846FFF7DBFF204603B0F0BDF0B585B004460F4601921E460025FFF76BFEA26BE36B9A4201D3022E21D13246394620460D
:40060000FFF70CFF636A6BB104F1240000F08CFD88B14FF08052324B1A60BFF34F8FBFF36F8F08E038B14FF080522D4B1A60BFF34F8FBFF36F8FFFF755FE01204EE0019B75
:400640001BB9FFF74FFE002048E01DB902A800F0A5FD0125FFF746FE00F00EFCFFF732FE94F844305BB2B3F1FF3F02D1002384F8443094F845305BB2B3F1FF3F02D10023CE
:4006800084F84530FFF72EFE01A902A800F090FDF0B92046FFF7A4FEA0B1019904F1100000F01EFD2046FFF707FF00F075FC00289BD14FF080520A4B1A60BFF34F8FBFF33B
:4006C0006F8F92E72046FFF7F7FE00F065FC8CE72046FFF7F1FE00F05FFC002005B0F0BD04ED00E048B108B5002181600160C1600B460A46FFF772FF08BD704710B50246BA
:4007000000210120FFF750FF0446FFF7EBFF204610BD00BFF8B5EFF311864FF0A00484F31188BFF36F8FBFF34F8F856BC46BA54201D3022B1BD11746054690F8454064B2FF
:400740001A46FFF76BFEB4F1FF3F0AD16B6A83B105F1240000F0E8FC68B177B1012038600CE0013464B285F84540012006E0002004E0012002E0012000E0012086F3118890
:40078000F8BD00BFF0B585B004460F4601920026FFF798FDA56BC5B139462046FFF77AFE013DA563236963B104F1100000F0BCFC38B14FF08052304B1A60BFF34F8FBFF36B
:4007C0006F8FFFF78FFD012053E0019B1BB9FFF789FD00204DE01EB902A800F0DFFC0126FFF780FD00F048FBFFF76CFD94F844305BB2B3F1FF3F02D1002384F8443094F813
:4008000045305BB2B3F1FF3F02D1002384F84530FFF768FD01A902A800F0CAFCF0B92046FFF7EEFDA0B1019904F1240000F058FC2046FFF741FE00F0AFFB0028A8D14FF0BB
:4008400080520D4B1A60BFF34F8FBFF36F8F9FE72046FFF731FE00F09FFB99E72046FFF72BFE00F099FB2046FFF7CAFD00288FD0002005B0F0BD00BF04ED00E070B584B05B
:400880000446019100263546FFF71CFDA36BCBB1013BA363236813B900F0C2FDA060236963B104F1100000F03FFC38B14FF080523B4B1A60BFF34F8FBFF36F8FFFF712FDCB
:4008C00001206BE0019B1BB9FFF70CFD002065E01DB902A800F062FC0125FFF703FD00F0CBFAFFF7EFFC94F844305BB2B3F1FF3F02D1002384F8443094F845305BB2B3F1B1
:40090000FF3F02D1002384F84530FFF7EBFC01A902A800F04DFC40BB2046FFF771FDF0B123683BB9FFF7CEFCA06800F085FC0646FFF7D8FC019904F1240000F0D1FB20461F
:40094000FFF7BAFD00F028FB00289DD14FF08052134B1A60BFF34F8FBFF36F8F94E72046FFF7AAFD00F018FB8EE72046FFF7A4FD00F012FB2046FFF743FD002884D066B1D9
:40098000FFF7A0FC2046FFF721FD0146A06800F0FBFCFFF7A7FC002000E0002004B070BD04ED00E000230BE0074A52F8332032B9054A42F8331002EBC30358607047013381
:4009C000092BF1D9704700BF8405002070B504460D461646FFF776FC94F844305BB2B3F1FF3F02D1002384F8443094F845305BB2B3F1FF3F02D1002384F84530FFF772FC44
:400A0000A36B2BB93246294604F1240000F078FB2046FFF751FD70BD074B9B6A1B6823B94FF0FF32044BDA627047034B9A6AD268D2685268DA6270478001002010B50446FF
:400A4000006BFFF78DFB2046FFF78AFB10BD00BF2DE9F04781460D4617469A46089EDDF824800A9C9200A521206B03F0DCFE236B07F18042013A03EB820727F007070023C5
:400A800006E0E95CE21882F83410EA5C12B101330B2BF6D9002384F83F301F2E00D91F26E662266400256564201DFFF787FB04F11800FFF783FB2461C6F12006A661646273
:400AC000A56484F84C50524649463846FFF7D4FB2060B8F1000F01D0C8F80040BDE8F08770B5002407E004EB8402930010481844FFF758FB01341F2CF5D90E4C04F52C76CE
:400B00003046FFF74FFB04F531752846FFF74AFB04F11400FFF746FB04F53670FFF742FB2046FFF73FFBA662C4F8EC5270BD00BFB00100208001002038B50546FFF7C2FBC4
:400B4000264BD3F8F0220132C3F8F022D3F8F4324BB9224BC3F8F452D3F8F032012B10D1FFF7BEFF0DE01D4BD3F8F8324BB91B4BD3F8F432DA6AEB6A9A4202D8174BC3F806
:400B8000F452164CD4F8FC320133C4F8FC32EB6A012202FA03F1D4F800230A43C4F8002304F1300003EB83039A00291D1044FFF709FBFFF797FBD4F8F8326BB1D4F8F4329F
:400BC000DA6AEB6A9A4207D24FF08052044B1A60BFF34F8FBFF36F8F38BD00BF8001002004ED00E038B517E0FFF76CFB0D4CD4F8E432DD68281DFFF70BFBD4F8F032013B3B
:400C0000C4F8F032D4F80433013BC4F80433FFF769FB2846FFF712FF024BD3F80433002BE2D138BD8001002008B5FFF7DBFFFCE770B504460E461E4BD3F80853D3F8F4028F
:400C40000430FFF7E5FA60B9194BD3F8F422D16A012202FA01F1D3F8002322EA0102C3F80023B4F1FF3F07D136B11148D0F8F4120431FFF7A7FA70BD2C440D4BD3F8F4326B
:400C80005C60A54208D90A4BD3F8EC02D3F8F4120431FFF7A3FA70BD054DA86AD5F8F4120431FFF79BFAEB6A9C4200D2EC6270BD800100202DE9F04385B006460F4615464A
:400CC00098469000FFF7F6F960B181465020FFF7F1F9044610B1C0F8309004E04846FFF73FFA00E000248CB10023039302940D9B01930C9B009343462A4639463046FFF76B
:400D0000A7FE2046FFF718FF012001E04FF0FF3005B0BDE8F08300BF10B50446FFF7D2FA14B9044BD3F8F442E46AFFF7DBFA204610BD00BF80010020F8B504460D461F2973
:400D400000D91F25FFF7BEFA14B9304BD3F8F442236C9D4256D00CD92C4AD2F8F42294420ED02A4AD2F8F422D26A95420AD200270BE0264AD2F8F422944205D0002704E081
:400D8000002702E0012700E00127E66AB34200D1E5622564A369002B02DBC5F12005A561616906EB86029300194A1344994220D1251D2846FFF72CFA48B9012303FA06F6D9
:400DC000124AD2F8003323EA0606C2F80063E36A012202FA03F10D48D0F800230A43C0F80023303003EB83039A0029461044FFF7E9F93FB14FF08052064B1A60BFF34F8F37
:400E0000BFF36F8FFFF76EFAF8BD00BF80010020B001002004ED00E000B583B0124B019300230093642211491148FFF743FF012801D100F05BFB012813D14FF0A00383F347
:400E40001188BFF36F8FBFF34F8F0A4B4FF0FF32DA620122C3F8F8220022C3F80823FFF799FA03B05DF804FB900400203C480000290C000080010020034AD2F80C33013370
:400E8000C2F80C33704700BF80010020014BD3F808037047800100202DE9F0413D4BD3F80C33002B62D13B4BD3F808730137C3F8087367B99A6AD3F8EC129962C3F8EC2286
:400EC000D3F814230132C3F81423FFF7A5FD314BDB6A9F4205D24FF000083BE04FF0010801E04FF000082B4B9B6A1B6823B94FF0FF32284BDA622DE0264B9B6ADB68DC68E5
:400F000063689F4202D2234AD36223E0261D3046FFF77EF9A36A1BB104F11800FFF778F9E36A012202FA03F11A4DD5F800230A43C5F8002305F1300003EB83039A0031468A
:400F40001044FFF73FF9E26AD5F8F432DB6A9A42C4D2C8E70F49D1F8F432DB6A03EB83039A000A44136B012B09D80AE0094AD2F818330133C2F818334FF0000801E04FF0E5
:400F80000108044BD3F81C330BB14FF001084046BDE8F0818001002070B5FFF793F9324BD3F80C23013AC3F80C23D3F80C33002B53D12D4BD3F8F03243BB002450E02A4CB5
:400FC000236ADD6805F11800FFF722F92E1D3046FFF71EF9EB6A012202FA03F1D4F800230A43C4F8002304F1300003EB83039A0031461044FFF7E6F8EA6AD4F8F432DB6A52
:401000009A4204D30122C4F81C2300E00025164B5B69002BD3D10DB1FFF7FEFC124BD3F8184364B1FFF738FF18B101220E4BC3F81C23013CF6D100220B4BC3F818230A4B6D
:40104000D3F81C335BB14FF08052084B1A60BFF34F8FBFF36F8F012402E0002400E00024FFF740F9204670BD8001002004ED00E01A4BD3F80C3323B10122184BC3F81C2306
:40108000704710B4154A0023C2F81C33D2F80033B3FA83F3DBB2C3F11F039800C418A10011444C6B64684C6302F130011844820008320A44944206D1606803EB83018A0010
:4010C00006490A445063054903EB83039A000A44536BDB68C1F8F43210BC70478001002010B50C46054BD3F8F4121831FFF776F801212046FFF79CFD10BD00BF80010020C9
:4011000038B50D461446074BD3F8F4121831FFF759F80CB14FF0FF3521462846FFF788FD38BD00BF8001002038B5C368DC6804F118052846FFF76CF8164BD3F80C33B3B980
:40114000251D2846FFF764F8E36A012202FA03F11048D0F800230A43C0F80023303003EB83039A0029461044FFF72CF803E029460948FFF727F8E26A064BD3F8F432DB6ACC
:401180009A4204D90120034BC3F81C0338BD002038BD00BF8001002094010020034BD3F814230260D3F808334360704780010020F8B504460D46FFF785F8124BD3F808135B
:4011C0006268881A2B68B3F1FF3F14D027680D4ED6F81463B74201D091420ED2984206D21B1A2B602046FFF7D9FF002406E000232B60012402E0002400E00124FFF772F890
:401200002046F8BD800100200122024BC3F81C23704700BF80010020064BD3F8F8322BB1044BD3F80C331BB902207047012070470020704780010020002858D038B5034673
:40124000C26A2D49D1F8F412C96A8A4246D28169002906DB2849D1F8F412C96AC1F120018161586902EB82029100244A114488422DD11C461D1D2846FEF7CAFF80B9E26A2F
:4012800002EB82018B001C490B441B6B43B9012303FA02F2D1F8003323EA0202C1F800231548D0F8F432DB6AE362012404FA03F1D0F800230A43C0F80023303003EB83032C
:4012C0009A0029461044FEF77DFF204638BD0A4AD2F8F422D26ADA62012038BD026C064BD3F8F432DB6A9A4203D3002038BD00207047012038BD00BF80010020B001002029
:40130000002838D038B50346426C013A4264C06A196C884231D092BB1C461D1D2846FEF777FF80B9E26A02EB82018B0015490B441B6B43B9012303FA02F2D1F8003323EAAF
:401340000202C1F80023236CE362C3F12002A261012404FA03F10B48D0F800230A43C0F80023303003EB83039A0029461044FEF729FF204638BD00207047002038BD0020AE
:4013800038BD00BF80010020002844D038B50346026C8A4200D20A46D96A8A423AD0586C012837D1DA629869002802DBC2F120029A61586901EB81018A0017490A449042B1
:4013C00028D11C461D1D2846FEF722FF80B9E26A02EB82018B0011490B441B6B43B9012303FA02F2D1F8003323EA0203C1F80033E36A012202FA03F10848D0F800230A4332
:40140000C0F80023303003EB83039A0029461044FEF7D8FE38BD7047B001002080010020064BD3F8F4322BB1044BD3F8F422536C01335364014BD3F8F4027047800100205A
:40144000064B1A6813680BB9012300E00023036013B9D3681868704700207047A004002008B54160006191420AD8D21A83699A4211D2011D0A4B5868FEF7B0FE002008BD31
:401480009A4201D2994208D2011D054B1868FEF7A5FE002008BD012008BD012008BD00BFA004002070B5FEF70DFF0E4B9B68B3B90C4C04F10C063046FEF774FE04F12005CA
:4014C0002846FEF76FFE2660656000220C210A20FFF76AF8A06010B10349FFF763FAFEF701FF70BDA00400204448000000B583B0FFF7D8FF094B9B685BB1094B01931F23EC
:40150000009300234FF4806206490748FFF7D2FB00E0002003B05DF804FB00BFA0040020D40400204C4800005D17000030B585B0134CA56805B31C4601910292039005295E
:4015400013DCFFF769FE022807D10023089A01A90B488068FFF742F80FE000231A4601A907488068FFF73AF807E00023224601A92846FFF7CFF800E0002005B030BD00BF20
:40158000A004002070B582B01FE0DB681E68DC68251D2846FEF73CFE636A20469847E369012B12D1A36933449E4207D26360246129460B4B1868FEF711FE06E00021009153
:4015C0000B4632462046FFF7B1FF054B1B681A68002ADAD1024A51681160536002B070BDA004002038B50546FFF750FC0446074B9B6B984204D2FFF7C5FF01232B6001E00A
:4016000000232B60014B9C63204638BDA004002070B582B005460E460E4B1B68DB68DC68201DFEF7F5FDE369012B0ED1A1692B46324629442046FFF713FF30B1002100915D
:401640000B462A462046FFF771FF636A2046984702B070BDA004002070B582B006460C46FFF70AFC01A8FFF7BDFF019B23BB054644B9B04206D3FFF78FFC29463046FFF7F3
:40168000C7FF1BE034B10E4B5B681B680BB9012400E000242246711B094B9868FFF796F9FFF77AFC50B94FF08052064B1A60BFF34F8FBFF36F8F01E0FFF76EFC02B070BD7A
:4016C000A004002004ED00E030B587B03AE0039B002B37DB059C636913B1201DFEF798FD02A8FFF77FFF039B092B2BD8DFE803F00505052A1E2705052A1E0499A5690B46D3
:40170000024629442046FFF7ABFED8B1636A20469847E369012B15D1A269002100910B46049802442046FFF701FF0BE00499A1610346024601442046FFF792FE02E0204616
:40174000FEF70EFD002203A9034B9868FFF71AF80028BCD107B030BDA004002000B583B001A8FFF76DFE0199FFF776FFFFF7ACFFF6E700BF034B044ADA62044A9A63044A83
:40178000DA6370470080FF1FA1020000010300004503000000B583B001F0D2FE01F0D6FE02A9064B41F8043D00231A4604480068FEF7B0FF03B05DF804FB00BF9517000077
:4017C000E004002010B5012002F084FF002407E002F08CFFB0FA80F0400902F07BFF013442F20F739C42F3DD002002F073FFEAE710B50446FEF766FDB4F1FF3F1CD1154CAD
:401800002178154B1868FFF797FA2178134B1868FFF792FA2178124B1868FFF78DFA21780A39104B1868FFF787FA21780B390E4B1868FFF781FA09E014F1020F06D1054B41
:4018400019780A31084B1868FFF776FAFEF74AFD10BD00BFD480FF1F3C060020E0050020D8050020D40500202C06002008B5012002F0E4FE0521264B1868FEF7FFFF012895
:40188000F5D102F065FFB0FA80F0400902F054FF022001F0FBFF04E0022001F099FF1D4B9880022002F03CF80028F5D01A4C194B9A882146022001F0FFFF022002F024F87F
:4018C0002378042B10D16378062B0DD1134902230B7003234B7046238B703723CB700422012001F089FF03E04FF0FF30FFF780FF02F02EFFB0FA80F0400902F01DFF002344
:401900001A46194602480068FEF768FEAFE700BF28060020E004002034060020E805002070B5012002F08AFE05211F4B1868FEF7A5FF0128F5D102F0F7FEB0FA80F040092B
:4019400002F0E6FE002114E001EB8103174800EBC1008268C4681648C2545D1C160A46559D1C160C4655DD1C120E42550433C45401310B29E8DD3F220D49012001F03CFF9F
:4019800002F0D2FEB0FA80F0400902F0C1FE6FF00100FFF72DFF00231A46194602480068FEF71CFEBDE700BF28060020E0040020E80500202DE9F04FD1B0C3B243F01002DA
:4019C000159243F0200216921793030103F47F6343F00A03DBB21C930022954B1A7005231D93012002F02AFE0521924B1868FEF745FF0128F5D119210020FFF79DF90120EF
:401A000002F07AFE8A4B1B78062BF8D8DFE813F00700260043009D00AA00C800CD01864D002485F8684085F869404F944E9401F0CDF92146E86EFEF773FD2146286FFEF7E9
:401A40006FFD50A89DF8543000F8983D0122114601F024FA0122764B1A70D0E74FF0FF324EA9754B186FFEF78DFE0028C7D0052328AA4FF6FF71172000F0EAFB00234E93C2
:401A80006D4A82F8683001F0A1F901F0F1F90222674B1A70B3E720224FA9674BD86EFEF771FE01282AD14F9B022B07D101F08EF901F0C6F900225E4B1A70A0E7012B9ED1B5
:401AC0004AA801F021FA9DF828311C9A9A420CD1052322AA4FF6FF71152000F0B9FB0322534B1A7001F072F902E00022504B1A7000234F93504A82F8693080E700244C4B63
:401B00001C70FEF7DFFB204602F0F6FD23462246214648480068FEF761FD1D9B0B2B0BD80133DBB21C461D930020FFF7F5F8011B0020FFF701F905E005210020FFF7FCF894
:401B400005231D93FEF7CEFB4BE750A89DF8583000F8983D0122114601F0A0F90422344B1A704CE74FF0FF324EA9334B186FFEF709FE00283FF443AF052320AA4FF6FF71F9
:401B8000172000F065FB00234E932B4A82F8683001F01CF901F06CF90522254B1A702EE720224FA9244BD86EFEF7ECFD012840F0D5804F9B022B05D101F042F900221C4B64
:401BC0001A70C5E0012B40F0C3804AA801F09CF9002314E050AA1A4412F8181C02F8A81C591D50A8014411F8181C02F8B01C03F10A01014411F8181C02F8C81C0133042BBC
:401C0000E8DD002200230024CDE90A34CDE90E349946A2461E462746CDE90834CDE90C34CDE9109ADDE91889DDE91ABC71E000BFE405002028060020E0040020DDE90C0169
:401C40004FEA012949EA10694FEA0028C2F1040350A90B4413F8A04C002548EA040049EA0501CDE90C01DDE908014FEA012C4CEA106C4FEA002B13F8A84C00254BEA0400FC
:401C80004CEA0501CDE908013C0244EA166401943402009413F8B06C0027DDE9004534433D4326462F46DDE910010C0244EA106403940402029413F8B84C0025DDE90201FC
:401CC00020432943CDE91001DDE90E010C0244EA106405940402049413F8C04C0025DDE9040120432943CDE90E01DDE90A010C020794079D45EA106407940102069113F8F6
:401D0000C84C0025DDE9060120432943CDE90A010132042A92DDCDE91889DDE9109ACDE91ABCDDE90A34DDE90812944208BF8B4207D3DDE90E34DDE90C12944208BF8B426C
:401D400003D20022424B1A7002E00622404B1A7000234F933F4A82F8693050E600243C4B1C70FEF7AFFA204602F0C6FC23462246214639480068FEF731FC1D9B0B2B0BD85C
:401D80000133DBB21C461D930020FEF7C5FF011B0020FEF7D1FF05E005210020FEF7CCFF05231D93FEF79EFA1BE601F00FF8DDE90C45B9EB04046AEB0505DDE90823B21A4E
:401DC00067EB0303CDE91023DDE90A01801B61EB0701DDE90EBCBBEB090B6CEB0A0CCDE912BC179B03F1FF3C4FEA8C08DFF864E00EEB4C1CCCE9024508F101040EEBC404C2
:401E0000C4E9020108F102010EEBC101DDE91234C1E9023408F103080EEBC80EDDE91023CEE9022300240A4B1C70FEF74BFA204602F062FC23462246214607480068FEF7CE
:401E4000CDFB05212046FEF777FFFEF74BFAC8E5E4050020E00400202806002030B585B01E2203A9474B1868FEF78CFC0028F7D00023029304230DEB03024FF6FF710F201D
:401E800000F0E6F99DF807409DF806301B0443EA04639DF8054043EA04239DF804401C43B4F1FF3F15D104230DEB03024FF6FF710F2000F0CDF99DF807209DF806301B0466
:401EC00043EA02639DF8054043EA04239DF804401C4314F0800F10D02A480125014601F8685F00234FF0FF32006FFEF777FB2B460722042102A800F087F904F4C843B3F5EB
:401F0000C84F09D19DF8093043F064038DF8093001221C4B83F869201B4B1C4215D09DF8093063F06F038DF809309DF80A3043F027038DF80A309DF80B3043F004038DF888
:401F40000B3002220F4B83F869200E4B93F86930DBB2012B05D00B4B93F86930DBB2022B08D1084800234FF0FF3200F16901C06EFEF734FB042302AA4FF6FF710F2000F055
:401F8000C7F96DE7E004002000902704F0B583B0002001F0E3FA002002F0BCFA002002F0C5FA002002F0CEFA62B60221002001F0D1FBFFF7DFFB02F029FB01F033FA0A20CF
:401FC00002F03CFB00F04CFE3B4801F0ABFA152001F08CFA01F0F6FB0028FBD0002204210A20FEF7E1FA354C2060002201210846FEF7DAFAE066002201210846FEF7D4FAAC
:4020000020670120FEF77AFB2D4B1860002401941623009323464FF400722A492A48FEF749FE2A4F012587F83C50294E294B019300952B464FF4007227493046FEF73AFEE3
:40204000022387F83D30254A019200954FF4007223493046FEF72EFE032387F83E30214A019200954FF400721F493046FEF722FE1E4B01931E4D6B78009323464FF40072B6
:402080001C491D48FEF716FE1C4B0193AB78009323464FF400721A491A48FEF70BFE1A4B0193062300932346642218491848FEF701FEFEF7B1FEFEE795170000E004002029
:4020C00028060020544800005D1E0000E8050020B51900003C06002068480000E005002070480000D805002078480000D4050020D480FF1F80480000211900002C06002055
:40210000884800006D180000DC05002090480000C51700000379012B02D0022B1ED03EE00378013B062B3AD8DFE803F004090E13093913004B1EDBB2012B25D82FE0CB1E94
:40214000DBB2012B22D82AE04B1FDBB2012B1FD825E0CB1FDBB2012B1CD820E00378013B062B1CD8DFE803F00404040A041B0A00A1F10903DBB2032B0ED810E0A1F1110342
:40218000DBB2032B0AD80AE0012108E0032106E0052104E0072102E0092100E011210846704700BF4B1E0C2B1AD8DFE803F00D0A07190A0719190A0719190A00C37853B916
:4021C0000EE0C3784BB10BE0C37813B1012B06D006E0062104E0022102E0062100E005210846704738B5044605250570012303710223C3700421FFF78DFF60702946204694
:40220000FFF7D0FFA07038BD30B4D408A5B28D4210D202F0070233B1012303FA02F2035D1A43025506E0012303FA02F2035D23EA0202025530BC70470870030A4B70030C4F
:402240008B70000EC87070470870000A487070472DE9F04383B016461D460023ADF804308DF806304FF6FF73994204D18DF804004FF0010914E040F040008DF804007F29B5
:4022800004D88DF805104FF0020909E061F07F038DF80530C1F3C7118DF806104FF0030901F032F9074601F037F9002407E002AB234413F8040C01F029F80134A4B21FFAFC
:4022C00089F84445F3D3002404E0002001F01EF80134A4B2AC42F8D300F0FEFF10F0010FFAD0002403E001F01DF80134A4B24445F9D3002404E001F015F830550134A4B2D1
:40230000AC42F8D30FB101F0F9F803B0BDE8F0832DE9F04182B090461D464FF6FF73994205D160F07F008DF80400012612E060F03F008DF804007F2903D88DF8051002268F
:4023400008E061F07F038DF80530C1F3C7118DF80610032601F0D8F8074601F0DDF8002407E002AB234413F8040C00F0CFFF0134A4B2B3B29C42F4D3002405E018F804001A
:4023800000F0C4FF0134A4B2AC42F7D300F0A4FF10F0010FFAD0002403E000F0C3FF0134A4B273199C42F8DB0FB101F0A7F802B0BDE8F08100B583B0022301AA19461F20CB
:4023C000FFF746FF0D4B59789DF8042002F03F029DF8053003F0F80342EA81128DF8042043EA91038DF80530022301AA19461F20FFF78EFF03B05DF804FB00BF68050020AE
:4024000000B583B0074A1379927843EA820302AA02F8043D012302210820FFF779FF03B05DF804FB6805002000B583B05B4BDB78022B4FD1594B1B79012B02D0022B25D03D
:40244000A0E0564B1B78013B062B00F29B80DFE803F00404090E1399180001A95048FFF7EBFE8FE001A94F48FFF7E6FE8AE001A94D48FFF7E1FE85E001A94C48FFF7DCFEF5
:4024800080E001A94A48FFF7D7FE7BE0434B1B78013B062B76D8DFE803F00404090E1375180001A94348FFF7C7FE6BE001A94248FFF7C2FE66E001A94048FFF7BDFE61E076
:4024C00001A93F48FFF7B8FE5CE001A93D48FFF7B3FE57E0314B1B79012B02D0022B29D050E02E4B1B78013B062B4BD8DFE803F004040A10164A1C0001A94FF07530FFF7DA
:402500009BFE3FE001A94FF06F30FFF795FE39E001A94FF05F30FFF78FFE33E001A94FF04830FFF789FE2DE001A94FF09230FFF783FE27E0194B1B78013B062B22D8DFE872
:4025400003F004040A1016211C0001A94FF06730FFF772FE16E001A94FF08B30FFF76CFE10E001A94FF09A30FFF766FE0AE001A94FF08530FFF760FE04E001A94FF0D1306C
:40258000FFF75AFE04230DEB03024FF6FF711E20FFF7BEFE03B05DF804FB00BF68050020755535156F4F2F0F5F3F1F1F4828080E92725232674727078B6B4B2B9A7A5A3AC7
:4025C00085654525D1B1715100B583B0254B1B78013B062B35D8DFE803F0040D151D25342D00694645F64040FFF726FEC9238DF8043026E069461C48FFF71EFEC2238DF89D
:4026000004301EE069461948FFF716FEC5238DF8043016E069461648FFF70EFE95238DF804300EE069461348FFF706FEC0238DF8043006E069461048FFF7FEFD93238DF890
:40264000043003236A460C212820FFF761FE012301AA0B212A20FFF75BFEFFF7E5FE03B05DF804FB68050020A05C0400C06C0800805C0400E03F1E00E07D1E0000B583B0D1
:40268000084BDB785B0163F07F0302AA02F8043D012319460820FFF73BFEFFF7C5FE03B05DF804FB6805002000B583B0084A1379927843EA820302AA02F8043D0123022185
:4026C0000820FFF725FEFFF7AFFE03B05DF804FB6805002008B50748FFF784FDFFF774FFFFF7CCFFFFF7E0FFFFF764FEFFF788FE08BD00BF6805002000B583B0012301AA44
:4027000003211F20FFF7A4FD094BDA799DF8043003F0070343EAC2038DF80430012301AA03211F20FFF7F4FD03B05DF804FB00BF6805002000B583B0354B9B7A012B02D0A0
:40274000022B2ED05AE0324B1B7A013B0C2B55D8DFE803F007171F54071F54540F1F54540F0001A92B48FFF767FD0822284BDA8144E001A92848FFF75FFD1022244BDA8149
:402780003CE001A92548FFF757FD2022204BDA8134E001A92248FFF74FFD40221C4BDA812CE01B4B1B7A013B0C2B27D8DFE803F007171F26071F26260F1F26260F0001A9CB
:4027C0001848FFF739FD0822114BDA8116E001A91548FFF731FD10220D4BDA810EE001A91248FFF729FD2022094BDA8106E001A90F48FFF721FD4022054BDA8104230DEB40
:40280000030208212720FFF783FD03B05DF804FB680500202D001A3152001A339A001A351D011A376B003B31BE003B335E013B3596023B3700B583B01A4B1B7A013B0C2B79
:4028400008D8DFE803F01B1207070A1507070C1807070F004FF4805011E080200FE04FF480700CE04FF4007009E04FF4806006E04FF4C06003E04FF4006000E04020094A42
:40288000138AD2891844801A013001A980B2FFF7DBFC022301AA20212720FFF739FD03B05DF804FB6805002000B583B00023ADF80430ADF800301D4B1B7A013B0C2B22D815
:4028C000DFE803F0071019211019212110192121100001A91020FFF7B7FC69461020FFF7B3FC10E001A92020FFF7AEFC69462820FFF7AAFC07E001A96420FFF7A5FC694678
:402900002820FFF7A1FC022301AA06212720FFF7FFFC02236A4626212720FFF7F9FCFFF709FFFFF787FF03B05DF804FB6805002000B583B00D4B9B79013B062B0CD8DFE8C5
:4029400003F004040408040B0800D8238DF8043002E0BC238DF80430012301AA0B212820FFF7D6FC03B05DF804FB00BF6805002000B583B000238DF80430144B5B7A13B1F1
:40298000022B11D809E069460A20FFF75DFC40238DF804300D4A138206E069460120FFF753FC0822094B1A82012301AA02210420FFF7AEFC02236A4619462720FFF7A8FC08
:4029C000FFF738FF03B05DF804FB00BF6805002010B584B0012303AA02211F20FFF738FC9DF80C3003F0F303224CA27A43EA82038DF80C30012303AA02211F20FFF788FC9D
:402A0000A37A012B02D0022B0FD01CE002A98720FFF71AFC01A948F67000FFF715FC694641F20760FFF710FC0DE002A98D20FFF70BFC01A948F69B00FFF706FC694640F2CD
:402A40000760FFF701FC022302AA04212720FFF75FFC022301AA04212320FFF759FC02236A4641F606012E20FFF752FCFFF762FE04B010BD6805002010B582B0012301AA1C
:402A800003210420FFF7E4FB9DF8043043F010038DF804300D4C6946A089FFF7D5FBA3892BB99DF8043023F010038DF8043002236A464FF6FF710C20FFF72AFC012301AAE1
:402AC00003210420FFF724FC02B010BD6805002010B5094CA01DFFF785FB0023A381FFF727FFFFF745FFFFF773FFFFF705FEFFF7DBFEFFF7C1FF10BD6805002010B584B049
:402B0000224CA37C43EA031304AA02F8043D01234FF6FF711F20FFF7FBFBA37C013B062B24D8DFE803F0040C140C1C231C0001A91748FFF781FB1E238DF8083016E001A9F2
:402B40001448FFF779FB26238DF808300EE001A91148FFF771FB56238DF8083006E001A90E48FFF769FBBE238DF8083004230DEB030207212B20FFF7CBFB012302AA0B21D3
:402B80002B20FFF7C5FB04B010BD00BF680500200704000908054008091040081D04000870B582B0012402AD05F8044D23462A4600213620FFF7ACFB204601F03FFD002635
:402BC0008DF8046023462A4603213620FFF7A0FB204601F033FDF0238DF8043023462A4603213620FFF794FB052001F027FD8DF8044003238DF8053002232A463146362098
:402C0000FFF786FB204601F019FD8DF8006080238DF8013002236A4606212D20FFF778FB204601F00BFD8DF8046002238DF805302A4631463620FFF76BFB02B070BD00BF62
:402C400008B5FFF7ADFFFFF745FDFFF741FF0522024B9A74FFF752FF08BD00BF6805002030B587B0FFF7ECFF042305AA4FF6FF710020FFF7EDFA9DF817209DF816301B0462
:402C800043EA02639DF8152043EA02239DF8142013434C4A934203D0642001F0CFFCFBE7494B18680490042304AA0C212320FFF72FFB06AA6D2302F80C3D012340F60601F6
:402CC0002E20FFF725FB002506AC44F8105D042322464FF6FF710E20FFF7BAFA0123072204212046FFF790FA01230D2204212046FFF78AFA01230C2204212046FFF784FAD3
:402D000001230F2204212046FFF77EFA0123102204212046FFF778FA0123112204212046FFF772FA0123122204212046FFF76CFA0123152204212046FFF766FA01231A22DD
:402D400004212046FFF760FA042322464FF6FF710E20FFF7DDFA80238DF8053006AC9D2304F8143D022322464FF6FF711820FFF7CFFA0223224641F604012E20FFF7C8FA15
:402D8000642001F05BFC042305AA4FF6FF712846FFF75EFA9DF817209DF816301B0443EA02639DF8152043EA02239DF814201343044A934203D0642001F040FCFBE707B02D
:402DC00030BD00BF3001CADE9C48000010B582B00023019340228DF80420009300F094FB044600F099FB04230DEB03024FF6FF710D20FFF78DFA0123072204216846FFF738
:402E000003FA9DF8013063F00B038DF801309DF8023043F027038DF802309DF8033043F004038DF8033004236A464FF6FF710F20FFF76EFA0CB100F061FB02B010BD00BFC3
:402E400010B582B002ACE02304F8043D0123224603213620FFF75CFAF0238DF804300123224603213620FFF753FA02B010BD00BF10B582B002AC002344F8043D0123082235
:402E800004212046FFF7C0F9042322464FF6FF710D20FFF73DFA02B010BD00BF30B583B00B4615468A1C02AC04F8012D02464FF6FF710920FFF72CFA012322464FF6FF7137
:402EC0000820FFF725FA02AA002342F8083D01234FF6FF710D20FFF7BBF99DF8003043F0020325B163F07F038DF8003003E003F07F038DF8003004236A464FF6FF710D2074
:402F0000FFF706FA03B030BD10B582B0044601230DF107024FF6FF711020FFF799F99DF80730023BDBB28DF8073022464FF6FF711120FFF78DF99DF80730052B16D902AA6F
:402F4000002302F8023D01234FF6FF711120FFF77FF90D2305E0E21812F8012CE254013BDBB2002BF7D19DF80630237002B010BDFEE700BFF0B40022174611E050F82760E1
:402F8000F3B226F0FF0608E001EB420511F812406D78A5550132013BDBB2002BF4D10137172FEBD9F0BC7047064B1B78DBB203F00701054A11701B09013213704422034BA1
:402FC0001A707047CF0100496E5800407658004008B50A46002101F026FC08BD38B50F22264B1A801823264A137041F2BF2102321180023213700622224B1A705222A3F54C
:4030000080731A70204B1B78DBB2204A13704FF4E2621F4B1A8041F25122023B1A80002419250CE01B4B1B7803F0010343EA440404F003044FF4F07001F092FB013D0DB1C8
:40304000032CEFD115B90320FFF792FF124A4FF48073138007231370002310490B7048200231087013700532137002220C4B1A700C4A137843F00303137038BD8040004039
:4030800082400040004300400F010049A14600402242004025420040044000400640004001400040A243004008B501F0B1FB08BD38B572B6344A137843F0040313700024F2
:4030C0000CE0324D630019194A0011462A44084691882858FFF77CFF0134E4B2092CF0D900240BE02949A3001819420088188022016CC06BFFF7D8FF0134E4B2002CF1D0AA
:4031000023494FF09040FFF735FF224A137843F0020313701032137843F0020313701E4C237843F040032370A2F58632513A137843F0100313700A2218491948FFF7B4FFDD
:403140000A2218491848FFF7AFFF082217491848FFF7AAFF082217491748FFF7A5FF174A137843F008031370154D61232B70FFF735FFC1232B70FFF717FF0E2221461148DF
:40318000FFF792FF38BD00BFE8460040A04800006000004803500140A0430040AC020048F0510040B802004810510040C402004822510040CC0200483251004022430040C6
:4031C00000480040B043004008B501F0F5FA03680C2B00D1FEE7FEE708B5104E104D16E029686B68AC68002204E051F8040B43F8040B0432A242F8D1E868002203E0002153
:4032000043F8041B04328242F9D11035013E002EE6D101F0D7FAFEF7B9FEFEE701000000D049000008B5104A104B1A60104A136843F40073136000230AE0032B03D80D4A4F
:4032400052F8231000E00C490C4A42F8231001332F2BF2D90A4B1A780A4B1A70074A0A4B1A60FFF725FF08BD0004FA050CED00E014ED00E000000000C93100000080FF1F66
:40328000BC760040C080FF1F08ED00E00222014B1A60704700E100E008B501F069FA0A4A137843F02003137002F58072137843F0100313700132137843F01003137001F089
:4032C0005BFAFFF7E3FF08BD966400400222014B1A60704780E100E0014B1878704700BF6665004010B5FFF7F1FF064B1B78064A147804F040041C4300231370FFF7C6FF00
:40330000204610BD6765004055060020034B1B7813F0040FFAD0024B18707047666500404664004010B5FFF7D1FF134B1A78D2B2124B1B78DBB29A4214D0114B1B7813F063
:40334000FF0F0CD10C4A13780133DBB213701378DBB20E2B06D90022074B1A7002E00022074B1A70044B1B78DBB2064AD45CE4B2FFF78CFF204610BD540600205306002003
:40338000400600204406002008B501E00A4B1B780A4B1B7813F0200FF8D101F0E9F9084B1A7842F001021A701A7802F0FE021A7001F0E2F908BD00BF5664004067650040F9
:4033C0009664004010B50F220F4B1A7002220F4B1A600721012001F065F90D49012001F04DF9FFF7D1FF00240A4B1C700A4B1C700A4B1C70FFF770FFFFF774FF084B1C7041
:40340000202201331A7010BD8664004080E100E0413400004006002054060020530600208665004008B5054B1B7823B9FFF7CAFF0122024B1A70FFF72FFF08BD7C0500209C
:40344000204B1A7820490B7803F0400313430B7032E01E4B1A78D2B21D490B780133DBB20B700B78DBB20E2B02D90021184B1970174B1978C9B2174B1B78DBB299420ED1CB
:4034800014490B780133DBB20B700B78DBB20E2B02D900210F4B197001210F4B19700C4B1B78DBB20D49CA54064B1A7806490B7803F0400313430B70034B1B7813F0200F09
:4034C000C7D1704767650040550600205664004053060020540600204006002044060020014B1B681864704708ED00E04001C0B2014B1870704700BF00E400E00122014B32
:403500001A60704700E100E0024B186800F00100704700BF00E100E00122014B1A60704780E100E010B50446FFF7F6FF2046FFF7D7FF0720FFF7DAFFFFF7E0FF10BD00BF40
:403540000122014B1A60704780E200E0024B1878C0F30010704700BF82450040044A137803F0EF03000100F0100018431070704710510040F8B501F0FBF806463C4A13786C
:4035800043F0010313701032137843F0010313700127384B1F700225943B1D7002F5E2521B32137803F07F031370002001F05CF8314C237803F0F9032370304A137803F01B
:4035C000DF03137023783B432370384601F04CF8282001F049F82A4B1A7802F07F021A701A7802F0BF021A7023782B432370284601F03AF8237843F0040323700023214A97
:40360000137001321370304601F0B6F80721172001F048F81C49172001F030F80721182001F040F81949182001F028F80721152001F038F81649152001F020F80721284612
:4036400001F030F81349284601F018F80721032001F028F81049032001F010F807210C2001F020F80D490C2001F008F8F8BD00BFA54300409D600040944300401260004023
:40368000F851004084600040D53D0000413C0000D13D00006D3D00009D3D0000DD3D000008B5204B187000231F4A13701F4A13701F4A13701F4A13701F4A13701F4A1370C7
:4036C0001F4A13701F4B4FF400021A604FF080721A604FF400121A6004221A6008221A6011B1012906D00BE0174A137803F0FE0313700AE0144A137843F00103137004E076
:40370000114A137843F00103137003220F4B1A708022203B1A70012001F022F804220C4B1A7008BDDD060020CB060020CC060020D1060020DC060020EC060020C406002086
:40374000C506002000E100E009600040286000401260004038B504460D46064B1B7823B9FFF708FF0122034B1A7029462046FFF797FF38BD7D05002000230A4A13700A4AF2
:4037800013700A4A13700A4A13700A4A13700A4A13700A4A13700322094B1A708022203B1A707047CB060020CC060020D1060020DC060020EC060020C4060020C50600204F
:4037C00028600040014B1878704700BFD1060020431EDBB2072B0BD8064B00011A18185C00F00F00537843EA0020023880B2704700207047FC5F0040431EDBB2072B3CD8DD
:40380000F0B4074600EB4004A3001C4C2344DB889BB2C3F500739A4208D900EB400293002344DA8892B2C2F5007292B200EB4004A300124C2344DB7843EA1223104D040176
:403840002E192B55D3B2737039B909E0CE5C3D010C4C665501339BB200E000239A42F5D8420002449300054A134400225A705A79D2B20001044B1A54F0BC704758060020F3
:40388000FC5F004078600040FE5F0040431EDBB2072B0BD8420002449300054A134400225A705A79D2B20001024B1A54704700BF58060020FE5F004070B5D9B10546144610
:4038C0000E46C8B1082819D8FFF782FFA04203D22846FFF77DFF0446002305E02901094A525CF25401339BB2A342F7D32846FFF7CDFF04E0002402E0002400E00024204631
:4039000070BD00BF78600040431EDBB2072B03D80001024B08221A54704700BFFE5F0040431EDBB2072B06D80001044B185C00F01000C0B270470020704700BFFE5F004071
:403940001D4B19781D4A13889BB20B449BB2138000220FE01A494B681B78DBB2194883544B6801334B600132D2B20B889BB2013B9BB20B80124B1B889BB20BB1072AE9D918
:403980000D4B1B78DBB2082B00D05AB10E490B7883F080030B700F210C4B197002210C4B197004E0022309490B7009490B70094B1A70014B1A707047C5060020C60600203E
:4039C000E006002000600040DE060020C9060020CB060020CA0600200222074B1A708022064B1A700F22064B1A700023054A1370054A137001207047CB060020DE06002030
:403A0000C9060020C5060020CA06002008B5FFF797FF08BD10B4194B197801F00F010239C9B2174A13889BB20B449BB21380002011E0144A5468144B1B5CDBB223705368EA
:403A4000013353600130C0B20139C9B213889BB2013B9BB213800B4B1B889BB20BB10029E7D10A4B19700A4A137883F0800313700B22084B1A7010BC704700BF29600040D5
:403A8000C6060020E006002000600040CA060020DE060020C90600200623064A1370064A13708022054B1A700022054B1A700120704700BFCB060020C9060020DE060020CF
:403AC000CA060020064B9B6843B1054B9A6810709A6804490988518000229A60704700BFE0060020C606002008B5134B1A78D2B21A701B78DBB213F0800F02D00F4A13706C
:403B000008BD0220FFF7DEFF0D4B1B7803F06003202B05D0402B06D043B900F05BFB06E000F02EFE03E000F0E9FC00E0002010B90322024B1A7008BD28600040C9060020EC
:403B40000060004008B5094B1978094A13889BB20B449BB213800022064B1A700120FFF7B1FF0322044B1A7008BD00BFC5060020C6060020CB060020C906002008B50B4B89
:403B80001B78DBB2042B06D0062B07D0022B0BD1FFF7D8FF08BDFFF73DFF08BD0320FFF791FF0322024B1A7008BD00BFCB060020C906002008B50022044B1A700120FFF76E
:403BC00081FF0322024B1A7008BD00BFCB060020C906002008B50B4B1B7813F0FF0F07D0084A137843F0800307490B70002313700022064B1A700120FFF764FF0322044B68
:403C00001A7008BDEC06002008600040CB060020C906002008B5094B1B78DBB2042B06D0062B07D0022B07D1FFF7F0FE08BDFFF7C1FF08BDFFF7CEFF08BD00BFCB060020FC
:403C400008B5284B1B78DBB213F0100F48D013F0800F0CD003F00F03012B16D1FFF744FF214B1B7813F0800F11D1012312E013F0400F03D0FFF7CEFF01230BE013F0200F49
:403C800007D0FFF77BFF012304E0002302E0002300E0002323B3134B1B7813F0800F1FD1124B1B78124A12781343124A13701278D2B2934214D10C4B1B78DBB2094A12781A
:403CC00012F0800F07D1084B1B78DBB2054A1370137803F00F03044A1278D2B29342EAD108BD00BF28600040C9060020DE060020CA060020296000400022064B1A80064B44
:403D00009B682BB1044A916800230B7092685380704700BFC6060020E006002008B50F4B1B889BB213B9FFF757FE15E002220C4B1A7000220B4B1A70FFF7DEFF0A4AD179FF
:403D4000937943EA0123054A128892B2934201D2024A1380FFF7F4FD012008BDE0060020CB060020DE060020006000400122094B1A700F3B9B7C084B1B7B03F003039342B1
:403D800004D0054AD37B83F08003D3730122024B5A7370470B6000405806002002220A4B1A700F3B93F82230084B1B7E03F00303012B04D0054AD37E83F08003D376012228
:403DC000024B5A76704700BF0B60004058060020704700BF08B5FFF7CFFC08BD08B500F023FC08BD10B401233EE019461A010C242148845403EB43008200204802445279A0
:403E000012F0FF0F13D003EB430082001B480244127912F0800F04D01801194A024494700AE01801164A02440820907004E01801134A0244802090704800084482000F48FF
:403E40000244D488E4B208010B4901448C71D088C0F30720C871D088C0B20871D288C2F307224A710133DBB2082BBED9FF22054B1A7010BC704700BF706000405806002074
:403E8000FC5F00400A600040074B1A78074B03EBC2035B681A7C824204D9C000103018444068704700207047DD060020E8480000034B1A78034B03EBC2035868704700BFFE
:403EC000DD060020E848000008B5084B18780138C0B2FFF7D9FF30B142681279023200EBC203586808BD002008BD00BFD1060020F8B5002310E05A4D5900CA189600AC195F
:403F00000022AA55A270E2702281A272627034462C4462710133DBB2082BECD940B90AE000225049CA545049CA540133DBB200E00023002BF4D04D4B1B7813F0FF0F00F0AB
:403F40008E804A4B18780138C0B2FFF79DFF4368DB7913F0400F05D0454A137843F00103137004E0424A137803F0FE031370047AC368002248E019783A4D695CC9B25D7845
:403F8000A9423ED193F802C00CF07F01DF7807F00307DFF8CCE04D000D44AE000EEB060585F804C093F803C00EF806C09E882E8193F90250002D12DA012F02D14FF0070C97
:403FC00001E04FF00D0C264F4D0005EB010E4FEA8E063E4486F805C00121717011E0012F02D14FF0050C01E04FF0090C1C4F4D0005EB010E4FEA8E063E4486F805C000214F
:40400000717008330132D2B2A242B4D3C06800220CE0837803F07F0310F8085B03EB430399000F4B19448D720132D2B2A242F0D3FFF74AFF0F4B1860002101230BE0084DBA
:404040005A00D01884002C44E180228992B2114489B20133DBB2082BF1D9FFF7C3FEF8BD58060020C8060020D4060020D1060020C4060020D806002008B5154B1B7903F017
:404080007F035A1ED2B2072A20D8590019448A0010490A44917841F0010191700021D170517841F002015170127912F0800F05D01B01094A1A448D23937004E01B01064A54
:4040C0001A4489239370FFF7E7FC08BD002008BD0060004058060020FC5F0040274B1B7903F07F035A1ED2B2072A44D810B5590019448A0022490A44917801F0FE019170FB
:404100000021D1701F4C1801215C01F07F012154517801F0FD015170127912F0800F13D003EB43018A0016490A445278D2B2012A04D1224602440C23937019E01B01114AB7
:404140001A440D23937013E003EB43018A000C490A445278D2B2012A05D11B01094A1A440823937004E01B01064A1A4409239370FFF792FC10BD0020704700BF00600040AE
:4041800058060020FC5F004010B50E4B1C79E4B20D4B18780138C0B2FFF776FE43681B799C4201D9012C0AD8084A135DDBB208490B55044B9B78DBB21355012010BD002035
:4041C00010BD00BF00600040D1060020C8060020D406002010B59B4B1B78DBB200219A4A118013F0800F00F09C80964A5278D2B20A2A00F25F81DFE812F058005D015D01A4
:404200005D015D015D010B005D0181005D0189008C4BDB78DBB2012B09D1FFF749FE4268894B5A6012221A80FFF778FD10BD854BDB78DBB2022B13D1824B9878FFF724FEA5
:40424000002800F0398142687F4B5A605A68D1785A68927842EA01221A80FFF75FFD10BD784BDB78DBB2032B05D01BE00A7811440133DBB201E000237449724A9278D2B21B
:40428000934203D20A7812F0FF0FEFD10B7813F0FF0F00F013810B786B4A13805160FFF73DFD10BD00F06CFA10BD13F0030317D0022B40F0058164490B80624B1B7903F00F
:4042C0007F0303EB43039A00614B1A449278D2B2604B1A7000225A704B60FFF71FFD10BD594902230B805C4B1A78D2B2594B1A7000225A704B60FFF711FD10BD524B0122C6
:404300001A80564A5A60FFF709FD10BD4E4A012313804C4B1B7952490B445360FFF7FEFC10BD484A5278013A0A2A00F2CB80DFE812F04D00C9007A00C9000B00C900C90025
:40434000C9001300C90030003E4B9B78DBB2454A1370FFF7A1FB10BD3A4B9B7803F0FF041BB1601EC0B2FFF78FFD04B110B9002C40F0AA80394B1B78DBB29C4206D0374B24
:404380001C700120384B1870FFF7B2FDFFF784FB10BDFFF7F9FE002800F09880294A1379DBB21279D2B231490A70314AD25CD2B22B49CB5CDBB29A4205D001222A4B1A708A
:4043C0000020FFF795FDFFF767FB10BD03F00303012B17D04BB1022B7AD11A4B9B7813F0FF0F77D1FFF77AFE10BD164B9B78DBB2012B71D1184A137803F0FD031370FFF79C
:404400004BFB10BD0F4B1B7913F0FF0F66D10D4B98781B79DBB21749CA5C22EA0002CA54FFF73AFB10BD03F00303012B31D01BB3022B55D1034B9B7813F0FF0F52D1FFF72E
:404440001BFE10BD00600040E00600203C4900005806002080050020C4060020D1060020C8060020EC060020CC060020DC060020D4060020D00600201D4B9B78DBB2012B0F
:4044800032D11C4A137843F002031370FFF704FB10BD174B1B7913F0FF0F27D1144B98781B79DBB21449CA5C22EA0002CA54FFF7F3FA10BD002010BD002010BD002010BDD6
:4044C000002010BD002010BD002010BD002010BD002010BD002010BD002010BD002010BD002010BD002010BD002010BD002010BD00600040C4060020D0060020044B1B783E
:4045000013F0800F01D0024B5B780020704700BF00600040044A137803F0DF03400100F0200018431070704710510040044A137803F0BF03800100F04000184310707047BF
:4045400010510040044A137803F07F03C001C0B218431070704700BF10510040084A137843F0010313701032137843F00103137002F64D32137843F001031370704700BFD7
:40458000A3430040014B1870704700BF034F0040014B1880704700BF044F0040014B1880704700BF064F004008B5154A137803F0010313700232137803F0FC031370114B6C
:4045C0001A7802F0CF021A701A7842F030021A701A7802F0F0021A701A7842F00F021A70094A137843F0010313709520FFF7D0FF9520FFF7D3FF0020FFF7C4FF08BD00BF11
:40460000004F00400B4F0040014F004008B5054B1B7823B9FFF7C8FF0122024B1A70FFF79DFF08BD82050020024B1878C0F38010704700BF8F45004001BE704710B5044661
:4046400005E0084B186800F08BF8A4F50044B4F5004FF6D8034B586800FB04F000F080F810BD00BFD880FF1F08B5034B1B7A00FB03F000F075F808BDD880FF1F70B5044670
:404680000E46074B1D681F2802D90020FFF7D4FF04F01F04103455F8240045F8246070BD08ED00E038B504460D46072902D90020FFF7C2FF1F2C02D90020FFF7BDFF04F0DD
:4046C0001F0000F1604000F564406D01EDB2057038BD00BF044A137803F07F03C001C0B218431070704700BF30510040014B1878C009704731510040044A137803F0BF03FC
:40470000800100F0400018431070704730510040044A137803F0DF03400100F0200018431070704730510040024B1878C0F34010704700BF31510040044A137803F0EF034D
:40474000000100F0100018431070704730510040024B1878C0F30010704700BF315100400230800803D000BF01380046FCD17047EFF3108072B6704780F31088704700BFEC
:404780000B4B1B7803F00303012B02D0022B03D00CE0074B1B7909E0054B1B7903F07F0303EB43039A00034B1A44937A002070470060004058060020014B1868704700BF47
:4047C0004881FF1F0E4B70B51E460E4C0025E41AA410A54204D056F8253098470135F8E700F0E4F8084B094C1E46E41AA4100025A54204D056F8253098470135F8E770BD3F
:40480000B8490000B8490000B8490000C049000010B5431E0A44914204D011F8014B03F8014FF8E710BD03460244934202D003F8011BFAE7704700000000000049444C4502
:4048400000000000546D725100000000546D722053766300696E746572727570745F726F7574696E65000000736C6176655F3100736C6176655F3200736C6176655F3300DF
:404880007573625F6F7574007573625F696E000064756D6D795F7461736B000007A90225004F00400C00005100401000405100403000C051004010000000014000068006F7
:4048C0000140800900140140000800400140000A004C01400002005001402000000601402C0200488000000001000000F0480000010000009849000000000000000000006E
:4049000001000000084900000100000078490000020000002C4900000000000000000000000000002849000000000000000081024000000000000202080000000403090498
:404940002C0343007900700072006500730073002000530065006D00690063006F006E0064007500630074006F0072000A03550053004200500000000902200001010080AC
:40498000FA09040000020000000007058102400000070502020800001201000200000008B40411E00000010200014300F8B500BFF8BC08BC9E4670474D00000025320000D7
:4049C000F8B500BFF8BC08BC9E46704729000000E0490000C880FF1F88000000A085000000000000F87F0000AAAAAAAA141D1E000000C05D80BB000030000000006CDC0293
:404A00000000000000000000000000000000000000000000000000000000000000000000AA4900000000000000000000000000000000000000000000000000000000000083
:404A40000000000000000000000000000000000000000000000000000000000000000000E880FF1F00000000000000000000000000000000000000000000000000000000B0
:404A800000000000000000000000000000000000000000000000000000000000000000000000000000000000000000000000000000000000000000000000000000000000F6
:404AC00000000000000000000000000000000000000000000000000000000000000000000000000000000000000000000000000000000000000000000000000000000000B6
:404B00000000000000000000000000000000000000000000000000000000000000000000000000000000000000000000000000000000000000000000000000000000000075
:404B40000000000000000000000000000000000000000000000000000000000000000000000000000000000000000000000000000000000000000000000000000000000035
:020000040003F7
:0200000480007A
:4000000002450040024F004003520040016400400105014025070140010B0140041401400A1501403816014036170140031901400440014003410140044201400443014021
:400040000245014001460140034701401448014005490140054C0140045001400151014014017E0201100AB1780879027C40860FEE080512060207200D020E2517151D90FB
:400080001E422522261827602E012F20361837413E163F8045A24D024E0A4F0454805610574265016E116F357602C0F0C2F0C470CAC0CCF0CEF0D0B0D230D880EE08392005
:4000C0003F1059045F0122208A20A901B080B310B404B686B702E220EC10001202640310047206080810090E0A600CCD1002120D140115441632173919631A801B041CCDEA
:400100001D451F3A204D2280248D264028CD300F31303280330F3470374039083A223E043F405409580459045B045F018005820A88098A068C028E0D98039A0CB00FBA02F0
:40014000D440D604D804DB04DF0100400208034005100602076009200D020E290F04100111801715184019011D161E0424102541361837403C103D025C045E425F10610410
:40018000629063406401801087409241930496049A129B759D01A080A120A219A302A602A910C0FBC2F2C470CC70CEA0D6F0D81FE202EA02EE02E202EA02EE02338136403A
:4001C0003702CCF09F03A640A7809F03A640AF80EE1068409F03A640DC201110C402AD1009080F40C20C020450045708582065208004844086409820A440A640A820AF03E8
:40020000C040D4E0D880E240E6C0EA40EE6089209D20AB08B604EE8002028602AD08AF40C00200010A0110011A0100AF601A00005618090001020018848200000A18100212
:40024000079C38030433004484C10038041A8000801804028400000000000000080F00E07F1380002000000A000041004602100005BDFCE02FFFFFFF2200F0080400000034
:400280000000022C04040404000000010000C00040011011C001001140014001000000000000000000000000000000004000040B0B000B00C0000000F00000FFFF00000076
:4002C00000000000101010000000000000F0F000000000000000000000000000000000000000000000000000000000000000000000000000000000000000000000000000EE
:4003000000000000000000000000000000000000000000000000000000000000000000000000000000000000000000000000000000000000000000000000000000000000BD
:40034000000000000000000000000000000000000000000000000000000000000000000000000000000000000000000000000000000000000000000000000000000000007D
:40038000000000000000000000000000000000000000000000000000000000000000000000000000000000000000000000000000000000000000000000000000000000003D
:4003C00000000000000000000000000000000000000000000000000000000000000000000000000000000000000000000000000000000000000000000000000000000000FD
:0200000490006A
:0400000000004005B7
:0200000490105A
:04000000BC90ACAF55
:0200000490303A
:02000000D673B5
:0200000490402A
:4000000000000000000000000000000000000000000000000000000000000000000000000000000000000000000000000000000000000000000000000000000000000000C0
:400040000000000000000000000000000000000000000000000000000000000000000000000000000000000000000000000000000000000000000000000000000000000080
:400080000000000000000000000000000000000000000000000000000000000000000000000000000000000000000000000000000000000000000000000000000000000040
:4000C0000000000000000000000000000000000000000000000000000000000000000000000000000000000000000000000000000000000000000000000000000000000000
:0200000490501A
:0C00000000012E16106900012E33E6DC12
:00000001FF