:400000000080002011000000991900009919000008B5044B1A6803F53F5302331A6001F0C3FC00BFFA46004010B5054C237833B9044B13B10448AFF300800123237010BD53
:400040004081FF1F00000000D02F0000084B10B51BB108490848AFF300800848036803B910BD074B002BFBD0BDE81040184700BF000000004481FF1FD02F0000C880FF1F14
:400080000000000008B501F043FE01F047FE0122014B1A7008BD00BF6081FF1F10B582B00023009304230DEB03024FF6FF710F2000F0C0FC9DF807409DF806301B0443EA4B
:4000C00004649DF8053044EA03239DF804401C43B4F1FF3F15D104230DEB03024FF6FF710F2000F0A7FC9DF807409DF806301B0443EA04639DF8054043EA04239DF804407D
:400100001C4314F0800F07D001231C4A537007220421684600F06AFC04F4C843B3F5C84F08D19DF8013043F064038DF801300122124B9A70124B1C4214D09DF8013063F064
:400140006F038DF801309DF8023043F027038DF802309DF8033043F004038DF803300122064BDA7004236A464FF6FF710F2000F0C1FC0022014B1A7002B010BD6081FF1F26
:40018000009027042DE9F04F93B0C44B18681190002001F0CBFD002001F0D4FD002001F0DDFD002001F0E6FD62B60221002001F0BBFF01F057FE01F01DFD0A2001F078FE3A
:4001C00001F040F9B64801F095FD032001F076FD01F0E2FF0028FBD04FF0010A4FF0000B5546022002F03CF804E0022001F0DAFFAC4B9880022002F07DF80028F5D0A94C47
:40020000A28804F10801022002F040F8022002F065F8237A042B40F06583637A062B40F06183214602232374032363744623A3743723E37404221031012001F0C7FF51E30F
:400240000022984B83F84F20A84628E0BAF1040F01D94FF0010A0023194607E012AA1A4412F8042C012A00D101210133032BF5DD0AF1FF3312AA1A4412F8042C012A06D125
:4002800012AA1344002203F8042CD04603E0022A01D001B9D0460AF1010A5FFA8AFAA845D4D001F073FD012001F0F4FD012001F0FFFD002001F0EEFD59E27A4B93F84F302C
:4002C000DBB2062B00F25382DFE813F00700340057009300A300C600F401002001F026FD002001F02FFD002001F038FD002001F041FD01F05DF96B4C0023E3706370A370CC
:4003000048F01003DBB2684A137048F0200267490A704FEA081242F00A0265490A70204600F8503F0122114601F0AAF9012384F84F301CE25B4B1B78DBB2012B01D1FFF7A1
:40034000ADFE584B5B7813F0FF0F00F01082554C052304F1D0024FF6FF71172000F06AFB0023637001F024F901F074F9022384F84F30012001F0DAFCF9E14A4B1B78DBB2FF
:40038000012B01D1FFF78AFE464BDB7813F0FF0F07D0444C0025E57001F044F984F84F50E5E1404B9B7813F0FF0F00F0E081012001F0C8FC3B4C04F1D80001F097F994F8A5
:4003C000D8203B4B1B789A420BD1052304F1E8024FF6FF71152000F02DFB032384F84F3003E000222F4B83F84F2000222D4B9A70BDE101F0DDF82B4C2C4B1B78204600F8BA
:40040000503F0122114601F03BF9042384F84F30ADE1244B1B78DBB2012B01D1FFF73EFE204B5B7813F0FF0F00F0A181012001F095FC1C4C052304F1F0024FF6FF711720B8
:4004400000F0F8FA052384F84F3001F0B1F801F001F9002363708AE1124B1B78DBB2012B01D1FFF71BFE0F4BDB7813F0FF0F07D00C4C002584F84F5001F0D4F8E57076E171
:40048000084B9B7813F0FF0F00F07181012001F071FC084801F02AF9002121E0D42F0000850000006081FF1F3C83FF1F3B83FF1F3A83FF1F3882FF1F7D48431893F8D82048
:4004C00083F8F8204A1D024492F8D82083F8002101F10A02024492F8D82083F8082101310429E9DD724B03F5887200200021C2E9000103F58C72C2E9000103F59072C2E92C
:40050000000103F59472C2E9000103F59872C2E9000103F59C73C3E900010021C446CDF838B0CDF83CA00691DDE908ABDDE90A89DDE90C0187E05E4B03F59C75D3F838617C
:40054000D3F83C214FEA022B4BEA166B4FEA062A069AC2F104021A4492F8D060002746EA0A0647EA0B07C5E9006703F5987ED3F83061D3F834512D0245EA1665019535023E
:40058000009592F8F8600027DDE9004534433D4326462F46CEE9006703F5947ED3F82861D3F82C512D0245EA166503953502029592F800610027DDE9024534433D43264635
:4005C0002F46CEE9006703F5907ED3F82061D3F824512D0245EA166505953502049592F8E8600027DDE9044534433D4326462F46CEE9006703F58C7ED3F81861D3F81C5117
:400600004FEA052949EA16694FEA062892F8F060002746EA080647EA0907CEE9006703F58875D3F81061D3F81431190241EA1661300292F80821002302430B43C5E9002332
:40064000069B01330693069B042B7FF774AFCDE908ABDDF83CA0DDF838B0CDE90A89E046CDE90C01124B03F58872D2E9000103F59873D3E90023994208BF90420CD30C4B03
:4006800003F58C72D2E9000103F59C73D3E90023994208BF904204D20022054B83F84F2065E0034B062283F84F2000229A705EE06081FF1F8E4B03F59072D2E90012084600
:4006C000114603F59C72D2E90045CDE90601001B61EB050104460D461846E0E9504503F59472D2E9006703F59872D2E90045341B67EB05051A46E2E9524503F58871D1E9E0
:400700000045A41B65EB07051946E1E9544503F58C7430CCDDE90667A61B65EB070734463D461E46E6E956454FEA8B0ED0E9004503F5B07707EB4B10C0E900457446651C21
:40074000D1E9000107EBC505C5E90001A51CD6E9000107EBC505C5E900010334D2E9000107EBC407C7E90001002283F84F20BBF1030F04D801F084FB1F283FF69EAD01F038
:4007800019FB5C4BD3E90023134329D0BBF1000F26D1B8F1010F02D1012001F0C7FAB8F1020F02D1012001F0CDFAB8F1030F02D1012001F0D3FAB8F1040F02D1012001F0CB
:4007C000D9FA0BF1010B5FFA8BFB08F1FF3312AA1344022203F8042C454B83F84C802CE0444BD3E90823134311D0BBF1010F0ED10BF1010B5FFA8BFB08F1FF3312AA134462
:40080000022203F8042C3A4B83F84D8015E0394BD3E91023134310D0BBF1020F0DD10BF1010B5FFA8BFB08F1FF3312AA1344022203F8042C2E4B83F84E80BBF1030F50D14E
:4008400020E001EB81032A4A02F5B07000EBC10650F831007468D51828745D1C070A15442F749D1C070C15442F74DD1C000E15442874043313441C7400220023C6E900236E
:40088000013100E000210B29DBDD194C3F2204F11001012001F09AFC4FF0000B84F808B094F84C30013B12AA1344012203F8042C94F84D30013B12A90B4403F8042C94F87C
:4008C0004E30013B0B4403F8042C584601F02EFA584601F037FA584601F040FA584601F049FA4546024B1B7A012B3FF4A9AC78E46081FF1FC082FF1F0379012B02D0022B2F
:400900001ED03EE00378013B062B3AD8DFE803F004090E13093913004B1EDBB2012B25D82FE0CB1EDBB2012B22D82AE04B1FDBB2012B1FD825E0CB1FDBB2012B1CD820E0EA
:400940000378013B062B1CD8DFE803F00404040A041B0A00A1F10903DBB2032B0ED810E0A1F11103DBB2032B0AD80AE0012108E0032106E0052104E0072102E0092100E014
:4009800011210846704700BF4B1E0C2B1AD8DFE803F00D0A07190A0719190A0719190A00C37853B90EE0C3784BB10BE0C37813B1012B06D006E0062104E0022102E00621B9
:4009C00000E005210846704738B5044605250570012303710223C3700421FFF78DFF607029462046FFF7D0FFA07038BD30B4D408A5B28D4210D202F0070233B1012303FA48
:400A000002F2035D1A43025506E0012303FA02F2035D23EA0202025530BC70470870030A4B70030C8B70000EC87070470870000A487070472DE9F04383B016461D460023B2
:400A4000ADF804308DF806304FF6FF73994204D18DF804004FF0010914E040F040008DF804007F2904D88DF805104FF0020909E061F07F038DF80530C1F3C7118DF80610B7
:400A80004FF0030901F028F9074601F02DF9002407E002AB234413F8040C01F01FF80134A4B21FFA89F84445F3D3002404E0002001F014F80134A4B2AC42F8D300F0F4FF73
:400AC00010F0010FFAD0002403E001F013F80134A4B24445F9D3002404E001F00BF830550134A4B2AC42F8D30FB101F0EFF803B0BDE8F0832DE9F04182B090461D464FF61A
:400B0000FF73994205D160F07F008DF80400012612E060F03F008DF804007F2903D88DF80510022608E061F07F038DF80530C1F3C7118DF80610032601F0CEF8074601F00A
:400B4000D3F8002407E002AB234413F8040C00F0C5FF0134A4B2B3B29C42F4D3002405E018F8040000F0BAFF0134A4B2AC42F7D300F09AFF10F0010FFAD0002403E000F0C4
:400B8000B9FF0134A4B273199C42F8DB0FB101F09DF802B0BDE8F08100B583B0022301AA19461F20FFF746FF0D4B59789DF8042002F03F029DF8053003F0F80342EA81128A
:400BC0008DF8042043EA91038DF80530022301AA19461F20FFF78EFF03B05DF804FB00BF2083FF1F00B583B0074A1379927843EA820302AA02F8043D012302210820FFF78C
:400C000079FF03B05DF804FB2083FF1F00B583B05B4BDB78022B4FD1594B1B79012B02D0022B25D0A0E0564B1B78013B062B00F29B80DFE803F00404090E1399180001A979
:400C40005048FFF7EBFE8FE001A94F48FFF7E6FE8AE001A94D48FFF7E1FE85E001A94C48FFF7DCFE80E001A94A48FFF7D7FE7BE0434B1B78013B062B76D8DFE803F0040422
:400C8000090E1375180001A94348FFF7C7FE6BE001A94248FFF7C2FE66E001A94048FFF7BDFE61E001A93F48FFF7B8FE5CE001A93D48FFF7B3FE57E0314B1B79012B02D0BA
:400CC000022B29D050E02E4B1B78013B062B4BD8DFE803F004040A10164A1C0001A94FF07530FFF79BFE3FE001A94FF06F30FFF795FE39E001A94FF05F30FFF78FFE33E036
:400D000001A94FF04830FFF789FE2DE001A94FF09230FFF783FE27E0194B1B78013B062B22D8DFE803F004040A1016211C0001A94FF06730FFF772FE16E001A94FF08B3092
:400D4000FFF76CFE10E001A94FF09A30FFF766FE0AE001A94FF08530FFF760FE04E001A94FF0D130FFF75AFE04230DEB03024FF6FF711E20FFF7BEFE03B05DF804FB00BF8F
:400D80002083FF1F755535156F4F2F0F5F3F1F1F4828080E92725232674727078B6B4B2B9A7A5A3A85654525D1B1715100B583B0254B1B78013B062B35D8DFE803F0040DC0
:400DC000151D25342D00694645F64040FFF726FEC9238DF8043026E069461C48FFF71EFEC2238DF804301EE069461948FFF716FEC5238DF8043016E069461648FFF70EFE8B
:400E000095238DF804300EE069461348FFF706FEC0238DF8043006E069461048FFF7FEFD93238DF8043003236A460C212820FFF761FE012301AA0B212A20FFF75BFEFFF73C
:400E4000E5FE03B05DF804FB2083FF1FA05C0400C06C0800805C0400E03F1E00E07D1E0000B583B0084BDB785B0163F07F0302AA02F8043D012319460820FFF73BFEFFF785
:400E8000C5FE03B05DF804FB2083FF1F00B583B0084A1379927843EA820302AA02F8043D012302210820FFF725FEFFF7AFFE03B05DF804FB2083FF1F08B50748FFF784FDC8
:400EC000FFF774FFFFF7CCFFFFF7E0FFFFF764FEFFF788FE08BD00BF2083FF1F00B583B0012301AA03211F20FFF7A4FD094BDA799DF8043003F0070343EAC2038DF8043011
:400F0000012301AA03211F20FFF7F4FD03B05DF804FB00BF2083FF1F00B583B0354B9B7A012B02D0022B2ED05AE0324B1B7A013B0C2B55D8DFE803F007171F54071F545466
:400F40000F1F54540F0001A92B48FFF767FD0822284BDA8144E001A92848FFF75FFD1022244BDA813CE001A92548FFF757FD2022204BDA8134E001A92248FFF74FFD402240
:400F80001C4BDA812CE01B4B1B7A013B0C2B27D8DFE803F007171F26071F26260F1F26260F0001A91848FFF739FD0822114BDA8116E001A91548FFF731FD10220D4BDA81C1
:400FC0000EE001A91248FFF729FD2022094BDA8106E001A90F48FFF721FD4022054BDA8104230DEB030208212720FFF783FD03B05DF804FB2083FF1F2D001A3152001A3301
:401000009A001A351D011A376B003B31BE003B335E013B3596023B3700B583B01A4B1B7A013B0C2B08D8DFE803F01B1207070A1507070C1807070F004FF4805011E0802040
:401040000FE04FF480700CE04FF4007009E04FF4806006E04FF4C06003E04FF4006000E04020094A138AD2891844801A013001A980B2FFF7DBFC022301AA20212720FFF72B
:4010800039FD03B05DF804FB2083FF1F00B583B00023ADF80430ADF800301D4B1B7A013B0C2B22D8DFE803F0071019211019212110192121100001A91020FFF7B7FC6946EC
:4010C0001020FFF7B3FC10E001A92020FFF7AEFC69462820FFF7AAFC07E001A96420FFF7A5FC69462820FFF7A1FC022301AA06212720FFF7FFFC02236A4626212720FFF750
:40110000F9FCFFF709FFFFF787FF03B05DF804FB2083FF1F00B583B00D4B9B79013B062B0CD8DFE803F004040408040B0800D8238DF8043002E0BC238DF80430012301AAF1
:401140000B212820FFF7D6FC03B05DF804FB00BF2083FF1F00B583B000238DF80430144B5B7A13B1022B11D809E069460A20FFF75DFC40238DF804300D4A138206E069462C
:401180000120FFF753FC0822094B1A82012301AA02210420FFF7AEFC02236A4619462720FFF7A8FCFFF738FF03B05DF804FB00BF2083FF1F10B584B0012303AA02211F2004
:4011C000FFF738FC9DF80C3003F0F303224CA27A43EA82038DF80C30012303AA02211F20FFF788FCA37A012B02D0022B0FD01CE002A98720FFF71AFC01A948F67000FFF792
:4012000015FC694641F20760FFF710FC0DE002A98D20FFF70BFC01A948F69B00FFF706FC694640F20760FFF701FC022302AA04212720FFF75FFC022301AA04212320FFF79E
:4012400059FC02236A4641F606012E20FFF752FCFFF762FE04B010BD2083FF1F10B582B0012301AA03210420FFF7E4FB9DF8043043F010038DF804300D4C6946A089FFF70A
:40128000D5FBA3892BB99DF8043023F010038DF8043002236A464FF6FF710C20FFF72AFC012301AA03210420FFF724FC02B010BD2083FF1F10B5094CA01DFFF785FB0023F7
:4012C000A381FFF727FFFFF745FFFFF773FFFFF705FEFFF7DBFEFFF7C1FF10BD2083FF1F10B584B0224CA37C43EA031304AA02F8043D01234FF6FF711F20FFF7FBFBA37C2B
:40130000013B062B24D8DFE803F0040C140C1C231C0001A91748FFF781FB1E238DF8083016E001A91448FFF779FB26238DF808300EE001A91148FFF771FB56238DF8083091
:4013400006E001A90E48FFF769FBBE238DF8083004230DEB030207212B20FFF7CBFB012302AA0B212B20FFF7C5FB04B010BD00BF2083FF1F07040009080540080910400874
:401380001D04000870B582B0012402AD05F8044D23462A4600213620FFF7ACFB204600F087FD00268DF8046023462A4603213620FFF7A0FB204600F07BFDF0238DF8043037
:4013C00023462A4603213620FFF794FB052000F06FFD8DF8044003238DF8053002232A4631463620FFF786FB204600F061FD8DF8006080238DF8013002236A4606212D20D7
:40140000FFF778FB204600F053FD8DF8046002238DF805302A4631463620FFF76BFB02B070BD00BF08B5FFF7ADFFFFF745FDFFF741FF0522024B9A74FFF752FF08BD00BF84
:401440002083FF1F30B587B0FFF7ECFF042305AA4FF6FF710020FFF7EDFA9DF817209DF816301B0443EA02639DF8152043EA02239DF8142013434C4A934203D0642000F0E1
:4014800017FDFBE7494B18680490042304AA0C212320FFF72FFB06AA6D2302F80C3D012340F606012E20FFF725FB002506AC44F8105D042322464FF6FF710E20FFF7BAFA45
:4014C0000123072204212046FFF790FA01230D2204212046FFF78AFA01230C2204212046FFF784FA01230F2204212046FFF77EFA0123102204212046FFF778FA01231122FD
:4015000004212046FFF772FA0123122204212046FFF76CFA0123152204212046FFF766FA01231A2204212046FFF760FA042322464FF6FF710E20FFF7DDFA40238DF80530AC
:4015400006AC4F2304F8143D022322464FF6FF711820FFF7CFFA0223224641F604012E20FFF7C8FA642000F0A3FC042305AA4FF6FF712846FFF75EFA9DF817209DF81630F1
:401580001B0443EA02639DF8152043EA02239DF814201343044A934203D0642000F088FCFBE707B030BD00BF3001CADED82F000010B582B00023019340228DF804200093E0
:4015C00000F08AFB044600F08FFB04230DEB03024FF6FF710D20FFF78DFA0123072204216846FFF703FA9DF8013063F00B038DF801309DF8023043F027038DF802309DF8CF
:40160000033043F004038DF8033004236A464FF6FF710F20FFF76EFA0CB100F057FB02B010BD00BF10B582B002ACE02304F8043D0123224603213620FFF75CFAF0238DF860
:4016400004300123224603213620FFF753FA02B010BD00BF10B582B002AC002344F8043D0123082204212046FFF7C0F9042322464FF6FF710D20FFF73DFA02B010BD00BF06
:4016800030B583B00B4615468A1C02AC04F8012D02464FF6FF710920FFF72CFA012322464FF6FF710820FFF725FA02AA002342F8083D01234FF6FF710D20FFF7BBF99DF895
:4016C000003043F0020325B163F07F038DF8003003E003F07F038DF8003004236A464FF6FF710D20FFF706FA03B030BD10B582B0044601230DF107024FF6FF711020FFF77F
:4017000099F99DF80730023BDBB28DF8073022464FF6FF711120FFF78DF99DF80730052B16D902AA002302F8023D01234FF6FF711120FFF77FF90D2305E0E21812F8012C4A
:40174000E254013BDBB2002BF7D19DF80630237002B010BDFEE700BFF0B40022174611E050F82760F3B226F0FF0608E001EB420511F812406D78A5550132013BDBB2002BD7
:40178000F4D10137172FEBD9F0BC7047064B1B78DBB203F00701054A11701B09013213704422034B1A707047CF0100496E5800407658004008B50A46002101F000FC08BDA7
:4017C00038B50F22264B1A801823264A137041F2BF2102321180023213700622224B1A705222A3F580731A70204B1B78DBB2204A13704FF4E2621F4B1A8041F25122023B75
:401800001A80002419250CE01B4B1B7803F0010343EA440404F003044FF4F07001F06CFB013D0DB1032CEFD115B90320FFF792FF124A4FF4807313800723137000231049B4
:401840000B7048200231087013700532137002220C4B1A700C4A137843F00303137038BD8040004082400040004300400F010049A146004022420040254200400440004032
:401880000640004001400040A243004008B501F08BFB08BD38B572B6314A137843F00403137000240CE02F4D630019194A0011462A44084691882858FFF77CFF0134E4B2D8
:4018C000092CF0D900240BE02649A3001819420088188022016CC06BFFF7D8FF0134E4B2002CF1D020494FF09040FFF735FF1F4A137843F0020313701032137843F00203A1
:4019000013701B4C237843F040032370A2F58632513A137843F0100313700A2215491648FFF7B4FF0A2215491548FFF7AFFF082214491548FFF7AAFF144A137843F0080325
:401940001370134D61232B70FFF73AFFC1232B70FFF71CFF0E2221460E48FFF797FF38BDE8460040DC2F00006000004803500140A0430040AC020048F0510040B8020048E7
:4019800010510040C4020048225100402243004000480040B043004008B501F0D9FA03680C2B00D1FEE7FEE708B5104E104D16E029686B68AC68002204E051F8040B43F828
:4019C000040B0432A242F8D1E868002203E0002143F8041B04328242F9D11035013E002EE6D101F0BBFAFEF7CDFBFEE7010000000C31000008B5104A104B1A60104A1368B1
:401A000043F40073136000230AE0032B03D80D4A52F8231000E00C490C4A42F8231001332F2BF2D90A4B1A780A4B1A70074A0A4B1A60FFF72FFF08BD0004FA050CED00E0A3
:401A400014ED00E000000000991900000080FF1FBC760040C080FF1F08ED00E00222014B1A60704700E100E008B501F04DFA0A4A137843F02003137002F58072137843F0DA
:401A8000100313700132137843F01003137001F03FFAFFF7E3FF08BD966400400222014B1A60704780E100E0014B1878704700BF6665004010B5FFF7F1FF064B1B78064AEA
:401AC000147804F040041C4300231370FFF7C6FF204610BD676500405583FF1F034B1B7813F0040FFAD0024B18707047666500404664004010B5FFF7D1FF134B1A78D2B2EC
:401B0000124B1B78DBB29A4214D0114B1B7813F0FF0F0CD10C4A13780133DBB213701378DBB20E2B06D90022074B1A7002E00022074B1A70044B1B78DBB2064AD45CE4B2D3
:401B4000FFF78CFF204610BD5483FF1F5383FF1F4083FF1F4483FF1F08B501E00A4B1B780A4B1B7813F0200FF8D101F0CDF9084B1A7842F001021A701A7802F0FE021A7030
:401B800001F0C6F908BD00BF56640040676500409664004010B50F220F4B1A7002220F4B1A600721012000F0B7F90D49012000F09FF9FFF7D1FF00240A4B1C700A4B1C704B
:401BC0000A4B1C70FFF770FFFFF774FF084B1C70202201331A7010BD8664004080E100E0111C00004083FF1F5483FF1F5383FF1F8665004008B5054B1B7823B9FFF7CAFFC2
:401C00000122024B1A70FFF72FFF08BD3483FF1F204B1A7820490B7803F0400313430B7032E01E4B1A78D2B21D490B780133DBB20B700B78DBB20E2B02D90021184B197015
:401C4000174B1978C9B2174B1B78DBB299420ED114490B780133DBB20B700B78DBB20E2B02D900210F4B197001210F4B19700C4B1B78DBB20D49CA54064B1A7806490B78D1
:401C800003F0400313430B70034B1B7813F0200FC7D17047676500405583FF1F566400405383FF1F5483FF1F4083FF1F4483FF1F014B1B681864704708ED00E04001C0B286
:401CC000014B1870704700BF00E400E00122014B1A60704700E100E0024B186800F00100704700BF00E100E00122014B1A60704780E100E010B50446FFF7F6FF2046FFF749
:401D0000D7FF0720FFF7DAFFFFF7E0FF10BD00BF0122014B1A60704780E200E0024B1878C0F30010704700BF82450040044A137803F0EF03000100F0100018431070704726
:401D400010510040044A137803F0DF03400100F0200018431070704710510040044A137803F0BF03800100F0400018431070704710510040044A137803F07F03C001C0B29D
:401D800018431070704700BF10510040084A137843F0010313701032137843F00103137002F64D32137843F001031370704700BFA3430040084A137803F0FE031370A2F6CF
:401DC0005D32137803F0FE0313701032137803F0FE031370704700BF004F0040014B1870704700BF034F0040014B1880704700BF044F0040014B1880704700BF064F004051
:401E000008B5154A137803F0010313700232137803F0FC031370114B1A7802F0CF021A701A7842F030021A701A7802F0F0021A701A7842F00F021A70094A137843F001031E
:401E400013709520FFF7D0FF9520FFF7D3FF0020FFF7C4FF08BD00BF004F00400B4F0040014F004008B5054B1B7823B9FFF7C8FF0122024B1A70FFF789FF08BD3583FF1F86
:401E8000024B1B88024B188880B27047064F0040084F0040044A137803F0FB03800000F004001843107070471051004001BE704710B5044605E0084B186801F01DF8A4F5E3
:401EC0000044B4F5004FF6D8034B586800FB04F001F012F810BD00BFCC80FF1F08B5034B1B7A00FB03F001F007F808BDCC80FF1F70B504460E46074B1D681F2802D9002061
:401F0000FFF7D4FF04F01F04103455F8240045F8246070BD08ED00E038B504460D46072902D90020FFF7C2FF1F2C02D90020FFF7BDFF04F01F0000F1604000F564406D013A
:401F4000EDB2057038BD00BFF8B500F0DDFF06463C4A137843F0010313701032137843F0010313700127384B1F700225943B1D7002F5E2521B32137803F07F0313700020AA
:401F8000FFF7ACFF314C237803F0F9032370304A137803F0DF03137023783B4323703846FFF79CFF2820FFF799FF2A4B1A7802F07F021A701A7802F0BF021A7023782B431C
:401FC00023702846FFF78AFF237843F0040323700023214A137001321370304600F098FF07211720FFF798FF1C491720FFF780FF07211820FFF790FF19491820FFF778FF4C
:4020000007211520FFF788FF16491520FFF770FF07212846FFF780FF13492846FFF768FF07210320FFF778FF10490320FFF760FF07210C20FFF770FF0D490C20FFF758FF8A
:40204000F8BD00BFA54300409D6000409443004012600040F851004084600040A927000015260000A52700004127000071270000B127000008B5204B187000231F4A1370A3
:402080001F4A13701F4A13701F4A13701F4A13701F4A13701F4A13701F4B4FF400021A604FF080721A604FF400121A6004221A6008221A6011B1012906D00BE0174A137818
:4020C00003F0FE0313700AE0144A137843F00103137004E0114A137843F00103137003220F4B1A708022203B1A70012000F004FF04220C4B1A7008BDDD83FF1FCB83FF1FFE
:40210000CC83FF1FD183FF1FDC83FF1FEC83FF1FC483FF1FC583FF1F00E100E009600040286000401260004038B504460D46064B1B7823B9FFF708FF0122034B1A70294656
:402140002046FFF797FF38BD3683FF1F00230A4A13700A4A13700A4A13700A4A13700A4A13700A4A13700A4A13700322094B1A708022203B1A707047CB83FF1FCC83FF1F83
:40218000D183FF1FDC83FF1FEC83FF1FC483FF1FC583FF1F28600040014B1878704700BFD183FF1F431EDBB2072B0BD8064B00011A18185C00F00F00537843EA0020023800
:4021C00080B2704700207047FC5F0040431EDBB2072B3CD8F0B4074600EB4004A3001C4C2344DB889BB2C3F500739A4208D900EB400293002344DA8892B2C2F5007292B2EC
:4022000000EB4004A300124C2344DB7843EA1223104D04012E192B55D3B2737039B909E0CE5C3D010C4C665501339BB200E000239A42F5D8420002449300054A134400225B
:402240005A705A79D2B20001044B1A54F0BC70475883FF1FFC5F004078600040FE5F0040431EDBB2072B0BD8420002449300054A134400225A705A79D2B20001024B1A5410
:40228000704700BF5883FF1FFE5F004070B5D9B1054614460E46C8B1082819D8FFF782FFA04203D22846FFF77DFF0446002305E02901094A525CF25401339BB2A342F7D3CF
:4022C0002846FFF7CDFF04E0002402E0002400E00024204670BD00BF78600040431EDBB2072B03D80001024B08221A54704700BFFE5F0040431EDBB2072B06D80001044BF0
:40230000185C00F01000C0B270470020704700BFFE5F00401D4B19781D4A13889BB20B449BB2138000220FE01A494B681B78DBB2194883544B6801334B600132D2B20B88FB
:402340009BB2013B9BB20B80124B1B889BB20BB1072AE9D90D4B1B78DBB2082B00D05AB10E490B7883F080030B700F210C4B197002210C4B197004E0022309490B700949F4
:402380000B70094B1A70014B1A707047C583FF1FC683FF1FE083FF1F00600040DE83FF1FC983FF1FCB83FF1FCA83FF1F0222074B1A708022064B1A700F22064B1A700023DD
:4023C000054A1370054A137001207047CB83FF1FDE83FF1FC983FF1FC583FF1FCA83FF1F08B5FFF797FF08BD10B4194B197801F00F010239C9B2174A13889BB20B449BB2D8
:402400001380002011E0144A5468144B1B5CDBB223705368013353600130C0B20139C9B213889BB2013B9BB213800B4B1B889BB20BB10029E7D10A4B19700A4A137883F0D7
:40244000800313700B22084B1A7010BC704700BF29600040C683FF1FE083FF1F00600040CA83FF1FDE83FF1FC983FF1F0623064A1370064A13708022054B1A700022054BA8
:402480001A700120704700BFCB83FF1FC983FF1FDE83FF1FCA83FF1F064B9B6843B1054B9A6810709A6804490988518000229A60704700BFE083FF1FC683FF1F08B5134BDB
:4024C0001A78D2B21A701B78DBB213F0800F02D00F4A137008BD0220FFF7DEFF0D4B1B7803F06003202B05D0402B06D043B900F05BFB06E000F010FD03E000F0E9FC00E0C3
:40250000002010B90322024B1A7008BD28600040C983FF1F0060004008B5094B1978094A13889BB20B449BB213800022064B1A700120FFF7B1FF0322044B1A7008BD00BFCD
:40254000C583FF1FC683FF1FCB83FF1FC983FF1F08B50B4B1B78DBB2042B06D0062B07D0022B0BD1FFF7D8FF08BDFFF73DFF08BD0320FFF791FF0322024B1A7008BD00BFBD
:40258000CB83FF1FC983FF1F08B50022044B1A700120FFF781FF0322024B1A7008BD00BFCB83FF1FC983FF1F08B50B4B1B7813F0FF0F07D0084A137843F0800307490B70B4
:4025C000002313700022064B1A700120FFF764FF0322044B1A7008BDEC83FF1F08600040CB83FF1FC983FF1F08B5094B1B78DBB2042B06D0062B07D0022B07D1FFF7F0FEC9
:4026000008BDFFF7C1FF08BDFFF7CEFF08BD00BFCB83FF1F08B5284B1B78DBB213F0100F48D013F0800F0CD003F00F03012B16D1FFF744FF214B1B7813F0800F11D10123C7
:4026400012E013F0400F03D0FFF7CEFF01230BE013F0200F07D0FFF77BFF012304E0002302E0002300E0002323B3134B1B7813F0800F1FD1124B1B78124A12781343124AF4
:4026800013701278D2B2934214D10C4B1B78DBB2094A127812F0800F07D1084B1B78DBB2054A1370137803F00F03044A1278D2B29342EAD108BD00BF28600040C983FF1F9B
:4026C000DE83FF1FCA83FF1F296000400022064B1A80064B9B682BB1044A916800230B7092685380704700BFC683FF1FE083FF1F08B50F4B1B889BB213B9FFF757FE15E0C7
:4027000002220C4B1A7000220B4B1A70FFF7DEFF0A4AD179937943EA0123054A128892B2934201D2024A1380FFF7F4FD012008BDE083FF1FCB83FF1FDE83FF1F0060004037
:402740000122094B1A700F3B9B7C084B1B7B03F00303934204D0054AD37B83F08003D3730122024B5A7370470B6000405883FF1F02220A4B1A700F3B93F82230084B1B7EE5
:4027800003F00303012B04D0054AD37E83F08003D3760122024B5A76704700BF0B6000405883FF1F704700BF08B5FFF7CFFC08BD08B500F099FB08BD10B401233EE01946C3
:4027C0001A010C242148845403EB4300820020480244527912F0FF0F13D003EB430082001B480244127912F0800F04D01801194A024494700AE01801164A0244082090704B
:4028000004E01801134A0244802090704800084482000F480244D488E4B208010B4901448C71D088C0F30720C871D088C0B20871D288C2F307224A710133DBB2082BBED9E8
:40284000FF22054B1A7010BC704700BF706000405883FF1FFC5F00400A600040074B1A78074B03EBC2035B681A7C824204D9C000103018444068704700207047DD83FF1FDA
:4028800024300000034B1A78034B03EBC2035868704700BFDD83FF1F2430000008B5084B18780138C0B2FFF7D9FF30B142681279023200EBC203586808BD002008BD00BF9F
:4028C000D183FF1FF8B5002310E05A4D5900CA189600AC190022AA55A270E2702281A272627034462C4462710133DBB2082BECD940B90AE000225049CA545049CA5401333E
:40290000DBB200E00023002BF4D04D4B1B7813F0FF0F00F08E804A4B18780138C0B2FFF79DFF4368DB7913F0400F05D0454A137843F00103137004E0424A137803F0FE0393
:402940001370047AC368002248E019783A4D695CC9B25D78A9423ED193F802C00CF07F01DF7807F00307DFF8CCE04D000D44AE000EEB060585F804C093F803C00EF806C06B
:402980009E882E8193F90250002D12DA012F02D14FF0070C01E04FF00D0C264F4D0005EB010E4FEA8E063E4486F805C00121717011E0012F02D14FF0050C01E04FF0090CEE
:4029C0001C4F4D0005EB010E4FEA8E063E4486F805C00021717008330132D2B2A242B4D3C06800220CE0837803F07F0310F8085B03EB430399000F4B19448D720132D2B2E4
:402A0000A242F0D3FFF74AFF0F4B1860002101230BE0084D5A00D01884002C44E180228992B2114489B20133DBB2082BF1D9FFF7C3FEF8BD5883FF1FC883FF1FD483FF1F42
:402A4000D183FF1FC483FF1FD883FF1F08B5154B1B7903F07F035A1ED2B2072A20D8590019448A0010490A44917841F0010191700021D170517841F002015170127912F0EA
:402A8000800F05D01B01094A1A448D23937004E01B01064A1A4489239370FFF7E7FC08BD002008BD006000405883FF1FFC5F0040274B1B7903F07F035A1ED2B2072A44D85A
:402AC00010B5590019448A0022490A44917801F0FE0191700021D1701F4C1801215C01F07F012154517801F0FD015170127912F0800F13D003EB43018A0016490A4452782A
:402B0000D2B2012A04D1224602440C23937019E01B01114A1A440D23937013E003EB43018A000C490A445278D2B2012A05D11B01094A1A440823937004E01B01064A1A44E6
:402B400009239370FFF792FC10BD0020704700BF006000405883FF1FFC5F004010B50E4B1C79E4B20D4B18780138C0B2FFF776FE43681B799C4201D9012C0AD8084A135DFD
:402B8000DBB208490B55044B9B78DBB21355012010BD002010BD00BF00600040D183FF1FC883FF1FD483FF1F10B59B4B1B78DBB200219A4A118013F0800F00F09C80964A17
:402BC0005278D2B20A2A00F25F81DFE812F058005D015D015D015D015D010B005D0181005D0189008C4BDB78DBB2012B09D1FFF749FE4268894B5A6012221A80FFF778FD4E
:402C000010BD854BDB78DBB2022B13D1824B9878FFF724FE002800F0398142687F4B5A605A68D1785A68927842EA01221A80FFF75FFD10BD784BDB78DBB2032B05D01BE091
:402C40000A7811440133DBB201E000237449724A9278D2B2934203D20A7812F0FF0FEFD10B7813F0FF0F00F013810B786B4A13805160FFF73DFD10BD00F04EF910BD13F01D
:402C8000030317D0022B40F0058164490B80624B1B7903F07F0303EB43039A00614B1A449278D2B2604B1A7000225A704B60FFF71FFD10BD594902230B805C4B1A78D2B236
:402CC000594B1A7000225A704B60FFF711FD10BD524B01221A80564A5A60FFF709FD10BD4E4A012313804C4B1B7952490B445360FFF7FEFC10BD484A5278013A0A2A00F230
:402D0000CB80DFE812F04D00C9007A00C9000B00C900C900C9001300C90030003E4B9B78DBB2454A1370FFF7A1FB10BD3A4B9B7803F0FF041BB1601EC0B2FFF78FFD04B199
:402D400010B9002C40F0AA80394B1B78DBB29C4206D0374B1C700120384B1870FFF7B2FDFFF784FB10BDFFF7F9FE002800F09880294A1379DBB21279D2B231490A70314A64
:402D8000D25CD2B22B49CB5CDBB29A4205D001222A4B1A700020FFF795FDFFF767FB10BD03F00303012B17D04BB1022B7AD11A4B9B7813F0FF0F77D1FFF77AFE10BD164BAC
:402DC0009B78DBB2012B71D1184A137803F0FD031370FFF74BFB10BD0F4B1B7913F0FF0F66D10D4B98781B79DBB21749CA5C22EA0002CA54FFF73AFB10BD03F00303012BCB
:402E000031D01BB3022B55D1034B9B7813F0FF0F52D1FFF71BFE10BD00600040E083FF1F783000005883FF1F3883FF1FC483FF1FD183FF1FC883FF1FEC83FF1FCC83FF1F2A
:402E4000DC83FF1FD483FF1FD083FF1F1D4B9B78DBB2012B32D11C4A137843F002031370FFF704FB10BD174B1B7913F0FF0F27D1144B98781B79DBB21449CA5C22EA00022A
:402E8000CA54FFF7F3FA10BD002010BD002010BD002010BD002010BD002010BD002010BD002010BD002010BD002010BD002010BD002010BD002010BD002010BD002010BD4E
:402EC000002010BD00600040C483FF1FD083FF1F044B1B7813F0800F01D0024B5B780020704700BF00600040024B1878C0F38010704700BF8F4500400230800803D000BFDE
:402F000001380046FCD17047EFF3108072B6704780F31088704700BF0B4B1B7803F00303012B02D0022B03D00CE0074B1B7909E0054B1B7903F07F0303EB43039A00034BAC
:402F40001A44937A00207047006000405883FF1F014B1868704700BF3C81FF1F0E4B70B51E460E4C0025E41AA410A54204D056F8253098470135F8E700F0B6F8084B094CAE
:402F80001E46E41AA4100025A54204D056F8253098470135F8E770BDF4300000F4300000F4300000FC30000010B5431E0A44914204D011F8014B03F8014FF8E710BD03460F
:402FC0000244934202D003F8011BFAE770470000000000000101010007A90225004F00400C00005100401000305100404000C0510040100000000140000680060140800926
:4030000000140140000800400140000A004C01400002005001402000000601402C02004880000000010000002C30000001000000D4300000000000000000000001000000C8
:403040004430000001000000B43000000200000068300000000000000000000000000000643000000000000000008102400000000000020208000000040309042C03430074
:403080007900700072006500730073002000530065006D00690063006F006E0064007500630074006F0072000A03550053004200500000000902200001010080FA090400F0
:4030C00000020000000007058102400000070502020800001201000200000008B40411E00000010200014300F8B500BFF8BC08BC9E4670474D000000F5190000F8B500BF94
:40310000F8BC08BC9E4670472900000020310000C880FF1F78000000B002000000000000000000000000C05D80BB000030000000006CDC02000000000000000000000000A0
:403140000000000000000000000000000000000000000000E63000000000000000000000000000000000000000000000000000000000000000000000000000000000000039
:403180000000000000000000000000000000000000000000DC80FF1F0000000000000000000000000000000000000000000000000000000000000000000000000000000095
:4031C00000000000000000000000000000000000000000000000000000000000000000000000000000000000000000000000000000000000000000000000000000000000CF
:40320000000000000000000000000000000000000000000000000000000000000000000000000000000000000000000000000000000000000000000000000000000000008E
:40324000000000000000000000000000000000000000000000000000000000000000000000000000000000000000000000000000000000000000000000000000000000004E
:40328000000000000000000000000000000000000000000000000000000000000000000000000000000000000000000000000000000000000000000000000000000000000E
:020000040003F7
:0200000480007A
:4000000002450040024F004003520040016400400105014025070140010B0140041401400A1501403816014036170140031901400440014003410140044201400443014021
:400040000245014001460140034701401448014005490140054C0140045001400151014014017E0201100AB1780879027C40860FEE080512060207200D020E2517151D90FB
:400080001E422522261827602E012F20361837413E163F8045A24D024E0A4F0454805610574265016E116F357602C0F0C2F0C470CAC0CCF0CEF0D0B0D230D880EE08392005
:4000C0003F1059045F0122208A20A901B080B310B404B686B702E220EC10001202640310047206080810090E0A600CCD1002120D140115441632173919631A801B041CCDEA
:400100001D451F3A204D2280248D264028CD300F31303280330F3470374039083A223E043F405409580459045B045F018005820A88098A068C028E0D98039A0CB00FBA02F0
:40014000D440D604D804DB04DF0100400208034005100602076009200D020E290F04100111801715184019011D161E0424102541361837403C103D025C045E425F10610410
:40018000629063406401801087409241930496049A129B759D01A080A120A219A302A602A910C0FBC2F2C470CC70CEA0D6F0D81FE202EA02EE02E202EA02EE02338136403A
:4001C0003702CCF09F03A640A7809F03A640AF80EE1068409F03A640DC201110C402AD1009080F40C20C020450045708582065208004844086409820A440A640A820AF03E8
:40020000C040D4E0D880E240E6C0EA40EE6089209D20AB08B604EE8002028602AD08AF40C00200010A0110011A0100AF601A00005618090001020018848200000A18100212
:40024000079C38030433004484C10038041A8000801804028400000000000000080F00E07F1380002000000A000041004602100005BDFCE02FFFFFFF2200F0080400000034
:400280000000022C04040404000000010000C00040011011C001001140014001000000000000000000000000000000004000040B0B000B00C0000000F00000FFFF00000076
:4002C00000000000101010000000000000000000000000000000000000000000000000000000000000000000000000000000000000000000000000000000000000000000CE
:4003000000000000000000000000000000000000000000000000000000000000000000000000000000000000000000000000000000000000000000000000000000000000BD
:40034000000000000000000000000000000000000000000000000000000000000000000000000000000000000000000000000000000000000000000000000000000000007D
:40038000000000000000000000000000000000000000000000000000000000000000000000000000000000000000000000000000000000000000000000000000000000003D
:4003C00000000000000000000000000000000000000000000000000000000000000000000000000000000000000000000000000000000000000000000000000000000000FD
:0200000490006A
:0400000000004005B7
:0200000490105A
:04000000BC90ACAF55
:0200000490303A
:02000000D32DFE
:0200000490402A
:4000000000000000000000000000000000000000000000000000000000000000000000000000000000000000000000000000000000000000000000000000000000000000C0
:400040000000000000000000000000000000000000000000000000000000000000000000000000000000000000000000000000000000000000000000000000000000000080
:400080000000000000000000000000000000000000000000000000000000000000000000000000000000000000000000000000000000000000000000000000000000000040
:4000C0000000000000000000000000000000000000000000000000000000000000000000000000000000000000000000000000000000000000000000000000000000000000
:0200000490501A
:0C00000000012E16106900012E29E39665
:00000001FF