:400000000080002011000000293400002934000008B5044B1A6803F53F5302331A6003F00BFA00BFFA46004010B5054C237833B9044B13B10448AFF300800123237010BDB5
:400040005081FF1F00000000D8490000084B10B51BB108490848AFF300800848036803B910BD074B002BFBD0BDE81040184700BF000000005481FF1FD8490000C880FF1FB0
:4000800000000000094A22F00702094BC3F838290020C3F83C0947F6F871C3F84419C3F84009516003F51463136070477481FF1F34F8FF1F70B5044600F030FF244BD3F811
:4000C00048392BB9FFF7DEFF0122214BC3F8482934B1083414F0070F02D024F007040834621E47F6F6739A422BD81949D1F8383901F6381101E0194613465A68944202D9B8
:400100001A68002AF7D1134A93421CD00D6808351A680A605A68121B102A0CD91E1972605C6074680C4900E011460A6850688442FAD832600E605968084A13685B1A13601C
:4001400002E0002500E0002500F078FF284670BD34F8FF1F740100206C010020CC80FF1FD0B170B50546A0F1080600F0D7FE55F8044C0A4A00E01A46136859688C42FAD839
:4001800045F8083C166055F8043C054A11680B44136000F053FF70BD704700BF6C010020CC80FF1F00F1080343604FF0FF328260C360036100230360704700BF002303615A
:4001C000704700BF43684B609A688A609A68516099600861036801330360704730B40D68B5F1FF3F01D1026907E000F1080200E01A4653681C68A542FAD253684B6099608C
:400200008A605160086103680133036030BC704703694268816891608268416851605A68904201D182685A60002202611A68013A1A601868704700BF82B0002301934FF0FD
:40024000A00383F31188BFF36F8FBFF34F8F019B002BFCD002B0704706480068006880F3088862B661B6BFF34F8FBFF36F8F00DF00BF000008ED00E04FF0807340F8043CE3
:4002800021F0010140F8081C034B40F80C3C40F8202C4038704700BF3902000000000000074B19680868B0E8F00F80F30988BFF36F8F4FF0000080F311884EF00D0E70476B
:4002C000740400204FF0A00383F31188BFF36F8FBFF34F8F024A136801331360704700BFD080FF1F034A1368013B13600BB983F311887047D080FF1F000000000000000074
:40030000EFF30980BFF36F8F0D4B1A6820E9F00F10602DE908404FF0A00080F3118800F049FF4FF0000080F31188BDE8084019680868B0E8F00F80F30988BFF36F8F7047A4
:400340007404002008B54FF0A00383F31188BFF36F8FBFF34F8F00F0F1FD18B14FF08052024B1A60002383F3118808BD04ED00E0054B00221A6005490A6045F6BF51044A73
:40038000116007221A60704710E000E018E000E014E000E010B50B4B1A6842F460021A601A6842F060421A60FFF7E2FF0024064B1C60FFF751FF00F0FDFEFFF73DFF2046E6
:4003C00010BD00BF20ED00E0D080FF1F436A23B1036B1868C0F1200070470020704700BF10B50446FFF76EFFA26BE36B9A4201D1012400E00024FFF775FF204610BD00BF89
:4004000010B50446FFF75EFFA36B0BB9012400E00024FFF767FF204610BD00BF70B504461646856B026C3AB9036843BB806801F069F80023A36029E06EB9406804F0B8FAAE
:400440006268236C13446360A268934219D32368636000201AE0C06804F0AAFA236C5B42E2681A44E26021688A4202D2A2681344E360022E07D145B1013D002006E00020D1
:4004800004E0002002E0002000E000200135A56370BD00BF026C72B110B5C3681344C3608468A34201D30368C3600C46C168204604F07EFA10BD704738B50546FFF702FFDE
:4004C00095F8454064B20AE06B6A53B105F1240000F02CFF08B100F099FF013C64B2002CF2DCFF2385F84530FFF7FCFEFFF7EAFE95F8444064B20AE02B6953B105F11000BD
:4005000000F014FF08B100F081FF013C64B2002CF2DCFF2385F84430FFF7E4FE38BD00BF38B504460D46FFF7CDFE2168E26B236C03FB0210A0600020A0636160013A02FBC7
:400540000313E360FF2384F8443084F845307DB92369ABB104F1100000F0E8FE80B14FF08052094B1A60BFF34F8FBFF36F8F07E004F11000FFF716FE04F12400FFF712FEC1
:40058000FFF7B0FE012038BD04ED00E010B5029B0C4609B91B6000E01A60D8631C6401211846FFF7BDFF10BDF0B583B0054617460E4611B100FB01F000E000204830FFF7BB
:4005C00079FD044638B100903B4600F1480231462846FFF7DBFF204603B0F0BDF0B585B004460F4601921E460025FFF76BFEA26BE36B9A4201D3022E21D13246394620460D
:40060000FFF70CFF636A6BB104F1240000F08EFE88B14FF08052324B1A60BFF34F8FBFF36F8F08E038B14FF080522D4B1A60BFF34F8FBFF36F8FFFF755FE01204EE0019B72
:400640001BB9FFF74FFE002048E01DB902A800F0A7FE0125FFF746FE00F060FCFFF732FE94F844305BB2B3F1FF3F02D1002384F8443094F845305BB2B3F1FF3F02D1002379
:4006800084F84530FFF72EFE01A902A800F092FEF0B92046FFF7A4FEA0B1019904F1100000F020FE2046FFF707FF00F0C7FC00289BD14FF080520A4B1A60BFF34F8FBFF3E3
:4006C0006F8F92E72046FFF7F7FE00F0B7FC8CE72046FFF7F1FE00F0B1FC002005B0F0BD04ED00E048B108B5002181600160C1600B460A46FFF772FF08BD704710B5024616
:4007000000210120FFF750FF0446FFF7EBFF204610BD00BFF8B5EFF311864FF0A00484F31188BFF36F8FBFF34F8F856BC46BA54201D3022B1BD11746054690F8454064B2FF
:400740001A46FFF76BFEB4F1FF3F0AD16B6A83B105F1240000F0EAFD68B177B1012038600CE0013464B285F84540012006E0002004E0012002E0012000E0012086F311888D
:40078000F8BD00BFF0B585B004460F4601920026FFF798FDA56BC5B139462046FFF77AFE013DA563236963B104F1100000F0BEFD38B14FF08052304B1A60BFF34F8FBFF368
:4007C0006F8FFFF78FFD012053E0019B1BB9FFF789FD00204DE01EB902A800F0E1FD0126FFF780FD00F09AFBFFF76CFD94F844305BB2B3F1FF3F02D1002384F8443094F8BE
:4008000045305BB2B3F1FF3F02D1002384F84530FFF768FD01A902A800F0CCFDF0B92046FFF7EEFDA0B1019904F1240000F05AFD2046FFF741FE00F001FC0028A8D14FF062
:4008400080520D4B1A60BFF34F8FBFF36F8F9FE72046FFF731FE00F0F1FB99E72046FFF72BFE00F0EBFB2046FFF7CAFD00288FD0002005B0F0BD00BF04ED00E070B584B0B7
:400880000446019100263546FFF71CFDA36BCBB1013BA363236813B900F0C4FEA060236963B104F1100000F041FD38B14FF080523B4B1A60BFF34F8FBFF36F8FFFF712FDC5
:4008C00001206BE0019B1BB9FFF70CFD002065E01DB902A800F064FD0125FFF703FD00F01DFBFFF7EFFC94F844305BB2B3F1FF3F02D1002384F8443094F845305BB2B3F15B
:40090000FF3F02D1002384F84530FFF7EBFC01A902A800F04FFD40BB2046FFF771FDF0B123683BB9FFF7CEFCA06800F087FD0646FFF7D8FC019904F1240000F0D3FC204616
:40094000FFF7BAFD00F07AFB00289DD14FF08052134B1A60BFF34F8FBFF36F8F94E72046FFF7AAFD00F06AFB8EE72046FFF7A4FD00F064FB2046FFF743FD002884D066B1E3
:40098000FFF7A0FC2046FFF721FD0146A06800F0FDFDFFF7A7FC002000E0002004B070BD04ED00E000230BE0074A52F8332032B9054A42F8331002EBC3035860704701337E
:4009C000092BF1D9704700BF7405002070B504460D461646FFF776FC94F844305BB2B3F1FF3F02D1002384F8443094F845305BB2B3F1FF3F02D1002384F84530FFF772FC54
:400A0000A36B2BB93246294604F1240000F07AFC2046FFF751FD70BD4269084B9A4206D1836A074A934204D02BB10020704700207047002070470120704700BF8001002056
:400A400094010020074B9B6A1B6823B94FF0FF32044BDA627047034B9A6AD268D2685268DA6270478001002010B50446006BFFF777FB2046FFF774FB10BD00BF2DE9F047BF
:400A800081460D4617469A46089EDDF824800A9C9200A521206B03F096FF236B07F18042013A03EB820727F00707002306E0E95CE21882F83410EA5C12B101330B2BF6D948
:400AC000002384F83F301F2E00D91F26E662266400256564201DFFF771FB04F11800FFF76DFB2461C6F12006A6616462A56484F84C50524649463846FFF7BEFB2060B8F1E6
:400B0000000F01D0C8F80040BDE8F08770B5002407E004EB8402930010481844FFF742FB01341F2CF5D90E4C04F52C763046FFF739FB04F531752846FFF734FB04F114007C
:400B4000FFF730FB04F53670FFF72CFB2046FFF729FBA662C4F8EC5270BD00BFB00100208001002038B50546FFF7ACFB264BD3F8F0220132C3F8F022D3F8F4324BB9224B33
:400B8000C3F8F452D3F8F032012B10D1FFF7BEFF0DE01D4BD3F8F8324BB91B4BD3F8F432DA6AEB6A9A4202D8174BC3F8F452164CD4F8FC320133C4F8FC32EB6A012202FA42
:400BC00003F1D4F800230A43C4F8002304F1300003EB83039A00291D1044FFF7F3FAFFF781FBD4F8F8326BB1D4F8F432DA6AEB6A9A4207D24FF08052044B1A60BFF34F8F08
:400C0000BFF36F8F38BD00BF8001002004ED00E038B517E0FFF756FB0D4CD4F8E432DD68281DFFF7F5FAD4F8F032013BC4F8F032D4F80433013BC4F80433FFF753FB28461D
:400C4000FFF712FF024BD3F80433002BE2D138BD8001002008B5FFF7DBFFFCE770B504460E461E4BD3F80853D3F8F4020430FFF7CFFA60B9194BD3F8F422D16A012202FA7C
:400C800001F1D3F8002322EA0102C3F80023B4F1FF3F07D136B11148D0F8F4120431FFF791FA70BD2C440D4BD3F8F4325C60A54208D90A4BD3F8EC02D3F8F4120431FFF774
:400CC0008DFA70BD054DA86AD5F8F4120431FFF785FAEB6A9C4200D2EC6270BD800100202DE9F04385B006460F46154698469000FFF7E0F960B181465020FFF7DBF904462B
:400D000010B1C0F8309004E04846FFF729FA00E000248CB10023039302940D9B01930C9B009343462A4639463046FFF7A7FE2046FFF718FF012001E04FF0FF3005B0BDE823
:400D4000F08300BF10B50446FFF7BCFA14B9044BD3F8F442E46AFFF7C5FA204610BD00BF80010020F8B504460D461F2900D91F25FFF7A8FA14B9304BD3F8F442236C9D42D5
:400D800056D00CD92C4AD2F8F42294420ED02A4AD2F8F422D26A95420AD200270BE0264AD2F8F422944205D0002704E0002702E0012700E00127E66AB34200D1E5622564A4
:400DC000A369002B02DBC5F12005A561616906EB86029300194A1344994220D1251D2846FFF716FA48B9012303FA06F6124AD2F8003323EA0606C2F80063E36A012202FAD3
:400E000003F10D48D0F800230A43C0F80023303003EB83039A0029461044FFF7D3F93FB14FF08052064B1A60BFF34F8FBFF36F8FFFF758FAF8BD00BF80010020B001002029
:400E400004ED00E01B4BD3F8F432984230D078B370B50446FFF736FA2046FFF7DDFD20B3261D3046FFF7D4F9E36A012202FA03F1104DD5F800230A43C5F8002305F130002B
:400E800003EB83039A0031461044FFF79BF9E26AD5F8F432DB6A9A4207D34FF08052064B1A60BFF34F8FBFF36F8FFFF71BFA70BD704700BF8001002004ED00E000B583B071
:400EC000124B019300230093642211491148FFF707FF012801D100F00BFC012813D14FF0A00383F31188BFF36F8FBFF34F8F0A4B4FF0FF32DA620122C3F8F8220022C3F810
:400F00000823FFF747FA03B05DF804FB90040020DC490000550C000080010020034AD2F80C330133C2F80C33704700BF80010020014BD3F808037047800100202DE9F04112
:400F40003D4BD3F80C33002B62D13B4BD3F808730137C3F8087367B99A6AD3F8EC129962C3F8EC22D3F814230132C3F81423FFF769FD314BDB6A9F4205D24FF000083BE038
:400F80004FF0010801E04FF000082B4B9B6A1B6823B94FF0FF32284BDA622DE0264B9B6ADB68DC6863689F4202D2234AD36223E0261D3046FFF72CF9A36A1BB104F11800DF
:400FC000FFF726F9E36A012202FA03F11A4DD5F800230A43C5F8002305F1300003EB83039A0031461044FFF7EDF8E26AD5F8F432DB6A9A42C4D2C8E70F49D1F8F432DB6AED
:4010000003EB83039A000A44136B012B09D80AE0094AD2F818330133C2F818334FF0000801E04FF00108044BD3F81C330BB14FF001084046BDE8F0818001002070B5FFF709
:4010400041F9324BD3F80C23013AC3F80C23D3F80C33002B53D12D4BD3F8F03243BB002450E02A4C236ADD6805F11800FFF7D0F82E1D3046FFF7CCF8EB6A012202FA03F193
:40108000D4F800230A43C4F8002304F1300003EB83039A0031461044FFF794F8EA6AD4F8F432DB6A9A4204D30122C4F81C2300E00025164B5B69002BD3D10DB1FFF7C2FCCE
:4010C000124BD3F8184364B1FFF738FF18B101220E4BC3F81C23013CF6D100220B4BC3F818230A4BD3F81C335BB14FF08052084B1A60BFF34F8FBFF36F8F012402E00024B6
:4011000000E00024FFF7EEF8204670BD8001002004ED00E038B505460C46FFF7FFFE164BD3F808032A681319904205D29A4209D9984209D300220CE09A4207D8984207D3BE
:40114000002206E0002204E0012202E0012200E001222B601AB10021181AFFF77FFDFFF76DFF38B94FF08052044B1A60BFF34F8FBFF36F8F38BD00BF8001002004ED00E088
:4011800010B548B10446FFF7C9FE00212046FFF765FDFFF753FF00E0002038B94FF08052034B1A60BFF34F8FBFF36F8F10BD00BF04ED00E01A4BD3F80C3323B10122184B13
:4011C000C3F81C23704710B4154A0023C2F81C33D2F80033B3FA83F3DBB2C3F11F039800C418A10011444C6B64684C6302F130011844820008320A44944206D1606803EBE3
:4012000083018A0006490A445063054903EB83039A000A44536BDB68C1F8F43210BC70478001002038B50446FFF74CF814B92B4BD3F8F442251D2846FEF7EAFF80B9E26ADA
:4012400002EB82018B0025490B441B6B43B9012303FA02F2D1F8003323EA0202C1F80023A36A1BB104F11800FEF7D2FF29461B48FEF7A8FF94F84C30DBB2012B02D1002365
:4012800084F84C30FFF72EF8144BD3F8F8322BB1FFF718F8FFF7D6FBFFF724F80F4BD3F8F4329C4219D10D4BD3F8F83243B14FF080520B4B1A60BFF34F8FBFF36F8F38BDA1
:4012C000064B1A68D3F8F0329A4204D10022034BC3F8F42238BDFFF76DFF38BD8001002004ED00E010B50C46054BD3F8F4121831FEF774FF01212046FFF7B0FC10BD00BFDF
:401300008001002038B50D461446074BD3F8F4121831FEF757FF0CB14FF0FF3521462846FFF79CFC38BD00BF8001002038B5C368DC6804F118052846FEF76AFF164BD3F86D
:401340000C33B3B9251D2846FEF762FFE36A012202FA03F11048D0F800230A43C0F80023303003EB83039A0029461044FEF72AFF03E029460948FEF725FFE26A064BD3F87E
:40138000F432DB6A9A4204D90120034BC3F81C0338BD002038BD00BF8001002094010020034BD3F814230260D3F808334360704780010020F8B504460D46FEF783FF124BD0
:4013C000D3F808136268881A2B68B3F1FF3F14D027680D4ED6F81463B74201D091420ED2984206D21B1A2B602046FFF7D9FF002406E000232B60012402E0002400E0012408
:40140000FEF770FF2046F8BD800100200122024BC3F81C23704700BF80010020064BD3F8F8322BB1044BD3F80C331BB902207047012070470020704780010020002858D043
:4014400038B50346C26A2D49D1F8F412C96A8A4246D28169002906DB2849D1F8F412C96AC1F120018161586902EB82029100244A114488422DD11C461D1D2846FEF7C8FE7F
:4014800080B9E26A02EB82018B001C490B441B6B43B9012303FA02F2D1F8003323EA0202C1F800231548D0F8F432DB6AE362012404FA03F1D0F800230A43C0F80023303019
:4014C00003EB83039A0029461044FEF77BFE204638BD0A4AD2F8F422D26ADA62012038BD026C064BD3F8F432DB6A9A4203D3002038BD00207047012038BD00BF8001002087
:40150000B0010020002838D038B50346426C013A4264C06A196C884231D092BB1C461D1D2846FEF775FE80B9E26A02EB82018B0015490B441B6B43B9012303FA02F2D1F81F
:40154000003323EA0202C1F80023236CE362C3F12002A261012404FA03F10B48D0F800230A43C0F80023303003EB83039A0029461044FEF727FE204638BD00207047002084
:4015800038BD002038BD00BF80010020002844D038B50346026C8A4200D20A46D96A8A423AD0586C012837D1DA629869002802DBC2F120029A61586901EB81018A001749BA
:4015C0000A44904228D11C461D1D2846FEF720FE80B9E26A02EB82018B0011490B441B6B43B9012303FA02F2D1F8003323EA0203C1F80033E36A012202FA03F10848D0F883
:4016000000230A43C0F80023303003EB83039A0029461044FEF7D6FD38BD7047B001002080010020064BD3F8F4322BB1044BD3F8F422536C01335364014BD3F8F40270478C
:4016400080010020064B1A6813680BB9012300E00023036013B9D3681868704700207047A004002008B54160006191420AD8D21A83699A4211D2011D0A4B5868FEF7AEFD76
:40168000002008BD9A4201D2994208D2011D054B1868FEF7A3FD002008BD012008BD012008BD00BFA004002070B5FEF70BFE0E4B9B68B3B90C4C04F10C063046FEF772FD06
:4016C00004F120052846FEF76DFD2660656000220C210A20FEF768FFA06010B10349FFF761F9FEF7FFFD70BDA0040020E449000000B583B0FFF7D8FF094B9B685BB1094B0B
:4017000001931F23009300234FF4806206490748FFF7E6FA00E0002003B05DF804FB00BFA0040020D4040020EC4900006119000030B585B0134CA56805B31C46019102928D
:401740000390052913DCFFF769FE022807D10023089A01A90B488068FEF740FF0FE000231A4601A907488068FEF738FF07E00023224601A92846FEF7CDFF00E0002005B0FD
:4017800030BD00BFA004002070B582B01FE0DB681E68DC68251D2846FEF73AFD636A20469847E369012B12D1A36933449E4207D26360246129460B4B1868FEF70FFD06E05D
:4017C000002100910B4632462046FFF7B1FF054B1B681A68002ADAD1024A51681160536002B070BDA004002038B50546FFF7A0FB0446074B9B6B984204D2FFF7C5FF012373
:401800002B6001E000232B60014B9C63204638BDA004002070B582B005460E460E4B1B68DB68DC68201DFEF7F3FCE369012B0ED1A1692B46324629442046FFF713FF30B1A4
:40184000002100910B462A462046FFF771FF636A2046984702B070BDA004002070B582B006460C46FFF75AFB01A8FFF7BDFF019B23BB054644B9B04206D3FFF7DFFB29460D
:401880003046FFF7C7FF1BE034B10E4B5B681B680BB9012400E000242246711B094B9868FFF794F8FFF7CAFB50B94FF08052064B1A60BFF34F8FBFF36F8F01E0FFF7BEFB50
:4018C00002B070BDA004002004ED00E030B587B03AE0039B002B37DB059C636913B1201DFEF796FC02A8FFF77FFF039B092B2BD8DFE803F00505052A1E2705052A1E049954
:40190000A5690B46024629442046FFF7ABFED8B1636A20469847E369012B15D1A269002100910B46049802442046FFF701FF0BE00499A1610346024601442046FFF792FEFD
:4019400002E02046FEF70CFC002203A9034B9868FEF718FF0028BCD107B030BDA004002000B583B001A8FFF76DFE0199FFF776FFFFF7ACFFF6E700BF034B044ADA62044A83
:401980009A63044ADA6370470080FF1FA1020000010300004503000000B583B001F000FF01F004FF02A9064B41F8043D00231A4604480068FEF7AEFE03B05DF804FB00BF7B
:4019C00099190000E004002008B502F091FFB0FA80F0400902F080FF0120FFF7D1FBF4E708B502F071FFB0FA80F0400902F060FF0220FFF7C5FBF4E710B50446FEF762FC78
:401A0000B4F1FF3F1CD1154C2178154B1868FFF7A9F92178134B1868FFF7A4F92178124B1868FFF79FF921780A39104B1868FFF799F921780B390E4B1868FFF793F909E0F6
:401A400014F1020F06D1054B19780A31084B1868FFF788F9FEF746FC10BD00BFD480FF1F30060020D0050020C8050020C40500202006002010B582B0012002F0A9FE0521A0
:401A8000254B1868FEF7FAFE0128F5D102F004FF022002F02BF8FFF74BFA02AB43F8040D96211846FFF736FB04E0022001F0C0FF1A4B9880022002F063F80028F5D0184CCB
:401AC000164B9A882146022002F026F8022002F04BF82378042B10D16378062B0DD1114902230B7003234B7046238B703723CB700422012001F0B0FF03E04FF0FF30FFF7DC
:401B00007BFF002002F0C8FE00231A46194602480068FEF763FDAFE71C060020E004002028060020DC05002070B5012002F050FE05211A4B1868FEF7A1FE0128F5D102F039
:401B40009FFE002114E001EB8103154800EBC1008268C4681348C2545D1C160A46559D1C160C4655DD1C120E42550433C45401310B29E8DD3F220B49012001F06DFF00208C
:401B800002F07EFE6FF00100FFF736FF00231A46194602480068FEF721FDC6E71C060020E0040020DC0500202DE9F04FD1B0C3B243F01002159243F02002169217930301AF
:401BC00003F47F6343F00A03DBB21C9300229D4B1A7005231D93012002F0FAFD05219A4B1868FEF74BFE0128F5D119210020FFF7B9F8012002F038FE924B1B78062BFBD8A4
:401C0000DFE813F007002E004B00AD00BA00D800E9018E4B1868FFF705FB8D4B1868FFF701FB8C4D002485F8684085F869404F944E9401F0FBF92146E86EFEF771FC214620
:401C4000286FFEF76DFC50A89DF8543000F8983D0122114601F052FA01227A4B1A70CBE74FF0FF324EA97B4B186FFEF78BFD0028C2D0052328AA4FF6FF71172000F018FCE1
:401C800000234E93734A82F8683001F0CFF901F01FFA02226B4B1A70AEE720224FA96D4BD86EFEF76FFD01282AD14F9B022B07D101F0BCF901F0F4F90022624B1A709BE78A
:401CC000012B99D14AA801F04FFA9DF828311C9A9A420CD1052322AA4FF6FF71152000F0E7FB0322574B1A7001F0A0F902E00022544B1A7000234F93564A82F869307BE7F3
:401D00000024504B1C70FEF7DDFA204602F0ACFD4E4B1868FFF796F84D4B1868FFF792F823462246214648480068FEF757FC1D9B0B2B0BD80133DBB21C461D930020FFF724
:401D400001F8011B0020FFF70DF805E005210020FFF708F805231D93FEF7C4FA3BE750A89DF8583000F8983D0122114601F0C6F90422344B1A703FE74FF0FF324EA9354B1D
:401D8000186FFEF7FFFC00283FF436AF052320AA4FF6FF71172000F08BFB00234E932D4A82F8683001F042F901F092F90522254B1A7021E720224FA9264BD86EFEF7E2FCF6
:401DC000012840F0D9804F9B022B05D101F068F900221C4B1A70C9E0012B40F0C7804AA801F0C2F9002314E050AA1A4412F8181C02F8A81C591D50A8014411F8181C02F8A0
:401E0000B01C03F10A01014411F8181C02F8C81C0133042BE8DD002200230024CDE90A34CDE90E349946A2461E462746CDE90834CDE90C34CDE9109ADDE91889DDE91ABC17
:401E400075E000BFD80500201C060020CC050020D4050020E0040020DDE90C014FEA012949EA10694FEA0028C2F1040350A90B4413F8A04C002548EA040049EA0501CDE99B
:401E80000C01DDE908014FEA012C4CEA106C4FEA002B13F8A84C00254BEA04004CEA0501CDE908013C0244EA166401943402009413F8B06C0027DDE9004534433D43264671
:401EC0002F46DDE910010C0244EA106403940402029413F8B84C0025DDE9020120432943CDE91001DDE90E010C0244EA106405940402049413F8C04C0025DDE904012043FA
:401F00002943CDE90E01DDE90A010C020794079D45EA106407940102069113F8C84C0025DDE9060120432943CDE90A010132042A92DDCDE91889DDE9109ACDE91ABCDDE9F0
:401F40000A34DDE90812944208BF8B4207D3DDE90E34DDE90C12944208BF8B4203D200224A4B1A7002E00622484B1A7000234F93474A82F869303FE60024444B1C70FEF76A
:401F8000A1F9204602F070FC424B1868FEF75AFF414B1868FEF756FF2346224621463F480068FEF71BFB1D9B0B2B0BD80133DBB21C461D930020FEF7C5FE011B0020FEF733
:401FC000D1FE05E005210020FEF7CCFE05231D93FEF788F9FFE501F029F8DDE90C45B9EB04046AEB0505DDE90823B21A67EB0303CDE91023DDE90A01801B61EB0701DDE93E
:402000000EBCBBEB090B6CEB0A0CCDE912BC179B03F1FF3C4FEA8C08DFF874E00EEB4C1CCCE9024508F101040EEBC404C4E9020108F102010EEBC101DDE91234C1E90234E3
:4020400008F103080EEBC80EDDE91023CEE9022300240E4B1C70FEF735F9204602F004FC0C4B1868FEF7EEFE0B4B1868FEF7EAFE23462246214609480068FEF7AFFA052114
:402080002046FEF76FFEFEF72DF9A4E5D8050020E0040020CC050020D40500201C06002030B585B01E2203A9474B1868FEF76AFB0028F7D00023029304230DEB03024FF605
:4020C000FF710F2000F0F4F99DF807409DF806301B0443EA04639DF8054043EA04239DF804401C43B4F1FF3F15D104230DEB03024FF6FF710F2000F0DBF99DF807209DF8BE
:4021000006301B0443EA02639DF8054043EA04239DF804401C4314F0800F10D02A480125014601F8685F00234FF0FF32006FFEF755FA2B460722042102A800F095F904F41B
:40214000C843B3F5C84F09D19DF8093043F064038DF8093001221C4B83F869201B4B1C4215D09DF8093063F06F038DF809309DF80A3043F027038DF80A309DF80B3043F01F
:4021800004038DF80B3002220F4B83F869200E4B93F86930DBB2012B05D00B4B93F86930DBB2022B08D1084800234FF0FF3200F16901C06EFEF712FA042302AA4FF6FF71C9
:4021C0000F2000F0D5F96DE7E004002000902704F0B583B0002001F0F1FA002002F0CAFA002002F0D3FA002002F0DCFA62B60221002001F0DFFBFFF7BFFB01F043FA0A2040
:4022000002F0E6FA00F05CFE404801F0BBFA152001F09CFA01F006FC0028FBD0002204210A20FEF7C1F93A4C2060002201210846FEF7BAF9E066002201210846FEF7B4F9D8
:4022400020670120FEF75AFA324B1860002401941623009323464FF400722F492F48FEF73FFD2F4F012587F83C502E4E2E4B019300952B464FF400722C493046FEF730FDB5
:40228000022387F83D302A4A019200954FF4007228493046FEF724FD032387F83E30264A019200954FF4007224493046FEF718FD234B0193234D6B78009323464FF400726C
:4022C00021492248FEF70CFD214B0193AB78009323464FF400721F491F48FEF701FD1F4B019306230093234664221D491D48FEF7F7FC1D4B019305230093234664221B4910
:402300001B48FEF7EDFCFEF7D9FDFEE799190000E00400201C060020F4490000A1200000DC050020A91B000030060020084A0000D0050020104A0000C8050020184A0000AB
:40234000C4050020D480FF1F204A0000291B000020060020284A0000751A0000CC050020304A0000E1190000D40500203C4A0000C91900000379012B02D0022B1ED03EE094
:402380000378013B062B3AD8DFE803F004090E13093913004B1EDBB2012B25D82FE0CB1EDBB2012B22D82AE04B1FDBB2012B1FD825E0CB1FDBB2012B1CD820E00378013BA5
:4023C000062B1CD8DFE803F00404040A041B0A00A1F10903DBB2032B0ED810E0A1F11103DBB2032B0AD80AE0012108E0032106E0052104E0072102E0092100E011210846B1
:40240000704700BF4B1E0C2B1AD8DFE803F00D0A07190A0719190A0719190A00C37853B90EE0C3784BB10BE0C37813B1012B06D006E0062104E0022102E0062100E0052198
:402440000846704738B5044605250570012303710223C3700421FFF78DFF607029462046FFF7D0FFA07038BD30B4D408A5B28D4210D202F0070233B1012303FA02F2035D5F
:402480001A43025506E0012303FA02F2035D23EA0202025530BC70470870030A4B70030C8B70000EC87070470870000A487070472DE9F04383B016461D460023ADF8043093
:4024C0008DF806304FF6FF73994204D18DF804004FF0010914E040F040008DF804007F2904D88DF805104FF0020909E061F07F038DF80530C1F3C7118DF806104FF00309AB
:4025000001F032F9074601F037F9002407E002AB234413F8040C01F029F80134A4B21FFA89F84445F3D3002404E0002001F01EF80134A4B2AC42F8D300F0FEFF10F0010FE1
:40254000FAD0002403E001F01DF80134A4B24445F9D3002404E001F015F830550134A4B2AC42F8D30FB101F0F9F803B0BDE8F0832DE9F04182B090461D464FF6FF73994224
:4025800005D160F07F008DF80400012612E060F03F008DF804007F2903D88DF80510022608E061F07F038DF80530C1F3C7118DF80610032601F0D8F8074601F0DDF80024BA
:4025C00007E002AB234413F8040C00F0CFFF0134A4B2B3B29C42F4D3002405E018F8040000F0C4FF0134A4B2AC42F7D300F0A4FF10F0010FFAD0002403E000F0C3FF013404
:40260000A4B273199C42F8DB0FB101F0A7F802B0BDE8F08100B583B0022301AA19461F20FFF746FF0D4B59789DF8042002F03F029DF8053003F0F80342EA81128DF8042029
:4026400043EA91038DF80530022301AA19461F20FFF78EFF03B05DF804FB00BF5805002000B583B0074A1379927843EA820302AA02F8043D012302210820FFF779FF03B0B3
:402680005DF804FB5805002000B583B05B4BDB78022B4FD1594B1B79012B02D0022B25D0A0E0564B1B78013B062B00F29B80DFE803F00404090E1399180001A95048FFF7C0
:4026C000EBFE8FE001A94F48FFF7E6FE8AE001A94D48FFF7E1FE85E001A94C48FFF7DCFE80E001A94A48FFF7D7FE7BE0434B1B78013B062B76D8DFE803F00404090E137577
:40270000180001A94348FFF7C7FE6BE001A94248FFF7C2FE66E001A94048FFF7BDFE61E001A93F48FFF7B8FE5CE001A93D48FFF7B3FE57E0314B1B79012B02D0022B29D098
:4027400050E02E4B1B78013B062B4BD8DFE803F004040A10164A1C0001A94FF07530FFF79BFE3FE001A94FF06F30FFF795FE39E001A94FF05F30FFF78FFE33E001A94FF0D8
:402780004830FFF789FE2DE001A94FF09230FFF783FE27E0194B1B78013B062B22D8DFE803F004040A1016211C0001A94FF06730FFF772FE16E001A94FF08B30FFF76CFE81
:4027C00010E001A94FF09A30FFF766FE0AE001A94FF08530FFF760FE04E001A94FF0D130FFF75AFE04230DEB03024FF6FF711E20FFF7BEFE03B05DF804FB00BF58050020D8
:40280000755535156F4F2F0F5F3F1F1F4828080E92725232674727078B6B4B2B9A7A5A3A85654525D1B1715100B583B0254B1B78013B062B35D8DFE803F0040D151D25345B
:402840002D00694645F64040FFF726FEC9238DF8043026E069461C48FFF71EFEC2238DF804301EE069461948FFF716FEC5238DF8043016E069461648FFF70EFE95238DF83E
:4028800004300EE069461348FFF706FEC0238DF8043006E069461048FFF7FEFD93238DF8043003236A460C212820FFF761FE012301AA0B212A20FFF75BFEFFF7E5FE03B049
:4028C0005DF804FB58050020A05C0400C06C0800805C0400E03F1E00E07D1E0000B583B0084BDB785B0163F07F0302AA02F8043D012319460820FFF73BFEFFF7C5FE03B04F
:402900005DF804FB5805002000B583B0084A1379927843EA820302AA02F8043D012302210820FFF725FEFFF7AFFE03B05DF804FB5805002008B50748FFF784FDFFF774FFC2
:40294000FFF7CCFFFFF7E0FFFFF764FEFFF788FE08BD00BF5805002000B583B0012301AA03211F20FFF7A4FD094BDA799DF8043003F0070343EAC2038DF80430012301AA54
:4029800003211F20FFF7F4FD03B05DF804FB00BF5805002000B583B0354B9B7A012B02D0022B2ED05AE0324B1B7A013B0C2B55D8DFE803F007171F54071F54540F1F545409
:4029C0000F0001A92B48FFF767FD0822284BDA8144E001A92848FFF75FFD1022244BDA813CE001A92548FFF757FD2022204BDA8134E001A92248FFF74FFD40221C4BDA81BA
:402A00002CE01B4B1B7A013B0C2B27D8DFE803F007171F26071F26260F1F26260F0001A91848FFF739FD0822114BDA8116E001A91548FFF731FD10220D4BDA810EE001A950
:402A40001248FFF729FD2022094BDA8106E001A90F48FFF721FD4022054BDA8104230DEB030208212720FFF783FD03B05DF804FB580500202D001A3152001A339A001A3559
:402A80001D011A376B003B31BE003B335E013B3596023B3700B583B01A4B1B7A013B0C2B08D8DFE803F01B1207070A1507070C1807070F004FF4805011E080200FE04FF45D
:402AC00080700CE04FF4007009E04FF4806006E04FF4C06003E04FF4006000E04020094A138AD2891844801A013001A980B2FFF7DBFC022301AA20212720FFF739FD03B0DA
:402B00005DF804FB5805002000B583B00023ADF80430ADF800301D4B1B7A013B0C2B22D8DFE803F0071019211019212110192121100001A91020FFF7B7FC69461020FFF758
:402B4000B3FC10E001A92020FFF7AEFC69462820FFF7AAFC07E001A96420FFF7A5FC69462820FFF7A1FC022301AA06212720FFF7FFFC02236A4626212720FFF7F9FCFFF7F0
:402B800009FFFFF787FF03B05DF804FB5805002000B583B00D4B9B79013B062B0CD8DFE803F004040408040B0800D8238DF8043002E0BC238DF80430012301AA0B21282012
:402BC000FFF7D6FC03B05DF804FB00BF5805002000B583B000238DF80430144B5B7A13B1022B11D809E069460A20FFF75DFC40238DF804300D4A138206E069460120FFF733
:402C000053FC0822094B1A82012301AA02210420FFF7AEFC02236A4619462720FFF7A8FCFFF738FF03B05DF804FB00BF5805002010B584B0012303AA02211F20FFF738FC9A
:402C40009DF80C3003F0F303224CA27A43EA82038DF80C30012303AA02211F20FFF788FCA37A012B02D0022B0FD01CE002A98720FFF71AFC01A948F67000FFF715FC694661
:402C800041F20760FFF710FC0DE002A98D20FFF70BFC01A948F69B00FFF706FC694640F20760FFF701FC022302AA04212720FFF75FFC022301AA04212320FFF759FC02234A
:402CC0006A4641F606012E20FFF752FCFFF762FE04B010BD5805002010B582B0012301AA03210420FFF7E4FB9DF8043043F010038DF804300D4C6946A089FFF7D5FBA38932
:402D00002BB99DF8043023F010038DF8043002236A464FF6FF710C20FFF72AFC012301AA03210420FFF724FC02B010BD5805002010B5094CA01DFFF785FB0023A381FFF782
:402D400027FFFFF745FFFFF773FFFFF705FEFFF7DBFEFFF7C1FF10BD5805002010B584B0224CA37C43EA031304AA02F8043D01234FF6FF711F20FFF7FBFBA37C013B062B81
:402D800024D8DFE803F0040C140C1C231C0001A91748FFF781FB1E238DF8083016E001A91448FFF779FB26238DF808300EE001A91148FFF771FB56238DF8083006E001A9D4
:402DC0000E48FFF769FBBE238DF8083004230DEB030207212B20FFF7CBFB012302AA0B212B20FFF7C5FB04B010BD00BF580500200704000908054008091040081D04000885
:402E000070B582B0012402AD05F8044D23462A4600213620FFF7ACFB204601F0D9FC00268DF8046023462A4603213620FFF7A0FB204601F0CDFCF0238DF8043023462A4648
:402E400003213620FFF794FB052001F0C1FC8DF8044003238DF8053002232A4631463620FFF786FB204601F0B3FC8DF8006080238DF8013002236A4606212D20FFF778FB08
:402E8000204601F0A5FC8DF8046002238DF805302A4631463620FFF76BFB02B070BD00BF08B5FFF7ADFFFFF745FDFFF741FF0522024B9A74FFF752FF08BD00BF5805002084
:402EC00030B587B0FFF7ECFF042305AA4FF6FF710020FFF7EDFA9DF817209DF816301B0443EA02639DF8152043EA02239DF8142013434C4A934203D0642001F069FCFBE7C0
:402F0000494B18680490042304AA0C212320FFF72FFB06AA6D2302F80C3D012340F606012E20FFF725FB002506AC44F8105D042322464FF6FF710E20FFF7BAFA0123072253
:402F400004212046FFF790FA01230D2204212046FFF78AFA01230C2204212046FFF784FA01230F2204212046FFF77EFA0123102204212046FFF778FA012311220421204624
:402F8000FFF772FA0123122204212046FFF76CFA0123152204212046FFF766FA01231A2204212046FFF760FA042322464FF6FF710E20FFF7DDFA40238DF8053006AC4F2379
:402FC00004F8143D022322464FF6FF711820FFF7CFFA0223224641F604012E20FFF7C8FA642001F0F5FB042305AA4FF6FF712846FFF75EFA9DF817209DF816301B0443EADD
:4030000002639DF8152043EA02239DF814201343044A934203D0642001F0DAFBFBE707B030BD00BF3001CADE484A000010B582B00023019340228DF80420009300F094FB35
:40304000044600F099FB04230DEB03024FF6FF710D20FFF78DFA0123072204216846FFF703FA9DF8013063F00B038DF801309DF8023043F027038DF802309DF8033043F039
:4030800004038DF8033004236A464FF6FF710F20FFF76EFA0CB100F061FB02B010BD00BF10B582B002ACE02304F8043D0123224603213620FFF75CFAF0238DF804300123CA
:4030C000224603213620FFF753FA02B010BD00BF10B582B002AC002344F8043D0123082204212046FFF7C0F9042322464FF6FF710D20FFF73DFA02B010BD00BF30B583B0AC
:403100000B4615468A1C02AC04F8012D02464FF6FF710920FFF72CFA012322464FF6FF710820FFF725FA02AA002342F8083D01234FF6FF710D20FFF7BBF99DF8003043F0AF
:40314000020325B163F07F038DF8003003E003F07F038DF8003004236A464FF6FF710D20FFF706FA03B030BD10B582B0044601230DF107024FF6FF711020FFF799F99DF820
:403180000730023BDBB28DF8073022464FF6FF711120FFF78DF99DF80730052B16D902AA002302F8023D01234FF6FF711120FFF77FF90D2305E0E21812F8012CE254013B65
:4031C000DBB2002BF7D19DF80630237002B010BDFEE700BFF0B40022174611E050F82760F3B226F0FF0608E001EB420511F812406D78A5550132013BDBB2002BF4D10137B2
:40320000172FEBD9F0BC7047064B1B78DBB203F00701054A11701B09013213704422034B1A707047CF0100496E5800407658004008B50A46002101F0C6FB08BD38B50F2226
:40324000264B1A801823264A137041F2BF2102321180023213700622224B1A705222A3F580731A70204B1B78DBB2204A13704FF4E2621F4B1A8041F25122023B1A8000243A
:4032800019250CE01B4B1B7803F0010343EA440404F003044FF4F07001F032FB013D0DB1032CEFD115B90320FFF792FF124A4FF48073138007231370002310490B7048202F
:4032C0000231087013700532137002220C4B1A700C4A137843F00303137038BD8040004082400040004300400F010049A146004022420040254200400440004006400040F5
:4033000001400040A243004008B501F051FB08BD38B572B6344A137843F00403137000240CE0324D630019194A0011462A44084691882858FFF77CFF0134E4B2092CF0D9F9
:4033400000240BE02949A3001819420088188022016CC06BFFF7D8FF0134E4B2002CF1D023494FF09040FFF735FF224A137843F0020313701032137843F0020313701E4C0E
:40338000237843F040032370A2F58632513A137843F0100313700A2218491948FFF7B4FF0A2218491848FFF7AFFF082217491848FFF7AAFF082217491748FFF7A5FF174AA6
:4033C000137843F008031370154D61232B70FFF735FFC1232B70FFF717FF0E2221461148FFF792FF38BD00BFE84600404C4A00006000004803500140A0430040AC020048C7
:40340000F0510040B802004810510040C402004822510040CC020048325100402243004000480040B043004008B501F095FA03680C2B00D1FEE7FEE708B5104E104D16E086
:4034400029686B68AC68002204E051F8040B43F8040B0432A242F8D1E868002203E0002143F8041B04328242F9D11035013E002EE6D101F077FAFEF7ABFEFEE70100000066
:403480007C4B000008B5104A104B1A60104A136843F40073136000230AE0032B03D80D4A52F8231000E00C490C4A42F8231001332F2BF2D90A4B1A780A4B1A70074A0A4BC0
:4034C0001A60FFF725FF08BD0004FA050CED00E014ED00E000000000293400000080FF1FBC760040C080FF1F08ED00E00222014B1A60704700E100E008B501F009FA0A4AAF
:40350000137843F02003137002F58072137843F0100313700132137843F01003137001F0FBF9FFF7E3FF08BD966400400222014B1A60704780E100E0014B1878704700BF73
:403540006665004010B5FFF7F1FF064B1B78064A147804F040041C4300231370FFF7C6FF204610BD6765004049060020034B1B7813F0040FFAD0024B1870704766650040D7
:403580004664004010B5FFF7D1FF134B1A78D2B2124B1B78DBB29A4214D0114B1B7813F0FF0F0CD10C4A13780133DBB213701378DBB20E2B06D90022074B1A7002E00022B1
:4035C000074B1A70044B1B78DBB2064AD45CE4B2FFF78CFF204610BD4806002047060020340600203806002008B501E00A4B1B780A4B1B7813F0200FF8D101F089F9084BF4
:403600001A7842F001021A701A7802F0FE021A7001F082F908BD00BF56640040676500409664004010B50F220F4B1A7002220F4B1A600721012001F0FFF80D49012001F090
:40364000E7F8FFF7D1FF00240A4B1C700A4B1C700A4B1C70FFF770FFFFF774FF084B1C70202201331A7010BD8664004080E100E0A1360000340600204806002047060020ED
:403680008665004008B5054B1B7823B9FFF7CAFF0122024B1A70FFF72FFF08BD6C050020204B1A7820490B7803F0400313430B7032E01E4B1A78D2B21D490B780133DBB205
:4036C0000B700B78DBB20E2B02D90021184B1970174B1978C9B2174B1B78DBB299420ED114490B780133DBB20B700B78DBB20E2B02D900210F4B197001210F4B19700C4BD4
:403700001B78DBB20D49CA54064B1A7806490B7803F0400313430B70034B1B7813F0200FC7D1704767650040490600205664004047060020480600203406002038060020CF
:40374000014B1B681864704708ED00E04001C0B2014B1870704700BF00E400E00122014B1A60704700E100E0024B186800F00100704700BF00E100E00122014B1A607047BB
:4037800080E100E010B50446FFF7F6FF2046FFF7D7FF0720FFF7DAFFFFF7E0FF10BD00BF0122014B1A60704780E200E0024B1878C0F30010704700BF82450040044A13786D
:4037C00003F0EF03000100F0100018431070704710510040F8B501F09BF806463C4A137843F0010313701032137843F0010313700127384B1F700225943B1D7002F5E252F9
:403800001B32137803F07F031370002000F0F6FF314C237803F0F9032370304A137803F0DF03137023783B432370384600F0E6FF282000F0E3FF2A4B1A7802F07F021A709F
:403840001A7802F0BF021A7023782B432370284600F0D4FF237843F0040323700023214A137001321370304601F056F80721172000F0E2FF1C49172000F0CAFF07211820E3
:4038800000F0DAFF1949182000F0C2FF0721152000F0D2FF1649152000F0BAFF0721284600F0CAFF1349284600F0B2FF0721032000F0C2FF1049032000F0AAFF07210C207A
:4038C00000F0BAFF0D490C2000F0A2FFF8BD00BFA54300409D6000409443004012600040F85100408460004035400000A13E000031400000CD3F0000FD3F00003D40000033
:4039000008B5204B187000231F4A13701F4A13701F4A13701F4A13701F4A13701F4A13701F4A13701F4B4FF400021A604FF080721A604FF400121A6004221A6008221A6059
:4039400011B1012906D00BE0174A137803F0FE0313700AE0144A137843F00103137004E0114A137843F00103137003220F4B1A708022203B1A70012000F0C2FF04220C4B47
:403980001A7008BDD1060020BF060020C0060020C5060020D0060020E0060020B8060020B906002000E100E009600040286000401260004038B504460D46064B1B7823B924
:4039C000FFF708FF0122034B1A7029462046FFF797FF38BD6D05002000230A4A13700A4A13700A4A13700A4A13700A4A13700A4A13700A4A13700322094B1A708022203BE3
:403A00001A707047BF060020C0060020C5060020D0060020E0060020B8060020B906002028600040014B1878704700BFC5060020431EDBB2072B0BD8064B00011A18185CD6
:403A400000F00F00537843EA0020023880B2704700207047FC5F0040431EDBB2072B3CD8F0B4074600EB4004A3001C4C2344DB889BB2C3F500739A4208D900EB400293007C
:403A80002344DA8892B2C2F5007292B200EB4004A300124C2344DB7843EA1223104D04012E192B55D3B2737039B909E0CE5C3D010C4C665501339BB200E000239A42F5D82C
:403AC000420002449300054A134400225A705A79D2B20001044B1A54F0BC70474C060020FC5F004078600040FE5F0040431EDBB2072B0BD8420002449300054A13440022F9
:403B00005A705A79D2B20001024B1A54704700BF4C060020FE5F004070B5D9B1054614460E46C8B1082819D8FFF782FFA04203D22846FFF77DFF0446002305E02901094A04
:403B4000525CF25401339BB2A342F7D32846FFF7CDFF04E0002402E0002400E00024204670BD00BF78600040431EDBB2072B03D80001024B08221A54704700BFFE5F004081
:403B8000431EDBB2072B06D80001044B185C00F01000C0B270470020704700BFFE5F00401D4B19781D4A13889BB20B449BB2138000220FE01A494B681B78DBB219488354F1
:403BC0004B6801334B600132D2B20B889BB2013B9BB20B80124B1B889BB20BB1072AE9D90D4B1B78DBB2082B00D05AB10E490B7883F080030B700F210C4B197002210C4B31
:403C0000197004E0022309490B7009490B70094B1A70014B1A707047B9060020BA060020D406002000600040D2060020BD060020BF060020BE0600200222074B1A7080224E
:403C4000064B1A700F22064B1A700023054A1370054A137001207047BF060020D2060020BD060020B9060020BE06002008B5FFF797FF08BD10B4194B197801F00F01023938
:403C8000C9B2174A13889BB20B449BB21380002011E0144A5468144B1B5CDBB223705368013353600130C0B20139C9B213889BB2013B9BB213800B4B1B889BB20BB10029C7
:403CC000E7D10A4B19700A4A137883F0800313700B22084B1A7010BC704700BF29600040BA060020D406002000600040BE060020D2060020BD0600200623064A1370064A3C
:403D000013708022054B1A700022054B1A700120704700BFBF060020BD060020D2060020BE060020064B9B6843B1054B9A6810709A6804490988518000229A60704700BFF0
:403D4000D4060020BA06002008B5134B1A78D2B21A701B78DBB213F0800F02D00F4A137008BD0220FFF7DEFF0D4B1B7803F06003202B05D0402B06D043B900F05BFB06E0CA
:403D800000F0CEFD03E000F0E9FC00E0002010B90322024B1A7008BD28600040BD0600200060004008B5094B1978094A13889BB20B449BB213800022064B1A700120FFF79B
:403DC000B1FF0322044B1A7008BD00BFB9060020BA060020BF060020BD06002008B50B4B1B78DBB2042B06D0062B07D0022B0BD1FFF7D8FF08BDFFF73DFF08BD0320FFF71F
:403E000091FF0322024B1A7008BD00BFBF060020BD06002008B50022044B1A700120FFF781FF0322024B1A7008BD00BFBF060020BD06002008B50B4B1B7813F0FF0F07D085
:403E4000084A137843F0800307490B70002313700022064B1A700120FFF764FF0322044B1A7008BDE006002008600040BF060020BD06002008B5094B1B78DBB2042B06D058
:403E8000062B07D0022B07D1FFF7F0FE08BDFFF7C1FF08BDFFF7CEFF08BD00BFBF06002008B5284B1B78DBB213F0100F48D013F0800F0CD003F00F03012B16D1FFF744FF5C
:403EC000214B1B7813F0800F11D1012312E013F0400F03D0FFF7CEFF01230BE013F0200F07D0FFF77BFF012304E0002302E0002300E0002323B3134B1B7813F0800F1FD14D
:403F0000124B1B78124A12781343124A13701278D2B2934214D10C4B1B78DBB2094A127812F0800F07D1084B1B78DBB2054A1370137803F00F03044A1278D2B29342EAD130
:403F400008BD00BF28600040BD060020D2060020BE060020296000400022064B1A80064B9B682BB1044A916800230B7092685380704700BFBA060020D406002008B50F4B17
:403F80001B889BB213B9FFF757FE15E002220C4B1A7000220B4B1A70FFF7DEFF0A4AD179937943EA0123054A128892B2934201D2024A1380FFF7F4FD012008BDD4060020B5
:403FC000BF060020D2060020006000400122094B1A700F3B9B7C084B1B7B03F00303934204D0054AD37B83F08003D3730122024B5A7370470B6000404C06002002220A4BF4
:404000001A700F3B93F82230084B1B7E03F00303012B04D0054AD37E83F08003D3760122024B5A76704700BF0B6000404C060020704700BF08B5FFF7CFFC08BD08B500F0D2
:40404000BDFB08BD10B401233EE019461A010C242148845403EB4300820020480244527912F0FF0F13D003EB430082001B480244127912F0800F04D01801194A02449470A1
:404080000AE01801164A02440820907004E01801134A0244802090704800084482000F480244D488E4B208010B4901448C71D088C0F30720C871D088C0B20871D288C2F3EE
:4040C00007224A710133DBB2082BBED9FF22054B1A7010BC704700BF706000404C060020FC5F00400A600040074B1A78074B03EBC2035B681A7C824204D9C000103018440E
:404100004068704700207047D1060020944A0000034B1A78034B03EBC2035868704700BFD1060020944A000008B5084B18780138C0B2FFF7D9FF30B142681279023200EB3A
:40414000C203586808BD002008BD00BFC5060020F8B5002310E05A4D5900CA189600AC190022AA55A270E2702281A272627034462C4462710133DBB2082BECD940B90AE002
:4041800000225049CA545049CA540133DBB200E00023002BF4D04D4B1B7813F0FF0F00F08E804A4B18780138C0B2FFF79DFF4368DB7913F0400F05D0454A137843F00103A9
:4041C000137004E0424A137803F0FE031370047AC368002248E019783A4D695CC9B25D78A9423ED193F802C00CF07F01DF7807F00307DFF8CCE04D000D44AE000EEB0605BC
:4042000085F804C093F803C00EF806C09E882E8193F90250002D12DA012F02D14FF0070C01E04FF00D0C264F4D0005EB010E4FEA8E063E4486F805C00121717011E0012F52
:4042400002D14FF0050C01E04FF0090C1C4F4D0005EB010E4FEA8E063E4486F805C00021717008330132D2B2A242B4D3C06800220CE0837803F07F0310F8085B03EB4303F9
:4042800099000F4B19448D720132D2B2A242F0D3FFF74AFF0F4B1860002101230BE0084D5A00D01884002C44E180228992B2114489B20133DBB2082BF1D9FFF7C3FEF8BD7B
:4042C0004C060020BC060020C8060020C5060020B8060020CC06002008B5154B1B7903F07F035A1ED2B2072A20D8590019448A0010490A44917841F0010191700021D170F0
:40430000517841F002015170127912F0800F05D01B01094A1A448D23937004E01B01064A1A4489239370FFF7E7FC08BD002008BD006000404C060020FC5F0040274B1B79BB
:4043400003F07F035A1ED2B2072A44D810B5590019448A0022490A44917801F0FE0191700021D1701F4C1801215C01F07F012154517801F0FD015170127912F0800F13D006
:4043800003EB43018A0016490A445278D2B2012A04D1224602440C23937019E01B01114A1A440D23937013E003EB43018A000C490A445278D2B2012A05D11B01094A1A44F7
:4043C0000823937004E01B01064A1A4409239370FFF792FC10BD0020704700BF006000404C060020FC5F004010B50E4B1C79E4B20D4B18780138C0B2FFF776FE43681B7999
:404400009C4201D9012C0AD8084A135DDBB208490B55044B9B78DBB21355012010BD002010BD00BF00600040C5060020BC060020C806002010B59B4B1B78DBB200219A4A99
:40444000118013F0800F00F09C80964A5278D2B20A2A00F25F81DFE812F058005D015D015D015D015D010B005D0181005D0189008C4BDB78DBB2012B09D1FFF749FE42686D
:40448000894B5A6012221A80FFF778FD10BD854BDB78DBB2022B13D1824B9878FFF724FE002800F0398142687F4B5A605A68D1785A68927842EA01221A80FFF75FFD10BDD3
:4044C000784BDB78DBB2032B05D01BE00A7811440133DBB201E000237449724A9278D2B2934203D20A7812F0FF0FEFD10B7813F0FF0F00F013810B786B4A13805160FFF7F2
:404500003DFD10BD00F00CFA10BD13F0030317D0022B40F0058164490B80624B1B7903F07F0303EB43039A00614B1A449278D2B2604B1A7000225A704B60FFF71FFD10BDDF
:40454000594902230B805C4B1A78D2B2594B1A7000225A704B60FFF711FD10BD524B01221A80564A5A60FFF709FD10BD4E4A012313804C4B1B7952490B445360FFF7FEFC12
:4045800010BD484A5278013A0A2A00F2CB80DFE812F04D00C9007A00C9000B00C900C900C9001300C90030003E4B9B78DBB2454A1370FFF7A1FB10BD3A4B9B7803F0FF046A
:4045C0001BB1601EC0B2FFF78FFD04B110B9002C40F0AA80394B1B78DBB29C4206D0374B1C700120384B1870FFF7B2FDFFF784FB10BDFFF7F9FE002800F09880294A1379E4
:40460000DBB21279D2B231490A70314AD25CD2B22B49CB5CDBB29A4205D001222A4B1A700020FFF795FDFFF767FB10BD03F00303012B17D04BB1022B7AD11A4B9B7813F0FA
:40464000FF0F77D1FFF77AFE10BD164B9B78DBB2012B71D1184A137803F0FD031370FFF74BFB10BD0F4B1B7913F0FF0F66D10D4B98781B79DBB21749CA5C22EA0002CA545D
:40468000FFF73AFB10BD03F00303012B31D01BB3022B55D1034B9B7813F0FF0F52D1FFF71BFE10BD00600040D4060020E84A00004C06002070050020B8060020C5060020AE
:4046C000BC060020E0060020C0060020D0060020C8060020C40600201D4B9B78DBB2012B32D11C4A137843F002031370FFF704FB10BD174B1B7913F0FF0F27D1144B98780B
:404700001B79DBB21449CA5C22EA0002CA54FFF7F3FA10BD002010BD002010BD002010BD002010BD002010BD002010BD002010BD002010BD002010BD002010BD002010BDCA
:40474000002010BD002010BD002010BD002010BD00600040B8060020C4060020044B1B7813F0800F01D0024B5B780020704700BF00600040044A137803F0DF03400100F0A3
:40478000200018431070704710510040044A137803F0BF03800100F0400018431070704710510040044A137803F07F03C001C0B218431070704700BF10510040024B1878E4
:4047C000C0F38010704700BF8F45004001BE704710B5044605E0084B186800F091F8A4F50044B4F5004FF6D8034B586800FB04F000F086F810BD00BFD880FF1F08B5034B1B
:404800001B7A00FB03F000F07BF808BDD880FF1F70B504460E46074B1D681F2802D90020FFF7D4FF04F01F04103455F8240045F8246070BD08ED00E038B504460D46072969
:4048400002D90020FFF7C2FF1F2C02D90020FFF7BDFF04F01F0000F1604000F564406D01EDB2057038BD00BF044A137803F07F03C001C0B218431070704700BF3051004088
:40488000044A137803F0BF03800100F0400018431070704730510040044A137803F0DF03400100F0200018431070704730510040044A137803F0EF03000100F010001843FA
:4048C0001070704730510040024B1878C0F30010704700BF31510040044A137803F0F703C00000F0080018431070704730510040024B1878C0F3C000704700BF315100408F
:404900000230800803D000BF01380046FCD17047EFF3108072B6704780F31088704700BF0B4B1B7803F00303012B02D0022B03D00CE0074B1B7909E0054B1B7903F07F0362
:4049400003EB43039A00034B1A44937A00207047006000404C060020014B1868704700BF4881FF1F0E4B70B51E460E4C0025E41AA410A54204D056F8253098470135F8E739
:4049800000F0EAF8084B094C1E46E41AA4100025A54204D056F8253098470135F8E770BD644B0000644B0000644B00006C4B000010B5431E0A44914204D011F8014B03F894
:4049C000014FF8E710BD03460244934202D003F8011BFAE7704700000000000049444C4500000000546D725100000000546D722053766300696E746572727570745F726F88
:404A00007574696E65000000736C6176655F3100736C6176655F3200736C6176655F33007573625F6F7574007573625F696E000064756D6D795F7461736B000064756D6DDB
:404A4000795F7461736B320007A90225004F00400C00005100401000405100403000C0510040100000000140000680060140800900140140000800400140000A004C0140F8
:404A80000002005001402000000601402C02004880000000010000009C4A000001000000444B0000000000000000000001000000B44A000001000000244B0000020000001E
:404AC000D84A0000000000000000000000000000D44A00000000000000008102400000000000020208000000040309042C0343007900700072006500730073002000530008
:404B000065006D00690063006F006E0064007500630074006F0072000A03550053004200500000000902200001010080FA090400000200000000070581024000000705028F
:404B4000020800001201000200000008B40411E00000010200014300F8B500BFF8BC08BC9E4670474D00000085340000F8B500BFF8BC08BC9E46704729000000904B000016
:404B8000C880FF1F88000000988500000000000000000000F87F0000AAAAAAAA141D1E000000C05D80BB000030000000006CDC0200000000000000000000000000000000AA
:404BC00000000000000000000000000000000000564B0000000000000000000000000000000000000000000000000000000000000000000000000000000000000000000014
:404C000000000000000000000000000000000000E880FF1F0000000000000000000000000000000000000000000000000000000000000000000000000000000000000000EE
:404C40000000000000000000000000000000000000000000000000000000000000000000000000000000000000000000000000000000000000000000000000000000000034
:404C800000000000000000000000000000000000000000000000000000000000000000000000000000000000000000000000000000000000000000000000000000000000F4
:404CC00000000000000000000000000000000000000000000000000000000000000000000000000000000000000000000000000000000000000000000000000000000000B4
:404D00000000000000000000000000000000000000000000000000000000000000000000000000000000000000000000000000000000000000000000000000000000000073
:020000040003F7
:0200000480007A
:4000000002450040024F004003520040016400400105014025070140010B0140041401400A1501403816014036170140031901400440014003410140044201400443014021
:400040000245014001460140034701401448014005490140054C0140045001400151014014017E0201100AB1780879027C40860FEE080512060207200D020E2517151D90FB
:400080001E422522261827602E012F20361837413E163F8045A24D024E0A4F0454805610574265016E116F357602C0F0C2F0C470CAC0CCF0CEF0D0B0D230D880EE08392005
:4000C0003F1059045F0122208A20A901B080B310B404B686B702E220EC10001202640310047206080810090E0A600CCD1002120D140115441632173919631A801B041CCDEA
:400100001D451F3A204D2280248D264028CD300F31303280330F3470374039083A223E043F405409580459045B045F018005820A88098A068C028E0D98039A0CB00FBA02F0
:40014000D440D604D804DB04DF0100400208034005100602076009200D020E290F04100111801715184019011D161E0424102541361837403C103D025C045E425F10610410
:40018000629063406401801087409241930496049A129B759D01A080A120A219A302A602A910C0FBC2F2C470CC70CEA0D6F0D81FE202EA02EE02E202EA02EE02338136403A
:4001C0003702CCF09F03A640A7809F03A640AF80EE1068409F03A640DC201110C402AD1009080F40C20C020450045708582065208004844086409820A440A640A820AF03E8
:40020000C040D4E0D880E240E6C0EA40EE6089209D20AB08B604EE8002028602AD08AF40C00200010A0110011A0100AF601A00005618090001020018848200000A18100212
:40024000079C38030433004484C10038041A8000801804028400000000000000080F00E07F1380002000000A000041004602100005BDFCE02FFFFFFF2200F0080400000034
:400280000000022C04040404000000010000C00040011011C001001140014001000000000000000000000000000000004000040B0B000B00C0000000F00000FFFF00000076
:4002C00000000000101010000000000000F8F800000000000000000000000000000000000000000000000000000000000000000000000000000000000000000000000000DE
:4003000000000000000000000000000000000000000000000000000000000000000000000000000000000000000000000000000000000000000000000000000000000000BD
:40034000000000000000000000000000000000000000000000000000000000000000000000000000000000000000000000000000000000000000000000000000000000007D
:40038000000000000000000000000000000000000000000000000000000000000000000000000000000000000000000000000000000000000000000000000000000000003D
:4003C00000000000000000000000000000000000000000000000000000000000000000000000000000000000000000000000000000000000000000000000000000000000FD
:0200000490006A
:0400000000004005B7
:0200000490105A
:04000000BC90ACAF55
:0200000490303A
:02000000B847FF
:0200000490402A
:4000000000000000000000000000000000000000000000000000000000000000000000000000000000000000000000000000000000000000000000000000000000000000C0
:400040000000000000000000000000000000000000000000000000000000000000000000000000000000000000000000000000000000000000000000000000000000000080
:400080000000000000000000000000000000000000000000000000000000000000000000000000000000000000000000000000000000000000000000000000000000000040
:4000C0000000000000000000000000000000000000000000000000000000000000000000000000000000000000000000000000000000000000000000000000000000000000
:0200000490501A
:0C00000000012E16106900012E34C8B05B
:00000001FF